:020000040800F2
:1000000038040020D50000087F0A00087D0A000897
:1000100000000000000000000000000000000000E0
:10002000000000000000000000000000C70A0008F7
:100030000000000000000000C50A0008C90A00080E
:10004000E7000008E7000008E7000008E7000008F4
:10005000E7000008E7000008E7000008E7000008E4
:10006000E7000008E7000008E7000008E7000008D4
:10007000E7000008E7000008E7000008E7000008C4
:10008000E7000008E7000008E7000008E7000008B4
:10009000E7000008E7000008E7000008E7000008A4
:1000A000E7000008E7000008E7000008E700000894
:1000B000E7000008E7000008E7000008E700000884
:1000C0000348854600F02AF800480047B50B0008B1
:1000D000380400200448804704480047FEE7FEE754
:1000E000FEE7FEE7FEE7FEE7390B0008C100000867
:1000F00030B50B46014600202022012409E00D46C0
:10010000D5409D4205D31D469540491B2546954047
:1001100040191546521E002DF1DC30BD064C01255C
:10012000064E05E0E36807CC2B430C3C984710349F
:10013000B442F7D3FFF7C8FF300C0008500C00089A
:10014000F8B5002604463546002802D0A06AC0064D
:1001500001D5012633E01B488169012739438161BC
:10016000806938400090204600F032F8A06A0028EC
:1001700002D10021242001550220A06212492068EA
:10018000884200D11025A168606822690843E168AF
:100190001143084361690843A16908430A49A8401B
:1001A0001E39CA69094BAB409A431043C861E069E4
:1001B000002803D0C869CA011043C861A76230464D
:1001C000F8BD0000001002401E0001407E3F00000C
:1001D00070B500680E4986B0884216D101200090A3
:1001E0000024072009260225F606049002940195B2
:1001F00003946946304600F03BF8032001906946BD
:1002000000950294304600F033F806B070BD00004F
:100210001C00014070B500242146002805D0826AE8
:10022000D20602D4826A012A02D00124204670BD7F
:100230000C4B02689A4200D110210A4A1E3AD36937
:1002400001258D402B43D361022181620748064975
:100250000068FFF74DFF3C21484300E0401E0028A6
:10026000FCD1E3E71E00014040420F0008000020DF
:10027000F8B5002393E0224601249C40A446224086
:100280007ED04C68022C01D0122C0CD1DC08A400CA
:1002900027183C6A5D07ED0E0F26AE40B4430E6989
:1002A000AE4026433E6205685E000324B4400F79E9
:1002B000A543BF07BF0FB7402F4307604D68012D0F
:1002C00005D0022D03D0112D01D0122D0ED185683D
:1002D000CF68A543B7402F43876047686546AF4363
:1002E0000D79ED06ED0F9D403D434560C568A54382
:1002F0008C68B4402C43C4604C68E4004ED52B4C51
:10030000A56901263543A561A4699D083440009480
:10031000274CAD002F19BC689D072E0F0F25B54047
:10032000AC430925ED06A84201D1002514E0214D7A
:10033000A84201D101250FE01F4DA84201D102259D
:100340000AE01E4DA84201D1032505E01C4DA8423C
:1003500001D1042500E00525B5402543BD60194CB9
:1003600025684E689543F60300D5154325606568FA
:100370004E689543B60300D515436560A56800E057
:100380000CE04E689543F60200D51543A560E5687C
:100390004E689543B60200D51543E5605B1C0A68BC
:1003A0001446DA4000D066E7F8BD000000100240B5
:1003B000000001400004004800080048000C00480C
:1003C0000010004800040140014800687047000028
:1003D0000400002002480168491C016070470000C9
:1003E0000400002010B50648016810221143016086
:1003F000002000F007F800F017F8002010BD000002
:100400000020024010B5044600F0D8F87D21C90054
:10041000FFF76EFE00F016FB00222146501E00F092
:100420001FF8002010BD000008B50C4881690122AA
:100430001143816180691040002200901146501FD5
:1004400000F00EF800221146901E00F009F800227C
:100450001146501E00F004F808BD000000100240D4
:1004600010B500F00DFB10BDF8B505464E480E4620
:100470000068C007C00FB0420AD24B480168490863
:100480004900314301600068C007C00FB04270D11D
:100490002878464C800705D56068F0218843A96814
:1004A000084360602878C00753D06868012817D0D7
:1004B000022818D0032819D021688907002958DAA2
:1004C00061688908890001436160FFF77DFF696801
:1004D0000746012913D002291DD0032927D034E073
:1004E00021688903EAE721688901E7E7616BC903AD
:1004F000E4E7FFF769FFC11B2D48814223D86068FC
:100500000007800F0128F4D123E0FFF75DFFC11B36
:100510002748814217D860680007800F0228F4D16D
:1005200017E0FFF751FFC11B214881420BD86068DB
:100530000007800F0328F4D10BE0FFF745FFC11B34
:100540001B48814201D90320F8BD60680007800F75
:10055000F3D115480168C907C90FB1420BD9016829
:1005600049084900314301600068C007C00FB0422C
:1005700001D00120F8BD2878400706D56068072122
:1005800009028843E9680843606000F01DF861686B
:10059000084A0906090F515CC84007490860002055
:1005A000FFF730FF0020F8BD00200240001002409D
:1005B00088130000200C0008080000200148006893
:1005C000704700000800002030B516A30FCB89B09B
:1005D0006C460FC417A30FCB0FC41A494A680C20EE
:1005E000144604401848042C05D0184B082C04D09D
:1005F0000C2C00D1184609B030BD9402240F6D4672
:100600002C5DC96A04AD0907090FD203695C920F1A
:10061000022A02D0032A00D11846FFF769FD604381
:10062000E9E7000002030405060708090A0B0C0DA0
:100630000E0F10100102030405060708090A0B0C2F
:100640000D0E0F100010024000127A00006CDC0248
:10065000FEB504460078F04EF04DC00748D06868FB
:100660000007800F01281FD068680007800F02284C
:1006700004D16868C003800F022815D06168012981
:1006800019D001208004002901D0052917D029683C
:10069000B1432960296881432960606800281BD024
:1006A000FFF792FE074613E02868800320D56068B4
:1006B000002876D01CE0286830432860EDE72968E0
:1006C00001432960F7E7FFF77FFEC01B642869D864
:1006D00028688003F7D50BE0FFF776FE074604E0B5
:1006E000FFF772FEC01B6428F1D828688003F7D496
:1006F000207880073ED568680007800F14D06868AE
:100700000007800F022804D16868C003800F012809
:100710000AD0E068002828681DD00121084328601D
:10072000FFF752FE07460BE0286880070BD5E0680C
:10073000012836D107E0FFF747FEC01B0228C6D8C4
:1007400028688007F7D52868F82188432169C900FF
:10075000084328600EE0400840002860FFF734FEA0
:10076000074604E0FFF730FEC01B0228AFD8286818
:100770008007F7D42078000724D5E0690028686A4C
:1007800011D0012108436862FFF71EFE074604E00E
:10079000FFF71AFEC01B022899D8686A8007F7D5B0
:1007A00010E036E1D1E0400840006862FFF70CFE3F
:1007B000074604E0FFF708FEC01B022887D8686AD6
:1007C0008007F7D4207804274007002861DA00204A
:1007D0000190E869C00008D4E969B8060143E961FD
:1007E000E96901400120009101908D480168C90527
:1007F00011D40168821511430160FFF7E5FD0090F7
:1008000005E0FFF7E1FD0099401A642897D8844875
:100810000068C005F5D5A06801280AD0002801D0DD
:10082000052811D0286A400840002862286AB84389
:1008300002E0286A012108432862A068002812D03B
:10084000FFF7C2FD00900AE0286A38432862F0E70B
:10085000FFF7BAFD0099411A7248814275D8286A9B
:100860008007F5D50DE0FFF7AFFD009006E0FFF73C
:10087000ABFD0099411A6B48814266D8286A80070F
:10088000F5D40198002804D0E969012000078143CC
:10089000E9612078C00635D5606901280CD0401D7B
:1008A000686B24D038436863686B40084000686315
:1008B000FFF78AFD074622E0686B38436863686B80
:1008C000012108436863FFF77FFD074604E0FFF757
:1008D0007BFDC01B022838D8686B8007F7D5686B92
:1008E000F8218843A169C900084368630AE0B84356
:1008F0006863F4E7FFF768FDC01B022825D8686B22
:100900008007F7D42078800637D568680007800F05
:10091000032813D068680007800F022804D1686894
:10092000C003800F032809D0206A0028686B16D006
:1009300030436863FFF748FD06460CE0686BC00370
:100940001BD5206A012864D117E05BE0FFF73CFD6E
:10095000801B022856D8686BC003F7D50DE0B04362
:100960006863FFF731FD064604E0FFF72DFD801BAD
:10097000022847D8686BC003F7D4606A002846D0C5
:1009800069680907890F022943D001263606022823
:10099000286805D0B0432860FFF716FD044633E011
:1009A000B0432860FFF710FD074604E0FFF70CFD99
:1009B000C01B022826D828688001F7D4E86A216B7A
:1009C000000900010843E862A16AE06A0843696817
:1009D0007B22D20391430843686028683043286033
:1009E000FFF7F2FC044604E0FFF7EEFC001B0228D0
:1009F00008D828688001F7D509E0FFF7E5FC001B5F
:100A0000022801D90320FEBD28688001F5D400200A
:100A1000FEBD0120FEBD00000000010000100240EC
:100A2000007000408813000004220449042808696B
:100A300002D09043086170471043FBE700E000E0FC
:100A400070470000094910B5401E884201D90120B5
:100A500010BD074C60610321081F00F011F8002051
:100A6000A06107202061002010BD0000FFFFFF00F3
:100A700000E000E010B5FFF7E3FF10BDFEE77047B0
:100A80008307FF22DB0E9A408907090E9940002850
:100A90000BDA0007000F0838830808489B00181875
:100AA000C36993430B43C3617047830804489B00A9
:100AB0001B181868904308431860704700ED00E069
:100AC00000E400E07047704710B5FFF783FCFFF7C4
:100AD000D1FF10BD30B591B001200090019000040D
:100AE0000A900001022500240B9009950C94684699
:100AF000FFF7AEFD002800D0FEE707200D900F9411
:100B000001210E9510940DA8FFF7AEFC002800D02F
:100B1000FEE7FFF753FD7D21C900FFF7E9FAFFF774
:100B200091FF0420FFF780FF00221146501EFFF7BF
:100B300097FC11B030BD000012480168012211433A
:100B400001604168104A1140416001680F4A11403C
:100B500001600168012292049143016041683F22D3
:100B6000120491434160C16A09090901C162016B24
:100B7000074A11400163416B490849004163002164
:100B800081607047001002400CB8FF08FFFFF6FEBE
:100B90002CFEFCFF02E008C8121F08C1002AFAD18F
:100BA00070477047002001E001C1121F002AFBD1ED
:100BB0007047000008B5FFF715FCFFF78BFF1448DE
:100BC0004269012189050A43426142690A40009253
:100BD000426949110A4342614069084000900E4849
:100BE0000C4901603021416000218160C1600161D8
:100BF00041618161C1610162FFF7A2FA002800D062
:100C0000FEE70548FFF706FB04490860FEE7000021
:100C1000001002401C0001400C00002000000020D9
:100C2000000000000000000001020304060708099C
:100C3000500C0008000000200C000000940B00087D
:100C40005C0C00080C0000202C040000A40B000821
:0C0C5000000000000000000000127A000C
:04000005080000C12E
:00000001FF
