:020000040800F2
:1000000098040020D5000008511300087112000860
:1000100000000000000000000000000000000000E0
:10002000000000000000000000000000E1140008D3
:10003000000000000000000099130008E31400080D
:10004000E7000008E7000008E7000008E7000008F4
:10005000E7000008E7000008E7000008E7000008E4
:10006000E700000855020008E7000008E700000864
:10007000E7000008E7000008E7000008E7000008C4
:10008000E7000008E7000008E7000008E7000008B4
:10009000E7000008E7000008E7000008E7000008A4
:1000A000E7000008E7000008E7000008E700000894
:1000B000E7000008E7000008E7000008E700000884
:1000C0000348854600F02AF800480047D515000887
:1000D000980400200448804704480047FEE7FEE7F4
:1000E000FEE7FEE7FEE7FEE759150008C10000083D
:1000F00030B50B46014600202022012409E00D46C0
:10010000D5409D4205D31D469540491B2546954047
:1001100040191546521E002DF1DC30BD064C01255C
:10012000064E05E0E36807CC2B430C3C984710349F
:10013000B442F7D3FFF7C8FF681600088816000816
:1001400010B50146406A426C50231A420AD1416CF4
:1001500001225202114341640168CA681205920FDC
:1001600005D020E0C06B026B0846904710BD026AC4
:10017000002A18D10A68120715D58A685307012288
:10018000002B09DB4B680C24A3434B60416C13022A
:1001900099431143416406E0416C202319434164B3
:1001A000816C1143816400F04DF910BD10B5406AB7
:1001B000416C402211434164816C042211438164EB
:1001C00000F042F910BD10B5406A00F03CF910BDD6
:1001D000F8B5044600200090206881688907890FDF
:1001E000012905D10168C9072CD1C168090429D4A6
:1001F0008168154A102611400125002915D1816812
:1002000029438160124811490068FFF771FF00E03F
:10021000401E00900028FBD100F0C6FC07460CE011
:1002200000F0C2FCC01B022807D9606C3043606438
:10023000A06C2843A0640120F8BD20680068C0437A
:10024000C007EDD10020F8BD1700008040420F002C
:100250000C00002010B5024800F03CFA10BD000070
:100260005C00002010B5046863604368102B0368CD
:1002700003D099600068C26010BD9A600068C160D8
:1002800010BDFEE7F8B5054604464035287800263F
:10029000012808D001202870206881688907890F0B
:1002A000012908D101E00220F8BD0168C9072AD15F
:1002B000C168090427D4616CFF22013291430222F4
:1002C00011436164816892071143816000F06CFC06
:1002D00007460EE000F068FCC01B022809D9606CDC
:1002E0000221884310210843606400202870012007
:1002F000F8BD206880680028ECDB606C8008800016
:10030000401C606404E0606C2021084360640126A6
:10031000002028703046F8BDF8B50025044640346A
:1003200000952278012A3BD00122227003689E6842
:10033000760776D43F4F4E68BE4254D09E6A0F78FF
:10034000BA4016439E620123826B1B079A421FD05C
:10035000012A1DD0022A1BD0032A19D0042A17D043
:10036000052A15D0062A13D0072A11D002688B68F7
:1003700056697607760FB3420AD05369DB08DB0073
:100380005361006842690B7A5B075B0F1A43426155
:100390000868102806D0112804D0122802D045E0A1
:1003A0000220F8BD244A9368102809D011280AD0E9
:1003B00001200006034393600868102806D035E04A
:1003C0000120C005F6E701208005F3E71C481B4922
:1003D0000068FFF78DFE0A21484300E0401E0090B0
:1003E0000028FBD122E0986A0E78B24090439862D0
:1003F0000868102803D0112801D0122816D10E4900
:100400008A68102807D0112808D0012000068243EE
:100410008A600BE005E00120C005F8E701208005B7
:10042000F5E7416C20221143416401250020207032
:100430002846F8BD011000000027014040420F008F
:100440000C0000207047704770470000F8B5002589
:100450000446002803D0606C002802D008E0012088
:10046000F8BD0020A06440210855204600F0A8F8FF
:10047000606C1022104270D12068816849076CD4EA
:10048000616C1301994302231943616481688907F0
:10049000890F012905D10168C9070FD1C168090475
:1004A0000CD4C1681826B143A6683143C1602068E6
:1004B0000169666889008908314301612068C16863
:1004C0003D4E3140C160A069E1698003C903084322
:1004D000216A4E033043666B012E02D0012636039B
:1004E00000E000263043E66830432669022E08D03B
:1004F00000263043266B76003043666A012E02D018
:100500000BE00426F5E7002928D0616C2026314352
:100510006164A16C01263143A164A16A0E46FF3ECD
:10052000C23E02D0E66A314308432168CE680643E2
:10053000CE600126A16B3607B14213D0012911D03C
:1005400002290FD003290DD004290BD0052909D089
:10055000062907D0072905D010E028E00121090469
:100560000843DAE721684E69F608F6004E61216813
:100570004E69278F7F077F0F3E434E612168C96810
:100580000E4E3140814207D10020A064606C80088B
:100590008000401C606408E0606C98431043606415
:1005A000A06C01210843A06401252846F8BD606CB9
:1005B00010436064F8E700001902FEFFE7FF3F8385
:1005C00070B506460068174986B0884228D116489B
:1005D000826941150A4382618069002508400590BF
:1005E0000120009003200190092069460295C00671
:1005F00000F028FA0D480E4C21C425608015656076
:10060000A0608000E0602020656120610848083C0F
:1006100000F0A2F9002801D0FFF733FEF463666210
:1006200006B070BD002401400010024008000240E6
:100630005C000020F7B5044600680025806840078C
:100640003DD426464036307801280AD0012737703D
:10065000E069012807D02046FFF7BAFD050002D067
:100660002EE00220FEBD606C16490840FF210131DA
:10067000084360640020A0643070E16B1248886217
:10068000E16B1248C862E16B1148086321681C20C5
:100690000860206841681022114341602068C168E9
:1006A0003943C1602168E06B4031029B019A00F040
:1006B00096F92068816804221143816000E00225D8
:1006C0002846FEBDFEF1FFFF41010008C7010008FA
:1006D000AD010008F8B504469E4801689D4A9D4E4C
:1006E0009C4F0832206813041C363037904201D1E9
:1006F00008221EE0B04201D180221AE0B84202D1A5
:100700000122D20215E0934A4432904202D10122E2
:10071000D2030EE08F4A5832904201D11A4608E0C7
:100720008C4A6C32904202D10122D20501E00122B2
:10073000D20625461140203500293CD00168C94326
:10074000090738D401680822914301608149206873
:100750000831884201D108201EE0B04201D180203A
:100760001AE0B84202D10120C00215E079494431B3
:10077000884202D10120C0030EE0764958318842F8
:1007800001D1184608E073496C31884202D101203A
:10079000C00501E00120C0066E494860A06B012140
:1007A0000843A0630420687000202870216B002992
:1007B00001D02046884767480168664A20680832A9
:1007C0001315904201D104221EE0B04201D1402213
:1007D0001AE0B84201D11A4616E05E4A443290420D
:1007E00002D1012292030FE05A4A5832904202D1BC
:1007F0000122920408E0574A6C32904202D1012251
:10080000920501E001229206114239D00168C943E4
:10081000490735D40168890603D4026804218A4354
:1008200002604C4920680831884201D104201EE052
:10083000B04201D140201AE0B84201D1184616E07A
:1008400044494431884202D1012080030FE04149EC
:100850005831884202D10120800408E03D496C31C2
:10086000884202D10120800501E00120800639493B
:10087000486011206870E16A002901D0204688474D
:1008800034480168334A206808325315904201D138
:1008900002221EE0B04201D120221AE0B84201D16A
:1008A0001A4616E02B4A4432904202D101225203EA
:1008B0000FE0284A5832904202D10122520408E047
:1008C000244A6C32904202D10122520501E00122F9
:1008D000520611423DD00168C943890739D40168E5
:1008E000890603D4016802229143016019492068F6
:1008F0000831884201D102201EE0B04201D12020FF
:100900001AE0B84201D1184616E012494431884233
:1009100002D1012040030FE00E495831884202D134
:100920000120400408E00B496C31884202D10120CB
:10093000400501E00120400606494860A06BA06325
:100940000120687000202870A16A002901D020468B
:100950008847F8BD00000240F0B5002806D00146E7
:1009600020314A780024002A02D002E00120F0BDA4
:100970000C7002224A7005682B680B4A8668134087
:10098000426807693243C6683E4332434669324390
:1009900086693243C66932431A432A608463012060
:1009A00048700020F0BD00000FC0FFFF70B5044686
:1009B00020300578012D10D00125057002264670E3
:1009C00020680668AE4306602046FFF74BFC2068AF
:1009D000016829430160002070BD022070BDF8B598
:1009E000044620300578012D1ED001250570022611
:1009F000467020680768AF4307602046FFF732FC67
:100A000020680168314301602068016804221143B5
:100A100001602068016808221143016020680168B4
:100A2000294301600020F8BD0220F8BD31B500F077
:100A3000BBF8044600F0B8F80099001B8842F9D3CF
:100A400038BD0000F8B5002393E0224601249C4005
:100A5000A44622407ED04C68022C01D0122C0CD12E
:100A6000DC08A40027183C6A5D07ED0E0F26AE4097
:100A7000B4430E69AE4026433E6205685E0003241F
:100A8000B4400F79A543BF07BF0FB7402F4307609E
:100A90004D68012D05D0022D03D0112D01D0122D4E
:100AA0000ED18568CF68A543B7402F43876047685C
:100AB0006546AF430D79ED06ED0F9D403D43456022
:100AC000C568A5438C68B4402C43C4604C68E400FE
:100AD0004ED52B4CA56901263543A561A4699D0817
:100AE00034400094274CAD002F19BC689D072E0F91
:100AF0000F25B540AC430925ED06A84201D10025DC
:100B000014E0214DA84201D101250FE01F4DA8425C
:100B100001D102250AE01E4DA84201D1032505E0BE
:100B20001C4DA84201D1042500E00525B540254310
:100B3000BD60194C25684E689543F60300D51543F2
:100B4000256065684E689543B60300D5154365601A
:100B5000A56800E00CE04E689543F60200D5154309
:100B6000A560E5684E689543B60200D51543E5607B
:100B70005B1C0A681446DA4000D066E7F8BD000046
:100B80000010024000000140000400480008004836
:100B9000000C00480010004800040140002A01D069
:100BA00081617047816270470148006870470000AA
:100BB0000000002002480168491C016070470000E5
:100BC0000000002010B506480168102211430160A2
:100BD000002000F007F800F017F8002010BD00001A
:100BE0000020024010B5044600F0E2F87D21C90063
:100BF000FFF77EFA00F020FB00222146501E00F095
:100C000029F8002010BD000008B50C4881690122B8
:100C10001143816180691040002200901146501FED
:100C200000F018F800221146901E00F013F8002280
:100C30001146501E00F00EF808BD000000100240E2
:100C4000C106C90E012088400149086070470000B4
:100C500000E100E010B500F07DFB10BDF8B50546E1
:100C60004E480E460068C007C00FB0420AD24B483B
:100C7000016849084900314301600068C007C00F9E
:100C8000B04270D12878464C800705D56068F021C5
:100C90008843A968084360602878C00753D0686813
:100CA000012817D0022818D0032819D021688907F5
:100CB000002958DA61688908890001436160FFF7FB
:100CC00073FF69680746012913D002291DD0032943
:100CD00027D034E021688903EAE721688901E7E742
:100CE000616BC903E4E7FFF75FFFC11B2D48814239
:100CF00023D860680007800F0128F4D123E0FFF7B4
:100D000053FFC11B2748814217D860680007800F36
:100D10000228F4D117E0FFF747FFC11B21488142A9
:100D20000BD860680007800F0328F4D10BE0FFF7B1
:100D30003BFFC11B1B48814201D90320F8BD6068FD
:100D40000007800FF3D115480168C907C90FB142E8
:100D50000BD9016849084900314301600068C007A8
:100D6000C00FB04201D00120F8BD2878400706D559
:100D70006068072109028843E9680843606000F061
:100D80001DF86168084A0906090F515CC840074907
:100D900008600020FFF726FF0020F8BD0020024079
:100DA0000010024088130000561600080C000020B6
:100DB00001480068704700000C00002030B516A301
:100DC0000FCB89B06C460FC417A30FCB0FC41A49C1
:100DD0004A680C20144604401848042C05D0184BCF
:100DE000082C04D00C2C00D1184609B030BD940258
:100DF000240F6D462C5DC96A04AD0907090FD203A3
:100E0000695C920F022A02D0032A00D11846FFF72C
:100E10006FF96043E9E700000203040506070809CB
:100E20000A0B0C0D0E0F1010010203040506070833
:100E3000090A0B0C0D0E0F100010024000127A0070
:100E4000006CDC02FEB504460078F04EF04DC007A1
:100E500048D068680007800F01281FD06868000725
:100E6000800F022804D16868C003800F022815D0C3
:100E70006168012919D001208004002901D00529C9
:100E800017D02968B14329602968814329606068C7
:100E900000281BD0FFF788FE074613E02868800370
:100EA00020D56068002876D01CE028683043286090
:100EB000EDE7296801432960F7E7FFF775FEC01BDE
:100EC000642869D828688003F7D50BE0FFF76CFE2B
:100ED000074604E0FFF768FEC01B6428F1D82868C5
:100EE0008003F7D4207880073ED568680007800F1C
:100EF00014D068680007800F022804D16868C00316
:100F0000800F01280AD0E068002828681DD0012140
:100F100008432860FFF748FE07460BE02868800773
:100F20000BD5E068012836D107E0FFF73DFEC01B76
:100F30000228C6D828688007F7D52868F821884392
:100F40002169C900084328600EE04008400028607D
:100F5000FFF72AFE074604E0FFF726FEC01B022823
:100F6000AFD828688007F7D42078000724D5E06937
:100F70000028686A11D0012108436862FFF714FE57
:100F8000074604E0FFF710FEC01B022899D8686AE4
:100F90008007F7D510E036E1D1E0400840006862F4
:100FA000FFF702FE074604E0FFF7FEFDC01B022824
:100FB00087D8686A8007F7D420780427400700287C
:100FC00061DA00200190E869C00008D4E969B80638
:100FD0000143E961E96901400120009101908D48D8
:100FE0000168C90511D40168821511430160FFF73A
:100FF000DBFD009005E0FFF7D7FD0099401A64285B
:1010000097D884480068C005F5D5A06801280AD0A3
:10101000002801D0052811D0286A40084000286225
:10102000286AB84302E0286A012108432862A068C0
:10103000002812D0FFF7B8FD00900AE0286A384374
:101040002862F0E7FFF7B0FD0099411A724881422B
:1010500075D8286A8007F5D50DE0FFF7A5FD00904B
:1010600006E0FFF7A1FD0099411A6B48814266D85E
:10107000286A8007F5D40198002804D0E969012086
:1010800000078143E9612078C00635D560690128F1
:101090000CD0401D686B24D038436863686B4008EF
:1010A00040006863FFF780FD074622E0686B384325
:1010B0006863686B012108436863FFF775FD0746A5
:1010C00004E0FFF771FDC01B022838D8686B800769
:1010D000F7D5686BF8218843A169C90008436863A4
:1010E0000AE0B8436863F4E7FFF75EFDC01B02281F
:1010F00025D8686B8007F7D42078800637D56868D4
:101100000007800F032813D068680007800F0228AB
:1011100004D16868C003800F032809D0206A002822
:10112000686B16D030436863FFF73EFD06460CE05F
:10113000686BC0031BD5206A012864D117E05BE00F
:10114000FFF732FD801B022856D8686BC003F7D525
:101150000DE0B0436863FFF727FD064604E0FFF7A4
:1011600023FD801B022847D8686BC003F7D4606A50
:10117000002846D069680907890F022943D0012653
:1011800036060228286805D0B0432860FFF70CFD1A
:10119000044633E0B0432860FFF706FD074604E04D
:1011A000FFF702FDC01B022826D828688001F7D46B
:1011B000E86A216B000900010843E862A16AE06A5D
:1011C000084369687B22D20391430843686028681A
:1011D00030432860FFF7E8FC044604E0FFF7E4FC36
:1011E000001B022808D828688001F7D509E0FFF71E
:1011F000DBFC001B022801D90320FEBD286880010A
:10120000F5D40020FEBD0120FEBD0000000001005D
:1012100000100240007000408813000004220449BE
:101220000428086902D09043086170471043FBE727
:1012300000E000E070470000094910B5401E8842F8
:1012400001D9012010BD074C60610321081F00F087
:1012500081F80020A06107202061002010BD00005F
:10126000FFFFFF0000E000E010B5FFF7E3FF10BD57
:10127000FEE700003EB512491248002412C0046087
:101280000346012104220833446016C34461C4614B
:10129000816181624462C1620838FFF7D7F8002893
:1012A00000D0FEE7012000030190000402900094AA
:1012B00069460448FFF730F8002800D0FEE73EBD3D
:1012C0000024014010000020F0B51D4887B042699D
:1012D000012149050A43426142690A400592426977
:1012E00049000A43426142690A4005924269491134
:1012F0000A4342614069134C0840134E0590002296
:1013000021463046FFF74AFC104F002204213846A0
:10131000FFF744FC009400240125019502946946DE
:1013200030460394FFF78EFB042000900294694638
:10133000019503943846FFF785FB07B0F0BD000028
:1013400000100240FF0F0000001000480014004889
:10135000704700008307FF22DB0E9A408907090EC1
:10136000994000280BDA0007000F08388308084866
:101370009B001818C36993430B43C36170478308EC
:1013800004489B001B181868904308431860704776
:1013900000ED00E000E400E070470000FEB5044608
:1013A0000A21FEF7A5FE0E4664212046FEF7A0FEA8
:1013B00008460A21FEF79CFE7D210290C9002046C6
:1013C000FEF796FE044608466421FEF791FEC0B281
:1013D0000190E0B20090002204213E48FFF7DEFBBE
:1013E0003D4C60693D4DA95D0843606107210122C4
:1013F00049022046FFF7D2FBFF210022013120469F
:10140000FFF7CCFB0320FFF711FB6069FF263602D4
:101410003040606160690F273F02384360610120FE
:10142000FFF704FB61690298285C014361610D21AB
:10143000012209022046FFF7B1FB012100224902E7
:101440002046FFF7ABFB0320FFF7F0FA606930405E
:1014500060616069384360610120FFF7E7FA616904
:101460000198285C014361610B2101220902204699
:10147000FFF794FB0121002289022046FFF78EFB33
:101480000320FFF7D3FA6069304060616069384338
:1014900060610120FFF7CAFA61690098285C014386
:1014A00061610721012209022046FFF777FB012134
:1014B0000022C9022046FFF771FB0320FFF7B6FAAE
:1014C0006069304060616069384360610120FFF706
:1014D000ADFAFEBD00140048001000484C1600088C
:1014E000704710B5FFF766FBFFF7BEFE10BD30B5C5
:1014F00091B01120009001200190059010200690DD
:1015000000030A900001022500240B9009950C9419
:101510006846FFF797FC002800D0FEE707200D90F3
:101520000F9401210E9510940DA8FFF797FB00284A
:1015300000D0FEE7FFF73CFC7D21C900FEF7D8FD97
:10154000FFF77AFE0420FFF769FE00221146501EC5
:10155000FFF780FB11B030BD124801680122114332
:1015600001604168104A1140416001680F4A114012
:1015700001600168012292049143016041683F22A9
:10158000120491434160C16A09090901C162016BFA
:10159000074A11400163416B49084900416300213A
:1015A00081607047001002400CB8FF08FFFFF6FE94
:1015B0002CFEFCFF02E008C8121F08C1002AFAD165
:1015C00070477047002001E001C1121F002AFBD1C3
:1015D0007047000008B5FFF7F5FAFFF788FFFFF73F
:1015E00073FE154841690122114341614069104071
:1015F0000022009011460920FFF72CFB0920FFF77D
:101600001FFBFFF737FE0D48FEF73CFE0C4C0D4D5F
:1016100020702A46211D0948FFF70CF820700A485F
:10162000016806482B464C306268FFF7BFF920700E
:101630006068FFF7B3FEFBE70010024010000020D7
:1016400004000020FFFF0000402401403F065B4FE4
:10165000666D7D077F6F0000000000000000010242
:10166000030406070809000088160008000000208F
:1016700010000000B41500089816000810000020A3
:1016800088040000C41500080000000000000000ED
:081690000000000000127A00C6
:04000005080000C12E
:00000001FF
