:020000040800F2
:1000000050040020D50000087D0E00083F0D0008B8
:1000100000000000000000000000000000000000E0
:100020000000000000000000000000000D100008AB
:100030000000000000000000C50E00080F100008BE
:10004000E7000008E7000008E7000008E7000008F4
:10005000E7000008E7000008E7000008E7000008E4
:10006000E7000008E7000008E7000008E7000008D4
:10007000E7000008E7000008E7000008E7000008C4
:10008000E7000008E7000008E7000008E7000008B4
:10009000E7000008E7000008E7000008E7000008A4
:1000A000E7000008E7000008E7000008E700000894
:1000B000E7000008E7000008E7000008E700000884
:1000C0000348854600F02AF8004800472913000835
:1000D000500400200448804704480047FEE7FEE73C
:1000E000FEE7FEE7FEE7FEE77D100008C10000081E
:1000F00030B50B46014600202022012409E00D46C0
:10010000D5409D4205D31D469540491B2546954047
:1001100040191546521E002DF1DC30BD064C01255C
:10012000064E05E0E36807CC2B430C3C984710349F
:10013000B442F7D3FFF7C8FFA8130008C81300089C
:1001400031B500F0BBF8044600F0B8F80099001B88
:100150008842F9D338BD0000F8B5002393E0224669
:1001600001249C40A44622407ED04C68022C01D041
:10017000122C0CD1DC08A40027183C6A5D07ED0E98
:100180000F26AE40B4430E69AE4026433E6205687A
:100190005E000324B4400F79A543BF07BF0FB740EB
:1001A0002F4307604D68012D05D0022D03D0112D7E
:1001B00001D0122D0ED18568CF68A543B7402F43DB
:1001C000876047686546AF430D79ED06ED0F9D40AA
:1001D0003D434560C568A5438C68B4402C43C4606A
:1001E0004C68E4004ED52B4CA56901263543A5612A
:1001F000A4699D0834400094274CAD002F19BC68B9
:100200009D072E0F0F25B540AC430925ED06A842EA
:1002100001D1002514E0214DA84201D101250FE0B4
:100220001F4DA84201D102250AE01E4DA84201D16E
:10023000032505E01C4DA84201D1042500E0052559
:10024000B5402543BD60194C25684E689543F603BB
:1002500000D51543256065684E689543B60300D503
:1002600015436560A56800E00CE04E689543F60212
:1002700000D51543A560E5684E689543B60200D5E4
:100280001543E5605B1C0A681446DA4000D066E757
:10029000F8BD0000001002400000014000040048CA
:1002A00000080048000C004800100048000401400D
:1002B000002A01D08161704781627047014800685F
:1002C000704700000C00002002480168491C0160D2
:1002D000704700000C00002010B50648016810228D
:1002E00011430160002000F007F800F017F800202B
:1002F00010BD00000020024010B5044600F0D8F800
:100300007D21C900FFF7F4FE00F016FB0022214614
:10031000501E00F01FF8002010BD000008B50C486A
:10032000816901221143816180691040002200909F
:100330001146501F00F00EF800221146901E00F0EA
:1003400009F800221146501E00F004F808BD000014
:100350000010024010B500F093FD10BDF8B5054641
:100360004E480E460068C007C00FB0420AD24B4844
:10037000016849084900314301600068C007C00FA7
:10038000B04270D12878464C800705D56068F021CE
:100390008843A968084360602878C00753D068681C
:1003A000012817D0022818D0032819D021688907FE
:1003B000002958DA61688908890001436160FFF704
:1003C0007DFF69680746012913D002291DD0032942
:1003D00027D034E021688903EAE721688901E7E74B
:1003E000616BC903E4E7FFF769FFC11B2D48814238
:1003F00023D860680007800F0128F4D123E0FFF7BD
:100400005DFFC11B2748814217D860680007800F35
:100410000228F4D117E0FFF751FFC11B21488142A8
:100420000BD860680007800F0328F4D10BE0FFF7BA
:1004300045FFC11B1B48814201D90320F8BD6068FC
:100440000007800FF3D115480168C907C90FB142F1
:100450000BD9016849084900314301600068C007B1
:10046000C00FB04201D00120F8BD2878400706D562
:100470006068072109028843E9680843606000F06A
:100480001DF86168084A0906090F515CC840074910
:1004900008600020FFF730FF0020F8BD0020024078
:1004A00000100240881300008C1300080000002098
:1004B00001480068704700000000002030B516A316
:1004C0000FCB89B06C460FC417A30FCB0FC41A49CA
:1004D0004A680C20144604401848042C05D0184BD8
:1004E000082C04D00C2C00D1184609B030BD940261
:1004F000240F6D462C5DC96A04AD0907090FD203AC
:10050000695C920F022A02D0032A00D11846FFF735
:10051000EFFD6043E9E70000020304050607080950
:100520000A0B0C0D0E0F101001020304050607083C
:10053000090A0B0C0D0E0F100010024000127A0079
:10054000006CDC02FEB504460078F04EF04DC007AA
:1005500048D068680007800F01281FD0686800072E
:10056000800F022804D16868C003800F022815D0CC
:100570006168012919D001208004002901D00529D2
:1005800017D02968B14329602968814329606068D0
:1005900000281BD0FFF792FE074613E0286880036F
:1005A00020D56068002876D01CE028683043286099
:1005B000EDE7296801432960F7E7FFF77FFEC01BDD
:1005C000642869D828688003F7D50BE0FFF776FE2A
:1005D000074604E0FFF772FEC01B6428F1D82868C4
:1005E0008003F7D4207880073ED568680007800F25
:1005F00014D068680007800F022804D16868C0031F
:10060000800F01280AD0E068002828681DD0012149
:1006100008432860FFF752FE07460BE02868800772
:100620000BD5E068012836D107E0FFF747FEC01B75
:100630000228C6D828688007F7D52868F82188439B
:100640002169C900084328600EE040084000286086
:10065000FFF734FE074604E0FFF730FEC01B022818
:10066000AFD828688007F7D42078000724D5E06940
:100670000028686A11D0012108436862FFF71EFE56
:10068000074604E0FFF71AFEC01B022899D8686AE3
:100690008007F7D510E036E1D1E0400840006862FD
:1006A000FFF70CFE074604E0FFF708FEC01B022818
:1006B00087D8686A8007F7D4207804274007002885
:1006C00061DA00200190E869C00008D4E969B80641
:1006D0000143E961E96901400120009101908D48E1
:1006E0000168C90511D40168821511430160FFF743
:1006F000E5FD009005E0FFF7E1FD0099401A642850
:1007000097D884480068C005F5D5A06801280AD0AC
:10071000002801D0052811D0286A4008400028622E
:10072000286AB84302E0286A012108432862A068C9
:10073000002812D0FFF7C2FD00900AE0286A384373
:100740002862F0E7FFF7BAFD0099411A724881422A
:1007500075D8286A8007F5D50DE0FFF7AFFD00904A
:1007600006E0FFF7ABFD0099411A6B48814266D85D
:10077000286A8007F5D40198002804D0E96901208F
:1007800000078143E9612078C00635D560690128FA
:100790000CD0401D686B24D038436863686B4008F8
:1007A00040006863FFF78AFD074622E0686B384324
:1007B0006863686B012108436863FFF77FFD0746A4
:1007C00004E0FFF77BFDC01B022838D8686B800768
:1007D000F7D5686BF8218843A169C90008436863AD
:1007E0000AE0B8436863F4E7FFF768FDC01B02281E
:1007F00025D8686B8007F7D42078800637D56868DD
:100800000007800F032813D068680007800F0228B4
:1008100004D16868C003800F032809D0206A00282B
:10082000686B16D030436863FFF748FD06460CE05E
:10083000686BC0031BD5206A012864D117E05BE018
:10084000FFF73CFD801B022856D8686BC003F7D524
:100850000DE0B0436863FFF731FD064604E0FFF7A3
:100860002DFD801B022847D8686BC003F7D4606A4F
:10087000002846D069680907890F022943D001265C
:1008800036060228286805D0B0432860FFF716FD19
:10089000044633E0B0432860FFF710FD074604E04C
:1008A000FFF70CFDC01B022826D828688001F7D46A
:1008B000E86A216B000900010843E862A16AE06A66
:1008C000084369687B22D203914308436860286823
:1008D00030432860FFF7F2FC044604E0FFF7EEFC2B
:1008E000001B022808D828688001F7D509E0FFF727
:1008F000E5FC001B022801D90320FEBD2868800109
:10090000F5D40020FEBD0120FEBD00000000010066
:1009100000100240007000408813000004220449C7
:100920000428086902D09043086170471043FBE730
:1009300000E000E070470000094910B5401E884201
:1009400001D9012010BD074C60610321081F00F090
:1009500097FA0020A06107202061002010BD000050
:10096000FFFFFF0000E000E010B5FFF7E3FF10BD60
:1009700070B502462032137E012B1BD00123137663
:1009800002245476046865687026B543656004687F
:1009900065680E68354365600468A5688026B543C0
:1009A000A5600068846849680C4384605376002021
:1009B000107670BD022070BD70B5040005D02546CC
:1009C0002035687E002802D006E0012070BD00209E
:1009D0002876204600F00AF802206876211D20685B
:1009E00000F07AFB01206876002070BD00B5006839
:1009F0000D4987B0884214D10C488269C1140A435A
:100A00008261806908400590C81000900020022192
:100A1000029003900191049109206946C006FFF7F6
:100A20009BFB07B000BD0000002C014000100240FD
:100A3000F8B5054604462035287E012817D0012741
:100A40002F7602206876226890687726FF23B043CD
:100A50001B02984390600868502837D00EDC20288D
:100A600057D006DC00284ED0102840D14EE002209E
:100A7000F8BD302850D0402839D13CE060282DD036
:100A8000702817D001221203801A0ED090422ED166
:100A9000CB684A688968206800F06FFB206881682D
:100AA000012292031143816021E020688168C90816
:100AB000C900F8E7CB684A688968206800F05DFBE8
:100AC00021688868B0433043886010E0CA6849688C
:100AD000206800F0A2FB5021206806E0CA6849683F
:100AE000206800F0D7FB6021206800F051FB6F7692
:100AF00000202876F8BDCA684968206800F08DFBA0
:100B000040212068F1E700212068EEE710212068ED
:100B1000EBE720212068E8E730212068E5E7F8B519
:100B2000064604462036307E0D4601283DD0012081
:100B3000307602207076002A39D0042A46D0082A5E
:100B400057D02B68297B20689E468C466B68016ACB
:100B50000122120391430162C169026A03273F0225
:100B6000B9431B020B430F2109038B43614609075D
:100B7000090C194305235B039A4373460A273B403C
:100B80001B031343C16103622068C16903229202FF
:100B90009143C1612068C169AA6812021143C16111
:100BA0000120707600203076F8BD0220F8BDEB6899
:100BB00006CD083D206800F041FB206882690C21C9
:100BC0008A43826120688169AA680FE0EB6806CDDC
:100BD000083D206800F071FB2068826903218902CA
:100BE0008A43826120688169AA6812021143816187
:100BF000D6E788CD287921688446086AFF22013229
:100C000090430862C8690A6A800880003843F02768
:100C1000B84367463F073F0E074305204002824323
:100C20000A20034018021043CF6108622068C1699E
:100C30000C229143C1612068C1692A68AEE770B592
:100C4000040005D025462035687E002802D006E045
:100C5000012070BD00202876204600F00AF802200E
:100C60006876211D206800F037FA012068760020A0
:100C700070BD704710B502680446002906D00429EB
:100C800007D0082914D00C2907D114E0D06802231A
:100C900001E0D06804231843D0600122206800F0EE
:100CA00061FA20680168012211430160002010BD33
:100CB000D0680823EFE7D0681023ECE710B50346AF
:100CC00020331C7E0022012C0AD001241C7600292E
:100CD00008D0042909D008290AD00C290DD10AE02E
:100CE000022010BD0068426B07E00068826B04E0E0
:100CF0000068C26B01E00068026C002018761046A4
:100D000010BD70B5054604462035287E012814D054
:100D100001262E7602206876204600F041FA2068EF
:100D2000C16840229143C1602068C16812029143AA
:100D3000C1606E760020287670BD022070BDFEE78F
:100D4000F0B51C4887B04269012149050A43426158
:100D500042690A400592426949000A434261426978
:100D60000A400592426949110A4342614069124CA6
:100D70000840124F0590002221463846FFF798FAA6
:100D80000F4E002231460F48FFF792FA00940024DC
:100D9000012501950294694638460394FFF7DCF972
:100DA000029469460748009601950394FFF7D4F929
:100DB00007B0F0BD00100240FF0F00000010004817
:100DC000040400000014004810B52A4890B02849D7
:100DD0000160FF210024E031846041600461264904
:100DE0004461C160FFF7E8FD002800D0FEE7012064
:100DF0000003099009A91F48FFF71AFE002800D038
:100E0000FEE71C48FFF71BFF002800D0FEE7042088
:100E1000049050200590069404A908941548FFF703
:100E200070FF002800D0FEE70D940DA911480E9424
:100E3000FFF79EFD002800D0FEE7012001900094FE
:100E400002940022694603940A48FFF768FE0028CE
:100E500000D0FEE702200090019004226946054878
:100E6000FFF75DFE002800D0FEE710B010BD0000C7
:100E7000002C014010000020FFFF00007047000020
:100E80008307FF22DB0E9A408907090E994000284C
:100E90000BDA0007000F0838830808489B00181871
:100EA000C36993430B43C3617047830804489B00A5
:100EB0001B181868904308431860704700ED00E065
:100EC00000E400E070470000FEB504460A21FFF789
:100ED0000FF90E4664212046FFF70AF908460A2159
:100EE000FFF706F97D210290C9002046FFF700F9BF
:100EF000044608466421FFF7FBF8C0B20190E0B257
:100F00000090002204213E48FFF7D2F93D4C606971
:100F10003D4DA95D08436061072101224902204639
:100F2000FFF7C6F9FF21002201312046FFF7C0F983
:100F30000320FFF705F96069FF2636023040606143
:100F400060690F273F02384360610120FFF7F8F81E
:100F500061690298285C014361610D210122090247
:100F60002046FFF7A5F90121002249022046FFF79C
:100F70009FF90320FFF7E4F8606930406061606921
:100F8000384360610120FFF7DBF861690198285C54
:100F9000014361610B21012209022046FFF788F914
:100FA0000121002289022046FFF782F90320FFF782
:100FB000C7F8606930406061606938436061012052
:100FC000FFF7BEF861690098285C01436161072161
:100FD000012209022046FFF76BF901210022C90214
:100FE0002046FFF765F90320FFF7AAF86069304053
:100FF00060616069384360610120FFF7A1F8FEBDC0
:1010000000140048001000489C130008704710B5F9
:10101000FFF75AF9FFF7A8FC10BD30B591B00120D9
:101020000090019000040A900001022500240B901A
:1010300009950C946846FFF785FA002800D0FEE772
:1010400007200D900F9401210E9510940DA8FFF725
:1010500085F9002800D0FEE7FFF72AFA7D21C900B4
:10106000FFF746F8FFF768FC0420FFF757FC002263
:101070001146501EFFF76EF911B030BD12480168DD
:101080000122114301604168104A1140416001682A
:101090000F4A1140016001680122920491430160EE
:1010A00041683F22120491434160C16A0909090164
:1010B000C162016B074A11400163416B4908490055
:1010C0004163002181607047001002400CB8FF08A6
:1010D000FFFFF6FE2CFEFCFFF0B502681B4B01245F
:1010E000A4071B4D984203D0A04201D0A84203D1CF
:1010F0007026B2434E683243164E174F98420DD0B9
:10110000A0420BD0A84209D0144CA04206D0B04255
:1011100004D0B84202D0124CA04204D103242402CD
:10112000A243CC68224302608A68C2620A68826273
:10113000984206D0B04204D0B84202D0084A904249
:1011400001D10969016301214161F0BD002C014019
:1011500000040040004001400044014000200040E5
:101160000048014010B50123046A8B409C4304628F
:10117000036A8A401343036210BD30B58468FF25BB
:101180002D021B021343AC430B432343836030BD4A
:10119000826870239A430A4307210A43826070479A
:1011A00070B50468A26870239A434B681343DB0848
:1011B0000A68DB001A43A2604A6813071B0F0ED1AE
:1011C0001211130000F093F8080B0B0B0B0C1D23EE
:1011D000050B0B698A68C9680068FFF7CEFF70BD10
:1011E0000268136A146A6408640014620468A269DD
:1011F0000969F025AA4309011143A161006803624E
:1012000070BD0A698968006800F007F870BD0A6956
:101210008968006800F03EF870BD30B5036A046A62
:101220006408640004628469F025AC43120122431F
:101230000A24A3430B438261036230BD70B5046A84
:101240006408640004628469056A0F4EB04209D0E4
:101250000126B607B04205D00C4EB04202D00C4E6B
:10126000B04202D1A408A40000E001221443F022FD
:1012700094431A07120E0A2322439D43194029431F
:101280008261016270BD0000002C0140000400403A
:101290000040014030B5036A1024A343036284690F
:1012A000036A0F252D031203AC432243A024A3435A
:1012B000090119438261016230BD70B5046A1025CD
:1012C000AC4304628569046A03263602B543120200
:1012D0002A430F252D031B071B0CAA431343A022EF
:1012E00009019443114021438361016270BD30B410
:1012F0007446641E2578641CAB4200D21D46635DB3
:101300005B00E31830BC184702E008C8121F08C190
:10131000002AFAD170477047002001E001C1121F76
:10132000002AFBD170470000FEF7D6FFFFF775FEDD
:10133000FFF706FDFFF748FD00211148FFF79AFC73
:10134000104C042160600E48FFF794FC01250E4EFE
:10135000AD02606000210A48FFF7B0FC2060012266
:1013600029463046FEF7A4FF2068FFF7ADFD0022B6
:1013700029463046FEF79CFF2068FFF7A5FDE9E708
:1013800010000020040000200014004800000000AD
:101390000000000001020304060708093F065B4F36
:1013A000666D7D077F6F0000C813000800000020F5
:1013B0001000000008130008D813000810000020D7
:1013C000400400001813000800127A00000000001A
:0813D000000000000000000015
:04000005080000C12E
:00000001FF
