:020000040800F2
:1000000028040020D5000008690B0008ED0A00084C
:1000100000000000000000000000000000000000E0
:10002000000000000000000000000000F90C0008C3
:100030000000000000000000B10B0008FB0C0008ED
:10004000E7000008E7000008E7000008E7000008F4
:10005000E7000008E7000008E7000008E7000008E4
:10006000E7000008E7000008E7000008E7000008D4
:10007000E7000008E7000008E7000008E7000008C4
:10008000E7000008E7000008E7000008E7000008B4
:10009000E7000008E7000008E7000008E7000008A4
:1000A000E7000008E7000008E7000008E700000894
:1000B000E7000008E7000008E7000008E700000884
:1000C0000348854600F02AF800480047E90D00087B
:1000D000280400200448804704480047FEE7FEE764
:1000E000FEE7FEE7FEE7FEE76D0D0008C100000831
:1000F00030B50B46014600202022012409E00D46C0
:10010000D5409D4205D31D469540491B2546954047
:1001100040191546521E002DF1DC30BD064C01255C
:10012000064E05E0E36807CC2B430C3C984710349F
:10013000B442F7D3FFF7C8FF700E0008900E000816
:1001400031B500F0BBF8044600F0B8F80099001B88
:100150008842F9D338BD0000F8B5002393E0224669
:1001600001249C40A44622407ED04C68022C01D041
:10017000122C0CD1DC08A40027183C6A5D07ED0E98
:100180000F26AE40B4430E69AE4026433E6205687A
:100190005E000324B4400F79A543BF07BF0FB740EB
:1001A0002F4307604D68012D05D0022D03D0112D7E
:1001B00001D0122D0ED18568CF68A543B7402F43DB
:1001C000876047686546AF430D79ED06ED0F9D40AA
:1001D0003D434560C568A5438C68B4402C43C4606A
:1001E0004C68E4004ED52B4CA56901263543A5612A
:1001F000A4699D0834400094274CAD002F19BC68B9
:100200009D072E0F0F25B540AC430925ED06A842EA
:1002100001D1002514E0214DA84201D101250FE0B4
:100220001F4DA84201D102250AE01E4DA84201D16E
:10023000032505E01C4DA84201D1042500E0052559
:10024000B5402543BD60194C25684E689543F603BB
:1002500000D51543256065684E689543B60300D503
:1002600015436560A56800E00CE04E689543F60212
:1002700000D51543A560E5684E689543B60200D5E4
:100280001543E5605B1C0A681446DA4000D066E757
:10029000F8BD0000001002400000014000040048CA
:1002A00000080048000C004800100048000401400D
:1002B000002A01D08161704781627047014800685F
:1002C000704700000400002070B504000CD02068C6
:1002D000C168C943C90709D1C168C943890705D4A1
:1002E000C068C043400701D4012070BD607C002875
:1002F00003D12074204600F03DF80220607421688C
:100300001A480860206841686268C908C90011433A
:10031000416020688168A268090B0903114381606C
:100320001348E168814203D121680969814218D0EC
:10033000FFF7C4FF7D260546F60007E0FFF7BEFF86
:10034000401BB04202D90320607470BD2068C068B1
:100350000028F3D120680169E268090B0903114301
:10036000016101206074002070BD0000555500003F
:10037000FF0F000070470000F8B50446007C01281C
:1003800008D00126267402206074FFF797FF054607
:1003900000270CE00220F8BDFFF790FF411B7D20F5
:1003A000C000814203D9032060742774F8BD20681F
:1003B000C068C0438007EFD52168034808606674B1
:1003C00027740020F8BD0000AAAA0000F8B5044672
:1003D000007C012812D00126267402206074164980
:1003E000E068884202D121681448086021681448F6
:1003F0000860FFF763FF054600270CE00220F8BD08
:10040000FFF75CFF411B7D20C000814203D9032020
:1004100060742774F8BD2068C168C943C90707D153
:10042000C168C943890703D4C068C0434007E7D502
:10043000667427740020F8BDFF0F0000AAAA000010
:10044000CCCC000002480168491C016070470000E4
:100450000400002010B50648016810221143016015
:10046000002000F007F800F017F8002010BD000091
:100470000020024010B5044600F0D8F87D21C900E4
:10048000FFF736FE00F016FB00222146501E00F05A
:100490001FF8002010BD000008B50C48816901223A
:1004A0001143816180691040002200901146501F65
:1004B00000F00EF800221146901E00F009F800220C
:1004C0001146501E00F004F808BD00000010024064
:1004D00010B500F04BFB10BDF8B505464E480E4672
:1004E0000068C007C00FB0420AD24B4801684908F3
:1004F0004900314301600068C007C00FB04270D1AD
:100500002878464C800705D56068F0218843A968A3
:10051000084360602878C00753D06868012817D066
:10052000022818D0032819D021688907002958DA31
:1005300061688908890001436160FFF7BFFE69684F
:100540000746012913D002291DD0032927D034E002
:1005500021688903EAE721688901E7E7616BC9033C
:10056000E4E7FFF7ABFEC11B2D48814223D860684A
:100570000007800F0128F4D123E0FFF79FFEC11B85
:100580002748814217D860680007800F0228F4D1FD
:1005900017E0FFF793FEC11B214881420BD860682A
:1005A0000007800F0328F4D10BE0FFF787FEC11B83
:1005B0001B48814201D90320F8BD60680007800F05
:1005C000F3D115480168C907C90FB1420BD90168B9
:1005D00049084900314301600068C007C00FB042BC
:1005E00001D00120F8BD2878400706D560680721B2
:1005F00009028843E9680843606000F01DF86168FB
:10060000084A0906090F515CC840074908600020E4
:10061000FFF730FF0020F8BD00200240001002402C
:1006200088130000540E00080000002001480068F4
:10063000704700000000002030B516A30FCB89B032
:100640006C460FC417A30FCB0FC41A494A680C207D
:10065000144604401848042C05D0184B082C04D02C
:100660000C2C00D1184609B030BD9402240F6D4601
:100670002C5DC96A04AD0907090FD203695C920FAA
:10068000022A02D0032A00D11846FFF731FD604349
:10069000E9E7000002030405060708090A0B0C0D30
:1006A0000E0F10100102030405060708090A0B0CBF
:1006B0000D0E0F100010024000127A00006CDC02D8
:1006C000FEB504460078F04EF04DC00748D068688B
:1006D0000007800F01281FD068680007800F0228DC
:1006E00004D16868C003800F022815D06168012911
:1006F00019D001208004002901D0052917D02968CC
:10070000B1432960296881432960606800281BD0B3
:10071000FFF7D4FD074613E02868800320D5606802
:10072000002876D01CE0286830432860EDE729686F
:1007300001432960F7E7FFF7C1FDC01B642869D8B2
:1007400028688003F7D50BE0FFF7B8FD074604E003
:10075000FFF7B4FDC01B6428F1D828688003F7D4E4
:10076000207880073ED568680007800F14D068683D
:100770000007800F022804D16868C003800F012899
:100780000AD0E068002828681DD0012108432860AD
:10079000FFF794FD07460BE0286880070BD5E0685B
:1007A000012836D107E0FFF789FDC01B0228C6D813
:1007B00028688007F7D52868F82188432169C9008F
:1007C000084328600EE0400840002860FFF776FDEF
:1007D000074604E0FFF772FDC01B0228AFD8286867
:1007E0008007F7D42078000724D5E0690028686ADC
:1007F00011D0012108436862FFF760FD074604E05D
:10080000FFF75CFDC01B022899D8686A8007F7D5FE
:1008100010E036E1D1E0400840006862FFF74EFD8D
:10082000074604E0FFF74AFDC01B022887D8686A24
:100830008007F7D4207804274007002861DA0020D9
:100840000190E869C00008D4E969B8060143E9618C
:10085000E96901400120009101908D480168C905B6
:1008600011D40168821511430160FFF727FD009044
:1008700005E0FFF723FD0099401A642897D88448C3
:100880000068C005F5D5A06801280AD0002801D06D
:10089000052811D0286A400840002862286AB84319
:1008A00002E0286A012108432862A068002812D0CB
:1008B000FFF704FD00900AE0286A38432862F0E759
:1008C000FFF7FCFC0099411A7248814275D8286AEA
:1008D0008007F5D50DE0FFF7F1FC009006E0FFF78B
:1008E000EDFC0099411A6B48814266D8286A80075E
:1008F000F5D40198002804D0E9690120000781435C
:10090000E9612078C00635D5606901280CD0401D0A
:10091000686B24D038436863686B400840006863A4
:10092000FFF7CCFC074622E0686B38436863686BCE
:10093000012108436863FFF7C1FC074604E0FFF7A5
:10094000BDFCC01B022838D8686B8007F7D5686BE0
:10095000F8218843A169C900084368630AE0B843E5
:100960006863F4E7FFF7AAFCC01B022825D8686B70
:100970008007F7D42078800637D568680007800F95
:10098000032813D068680007800F022804D1686824
:10099000C003800F032809D0206A0028686B16D096
:1009A00030436863FFF78AFC06460CE0686BC003BF
:1009B0001BD5206A012864D117E05BE0FFF77EFCBD
:1009C000801B022856D8686BC003F7D50DE0B043F2
:1009D0006863FFF773FC064604E0FFF76FFC801BBB
:1009E000022847D8686BC003F7D4606A002846D055
:1009F00069680907890F022943D0012636060228B3
:100A0000286805D0B0432860FFF758FC044633E05F
:100A1000B0432860FFF752FC074604E0FFF74EFCA6
:100A2000C01B022826D828688001F7D4E86A216B09
:100A3000000900010843E862A16AE06A08436968A6
:100A40007B22D203914308436860286830432860C2
:100A5000FFF734FC044604E0FFF730FC001B0228DB
:100A600008D828688001F7D509E0FFF727FC001BAC
:100A7000022801D90320FEBD28688001F5D400209A
:100A8000FEBD0120FEBD000000000100001002407C
:100A900000700040881300000422044904280869FB
:100AA00002D09043086170471043FBE700E000E08C
:100AB00070470000094910B5401E884201D9012045
:100AC00010BD074C60610321081F00F04FF80020A3
:100AD000A06107202061002010BD0000FFFFFF0083
:100AE00000E000E010B5FFF7E3FF10BDFEE70000F7
:100AF000F0B5194887B04269012149050A434261AE
:100B000042690A400592426949000A4342614069CC
:100B1000124C0840124E0590002221463046FFF745
:100B2000C7FB104F002204213846FFF7C1FB009499
:100B30000024012501950294694630460394FFF78D
:100B40000BFB0420009002946946019503943846FB
:100B5000FFF702FB07B0F0BD00100240FF0F0000DE
:100B60000010004800140048704700008307FF226F
:100B7000DB0E9A408907090E994000280BDA00071E
:100B8000000F0838830808489B001818C36993436E
:100B90000B43C3617047830804489B001B18186807
:100BA000904308431860704700ED00E000E400E067
:100BB00070470000FEB504460A21FFF799FA0E4679
:100BC00064212046FFF794FA08460A21FFF790FABD
:100BD0007D210290C9002046FFF78AFA04460846A4
:100BE0006421FFF785FAC0B20190E0B200900022C4
:100BF00004213E48FFF75CFB3D4C60693D4DA95D1B
:100C0000084360610721012249022046FFF750FB9B
:100C1000FF21002201312046FFF74AFB0320FFF7A6
:100C20008FFA6069FF2636023040606160690F27E5
:100C30003F02384360610120FFF782FA6169029840
:100C4000285C014361610D21012209022046FFF762
:100C50002FFB0121002249022046FFF729FB032038
:100C6000FFF76EFA60693040606160693843606127
:100C70000120FFF765FA61690198285C0143616111
:100C80000B21012209022046FFF712FB012100225D
:100C900089022046FFF70CFB0320FFF751FA606939
:100CA000304060616069384360610120FFF748FAB5
:100CB00061690098285C01436161072101220902F2
:100CC0002046FFF7F5FA01210022C9022046FFF76E
:100CD000EFFA0320FFF734FA606930406061606921
:100CE000384360610120FFF72BFAFEBD0014004875
:100CF00000100048640E0008704710B5FFF7A2FB13
:100D0000FFF7F0FE10BD30B591B009200090012032
:100D10000790019000040A900001022500240B9026
:100D200009950C946846FFF7CBFC002800D0FEE73D
:100D300007200D900F9401210E9510940DA8FFF738
:100D4000CBFB002800D0FEE7FFF770FC7D21C90037
:100D5000FFF7CEF9FFF7AEFE0420FFF79DFE00225D
:100D60001146501EFFF7B4FB11B030BD12480168A8
:100D70000122114301604168104A1140416001683D
:100D80000F4A114001600168012292049143016001
:100D900041683F22120491434160C16A0909090177
:100DA000C162016B074A11400163416B4908490068
:100DB0004163002181607047001002400CB8FF08B9
:100DC000FFFFF6FE2CFEFCFF02E008C8121F08C160
:100DD000002AFAD170477047002001E001C1121FBC
:100DE000002AFBD170470000FFF734FBFFF78BFFB1
:100DF000FFF77EFE13491448002522C013494160C5
:100E00007D21490101600838FFF75EFA002800D013
:100E1000FEE70D48FFF7DAFA0D4C11E06068FFF7C6
:100E2000C9FE6068401C6060FA28F7D82078401C32
:100E3000C0B220701828F1D325700348FFF79CFA40
:100E4000A060EBE70030004014000020FF0F00001E
:100E50000800002000000000000000000102030460
:100E6000060708093F065B4F666D7D077F6F000030
:100E7000900E00080000002014000000C80D0008BB
:100E8000A40E00081400002014040000D80D00086F
:100E900000127A00000000000000000000000000C6
:040EA000000000004E
:04000005080000C12E
:00000001FF
