:020000040800F2
:1000000078150020D5000008D1110008F91000086B
:1000100000000000000000000000000000000000E0
:10002000000000000000000000000000351500087E
:100030000000000000000000191200083715000839
:10004000E7000008E7000008E7000008E7000008F4
:10005000E7000008E7000008E7000008E7000008E4
:10006000E7000008E7000008E7000008E7000008D4
:10007000E7000008E7000008E7000008E7000008C4
:10008000E7000008E7000008E7000008E7000008B4
:10009000E7000008E7000008E7000008E7000008A4
:1000A000E7000008E7000008E7000008E700000894
:1000B000E7000008E7000008E7000008E700000884
:1000C0000348854600F02AF800480047F118000868
:1000D000781500200448804704480047FEE7FEE703
:1000E000FEE7FEE7FEE7FEE7A5150008C1000008F1
:1000F00030B50B46014600202022012409E00D46C0
:10010000D5409D4205D31D469540491B2546954047
:1001100040191546521E002DF1DC30BD064C01255C
:10012000064E05E0E36807CC2B430C3C984710349F
:10013000B442F7D3FFF7C8FF581900087819000830
:1001400031B500F0BBF8044600F0B8F80099001B88
:100150008842F9D338BD0000F8B5002393E0224669
:1001600001249C40A44622407ED04C68022C01D041
:10017000122C0CD1DC08A40027183C6A5D07ED0E98
:100180000F26AE40B4430E69AE4026433E6205687A
:100190005E000324B4400F79A543BF07BF0FB740EB
:1001A0002F4307604D68012D05D0022D03D0112D7E
:1001B00001D0122D0ED18568CF68A543B7402F43DB
:1001C000876047686546AF430D79ED06ED0F9D40AA
:1001D0003D434560C568A5438C68B4402C43C4606A
:1001E0004C68E4004ED52B4CA56901263543A5612A
:1001F000A4699D0834400094274CAD002F19BC68B9
:100200009D072E0F0F25B540AC430925ED06A842EA
:1002100001D1002514E0214DA84201D101250FE0B4
:100220001F4DA84201D102250AE01E4DA84201D16E
:10023000032505E01C4DA84201D1042500E0052559
:10024000B5402543BD60194C25684E689543F603BB
:1002500000D51543256065684E689543B60300D503
:1002600015436560A56800E00CE04E689543F60212
:1002700000D51543A560E5684E689543B60200D5E4
:100280001543E5605B1C0A681446DA4000D066E757
:10029000F8BD0000001002400000014000040048CA
:1002A00000080048000C004800100048000401400D
:1002B000002A01D08161704781627047014800685F
:1002C000704700000C00002002480168491C0160D2
:1002D000704700000C00002010B50648016810228D
:1002E00011430160002000F007F800F017F800202B
:1002F00010BD00000020024010B5044600F0D8F800
:100300007D21C900FFF7F4FE00F0DAFE002221464D
:10031000501E00F01FF8002010BD000008B50C486A
:10032000816901221143816180691040002200909F
:100330001146501F00F00EF800221146901E00F0EA
:1003400009F800221146501E00F004F808BD000014
:100350000010024010B500F03DFF10BDF8B5054695
:100360004E480E460068C007C00FB0420AD24B4844
:10037000016849084900314301600068C007C00FA7
:10038000B04270D12878464C800705D56068F021CE
:100390008843A968084360602878C00753D068681C
:1003A000012817D0022818D0032819D021688907FE
:1003B000002958DA61688908890001436160FFF704
:1003C0007DFF69680746012913D002291DD0032942
:1003D00027D034E021688903EAE721688901E7E74B
:1003E000616BC903E4E7FFF769FFC11B2D48814238
:1003F00023D860680007800F0128F4D123E0FFF7BD
:100400005DFFC11B2748814217D860680007800F35
:100410000228F4D117E0FFF751FFC11B21488142A8
:100420000BD860680007800F0328F4D10BE0FFF7BA
:1004300045FFC11B1B48814201D90320F8BD6068FC
:100440000007800FF3D115480168C907C90FB142F1
:100450000BD9016849084900314301600068C007B1
:10046000C00FB04201D00120F8BD2878400706D562
:100470006068072109028843E9680843606000F06A
:100480001DF86168084A0906090F515CC840074910
:1004900008600020FFF730FF0020F8BD0020024078
:1004A00000100240881300004619000808000020D0
:1004B00001480068704700000800002030B516A30E
:1004C0000FCB89B06C460FC417A30FCB0FC41A49CA
:1004D0004A680C20144604401848042C05D0184BD8
:1004E000082C04D00C2C00D1184609B030BD940261
:1004F000240F6D462C5DC96A04AD0907090FD203AC
:10050000695C920F022A02D0032A00D11846FFF735
:10051000EFFD6043E9E70000020304050607080950
:100520000A0B0C0D0E0F101001020304050607083C
:10053000090A0B0C0D0E0F100010024000127A0079
:10054000006CDC02FEB504460078F04EF04DC007AA
:1005500048D068680007800F01281FD0686800072E
:10056000800F022804D16868C003800F022815D0CC
:100570006168012919D001208004002901D00529D2
:1005800017D02968B14329602968814329606068D0
:1005900000281BD0FFF792FE074613E0286880036F
:1005A00020D56068002876D01CE028683043286099
:1005B000EDE7296801432960F7E7FFF77FFEC01BDD
:1005C000642869D828688003F7D50BE0FFF776FE2A
:1005D000074604E0FFF772FEC01B6428F1D82868C4
:1005E0008003F7D4207880073ED568680007800F25
:1005F00014D068680007800F022804D16868C0031F
:10060000800F01280AD0E068002828681DD0012149
:1006100008432860FFF752FE07460BE02868800772
:100620000BD5E068012836D107E0FFF747FEC01B75
:100630000228C6D828688007F7D52868F82188439B
:100640002169C900084328600EE040084000286086
:10065000FFF734FE074604E0FFF730FEC01B022818
:10066000AFD828688007F7D42078000724D5E06940
:100670000028686A11D0012108436862FFF71EFE56
:10068000074604E0FFF71AFEC01B022899D8686AE3
:100690008007F7D510E036E1D1E0400840006862FD
:1006A000FFF70CFE074604E0FFF708FEC01B022818
:1006B00087D8686A8007F7D4207804274007002885
:1006C00061DA00200190E869C00008D4E969B80641
:1006D0000143E961E96901400120009101908D48E1
:1006E0000168C90511D40168821511430160FFF743
:1006F000E5FD009005E0FFF7E1FD0099401A642850
:1007000097D884480068C005F5D5A06801280AD0AC
:10071000002801D0052811D0286A4008400028622E
:10072000286AB84302E0286A012108432862A068C9
:10073000002812D0FFF7C2FD00900AE0286A384373
:100740002862F0E7FFF7BAFD0099411A724881422A
:1007500075D8286A8007F5D50DE0FFF7AFFD00904A
:1007600006E0FFF7ABFD0099411A6B48814266D85D
:10077000286A8007F5D40198002804D0E96901208F
:1007800000078143E9612078C00635D560690128FA
:100790000CD0401D686B24D038436863686B4008F8
:1007A00040006863FFF78AFD074622E0686B384324
:1007B0006863686B012108436863FFF77FFD0746A4
:1007C00004E0FFF77BFDC01B022838D8686B800768
:1007D000F7D5686BF8218843A169C90008436863AD
:1007E0000AE0B8436863F4E7FFF768FDC01B02281E
:1007F00025D8686B8007F7D42078800637D56868DD
:100800000007800F032813D068680007800F0228B4
:1008100004D16868C003800F032809D0206A00282B
:10082000686B16D030436863FFF748FD06460CE05E
:10083000686BC0031BD5206A012864D117E05BE018
:10084000FFF73CFD801B022856D8686BC003F7D524
:100850000DE0B0436863FFF731FD064604E0FFF7A3
:100860002DFD801B022847D8686BC003F7D4606A4F
:10087000002846D069680907890F022943D001265C
:1008800036060228286805D0B0432860FFF716FD19
:10089000044633E0B0432860FFF710FD074604E04C
:1008A000FFF70CFDC01B022826D828688001F7D46A
:1008B000E86A216B000900010843E862A16AE06A66
:1008C000084369687B22D203914308436860286823
:1008D00030432860FFF7F2FC044604E0FFF7EEFC2B
:1008E000001B022808D828688001F7D509E0FFF727
:1008F000E5FC001B022801D90320FEBD2868800109
:10090000F5D40020FEBD0120FEBD00000000010066
:10091000001002400070004088130000F8B5040089
:1009200006D025464035687F0026002802D005E025
:100930000120F8BD2E77204600F058F802236B778F
:10094000206801684022914301600722E06812029A
:10095000904201D9002101E0012109030F273F0244
:10096000B84202D0904200D0A662276B002F05D17A
:10097000904201D9236301E001202063A2686068EE
:100980006369104322691A4310430123A2695B0281
:100990001A401043E2691043226A1043A26A1043CE
:1009A00022681060206B022804D1206802689B0036
:1009B0001A430260626B606AA36910431B0C042730
:1009C000E2683B401A4310430843216848602168AD
:1009D000E06A08612068C169034A1140C161266666
:1009E000012068770020F8BDFFF7000000B500681F
:1009F0000D4987B0884215D10C48826981140A4399
:100A00008261806908400590E020009002200190FA
:100A10000021032003900291049109206946C00639
:100A2000FFF79AFB07B000BD003001400010024004
:100A3000FFB581B01E460446FFF740FC0090606899
:100A40000027C11FFD3902D1A06800280BD0254620
:100A50004035287F01280FD001202877687F0128A2
:100A60000CD00227F0E0029A009611462046039B24
:100A700000F0B0F905B0F0BD0220FBE702980028B5
:100A800070D003980028FBD00420687700202066EF
:100A9000029921640399A9800399E980A063A08742
:100AA000E0870120A16A400381420DD120680168DE
:100AB000684A114001602068016801225203114315
:100AC0000160E888401EE8800723E1681B02206877
:100AD00099424168604A01D9914300E01143416065
:100AE0000121A068C903884205D12068016801225C
:100AF00092039143016020680168490603D40168AC
:100B00004022114301600720E1680002814217D9A9
:100B100033E020688168C90708D0017B206C421C43
:100B200022640170E888401EE88009E0002E39D078
:100B3000701C05D0FFF7C2FB0099401AB04231D2B9
:100B4000E8880028E5D11BE020688168C9070AD041
:100B5000C068216C0880206C801C2064E888401EDE
:100B6000E8800AE06FE0002E1CD0701C05D0FFF773
:100B7000A5FB0099401AB04214D2E8880028E3D1BE
:100B80000120A16A4003814247D120680168324AAE
:100B900011430160012233461146204600F082FCD9
:100BA000002801D003274FE00720E16800028142BE
:100BB000206803D9C168206C018002E0017B206CB1
:100BC0000170012233461146204600F06BFC0028DC
:100BD0001BD10F21E0680902884202D12068C16858
:100BE00018E021680A7B69460A8009880721090202
:100BF000884212D1206B02280FD1012233461146C0
:100C0000204600F04FFC002802D002202066C9E7F1
:100C10002068017B6846018000883146204600F04C
:100C20009FFB002801D02020206620688168C943EE
:100C3000C90605D4216E022211432166074981604D
:100C4000206E002800D00127012068770020287737
:100C500038460FE7FFDF000000100000EFFF000044
:100C6000FFB581B017460446FFF728FB25464035FF
:100C70000090287F0026012806D001202877687F71
:100C8000012804D002269DE0022005B0F0BD0298A4
:100C9000002877D0002F75D00320687700202066C9
:100CA0000299A163A787E7872064A880E8800121D3
:100CB000A068C903884205D1206801680122920317
:100CC000114301600127A06A7F03B84208D1206860
:100CD00001683F4A114001602068016839430160A2
:100CE00020680168490603D401684022114301606D
:100CF0000721E068090288421AD844E02068816828
:100D0000890709D5A16B0988C160A06B801CA0630D
:100D1000E08F401EE0870BE00498002830D0401C94
:100D200006D0FFF7CBFA0099411A0498814227D2E6
:100D3000E08F0028E2D129E020688168890713D577
:100D4000E18F0129A16B07D90988C160A06B801CC4
:100D5000A063E08F801E05E04A1CA263097801733E
:100D6000E08F401EE0870EE00498002808D0401C69
:100D700009D0FFF7A3FA0099411A0498814202D3DF
:100D800003261FE01DE0E08F0028D5D1A06AB842FD
:100D900005D1206801680122120311430160204639
:100DA000049900F014FB002801D020202066A068E0
:100DB000002803D12068C16880680090206E002858
:100DC00000D00126012068770020287730465CE7B4
:100DD000FFDF0000FFB581B004460A9FFFF76EFAFF
:100DE000254640350090287F0026012806D00120A6
:100DF0002877687F012804D0022648E1022005B048
:100E0000F0BD029800287DD003980028FBD00498FC
:100E10000028F8D005206877002020660398206419
:100E20000498E8800498A8800298A0630498E0875A
:100E30000498A0870120A16A400381420AD120685A
:100E40000168964A1140016020680168012252033E
:100E5000114301600721E0680902884202D8E8884E
:100E6000012805D92068426801231B039A4304E046
:100E70002068426801231B031A434260206802680D
:100E8000520603D4026840231A430260E068884295
:100E900044D8ADE0E08F002826D02068816889071B
:100EA00022D5A16B0988C160A06B801CA063E08F74
:100EB000401EE087E08F002816D10120A16A400380
:100EC000814211D120680168490707D441680907A8
:100ED00004D50268012149020A43026020680168C2
:100EE0000122120311430160E88800280ED0206817
:100EF0008168C9070AD0C068216C0880206C801CFA
:100F0000206400E0C2E0E888401EE880781C05D03C
:100F1000FFF7D4F90099401AB84267D2E08F002851
:100F2000B8D1E8880028B5D168E0E08F002830D03B
:100F30002068816889072CD5E18F0129A16B07D929
:100F40000988C160A06B801CA063E08F801E05E053
:100F50004A1CA26309780173E08F401EE087E08F8E
:100F6000002816D10120A16A4003814211D12068D6
:100F70000168490707D44168090704D501680122BF
:100F800052021143016020680168012212031143DB
:100F90000160E888002821D020688168C9071DD039
:100FA000E988012912D9C068216C0880206C801C56
:100FB0002064E888801EE880E88801280ED8206830
:100FC0004168012212031143416007E0027B206C5B
:100FD000411C21640270E888401EE880781C07D01C
:100FE000FFF76CF90099401AB84201D303264EE08E
:100FF000E08F002899D1E888002896D10120A16AC5
:10100000400381422BD101223B461146204600F08D
:1010100049FA002819D10F21E068090288422068A6
:1010200004D1C06869460880088818E0017B6846DA
:1010300001800088206B022811D101223B46114615
:10104000204600F02FFA002804D0216E0220014330
:101050002166CBE72068017B684601800088206814
:101060008168C943C90606D4216E02221143216654
:101070000B49816001263946204600F0A8F9002876
:1010800001D020202066206E002800D001260120FB
:101090006877002028773046B1E60000FFDF0000C7
:1010A000EFFF0000042204490428086902D090439D
:1010B000086170471043FBE700E000E07047000064
:1010C000094910B5401E884201D9012010BD074CC6
:1010D00060610321081F00F07DF80020A061072057
:1010E0002061002010BD0000FFFFFF0000E000E0D5
:1010F00010B5FFF7E3FF10BDFEE70000F0B51D4897
:1011000087B04269012149050A43426142690A40A8
:101110000592426949000A43426142690A400592C8
:10112000426949110A4342614069134C0840134F18
:101130000590002221463846FFF7BAF88126B6000E
:10114000002231460E48FFF7B3F800940024012531
:1011500001950294694638460394FEF7FDFF029418
:1011600069460748009601950394FEF7F5FF07B01E
:10117000F0BD000000100240FF0F0000001000480A
:101180000014004810B511480F490160FF210531D6
:10119000416000210722816012020161C2600122C8
:1011A000416152028261016210224162C261816228
:1011B0000722C262016308214163FFF7AFFB0028E9
:1011C00000D0FEE710BD00000030014010000020FC
:1011D000704700008307FF22DB0E9A408907090E43
:1011E000994000280BDA0007000F083883080848E8
:1011F0009B001818C36993430B43C361704783086E
:1012000004489B001B1818689043084318607047F7
:1012100000ED00E000E400E070470000FEB5044689
:101220000A21FEF765FF0E4664212046FEF760FFA7
:1012300008460A21FEF75CFF7D210290C900204686
:10124000FEF756FF044608466421FEF751FFC0B280
:101250000190E0B20090002204213E48FFF728F8F8
:101260003D4C60693D4DA95D084360610721012245
:1012700049022046FFF71CF8FF21002201312046D9
:10128000FFF716F80320FEF75BFF6069FF263602C2
:101290003040606160690F273F0238436061012080
:1012A000FEF74EFF61690298285C014361610D21E0
:1012B000012209022046FEF7FBFF0121002249021C
:1012C0002046FEF7F5FF0320FEF73AFF6069304045
:1012D00060616069384360610120FEF731FF616938
:1012E0000198285C014361610B210122090220461B
:1012F000FEF7DEFF0121002289022046FEF7D8FF1B
:101300000320FEF71DFF606930406061606938436B
:1013100060610120FEF714FF61690098285C0143B9
:1013200061610721012209022046FEF7C1FF012168
:101330000022C9022046FEF7BBFF0320FEF700FF94
:101340006069304060616069384360610120FEF788
:10135000F7FEFEBD00140048001000483C190008CC
:10136000F3B504464068FF2501260535F60381B034
:10137000A8420AD1A068B04202D07111884204D1BB
:1013800020680168402291430160002280212046AC
:10139000029B00F087F82027002811D16068A8423E
:1013A00013D1A068B04202D0790188420DD1032147
:1013B000002249022046029B00F022F8002804D0B7
:1013C000206E384320660320FEBD0020FEBD70B5B0
:1013D0000E460B46032104460022C90200F010F815
:1013E0002025002807D1334600228021204600F026
:1013F00059F8002803D0206E28432066032070BDD2
:10140000FEB51D4617460E460446FEF757FF0090F0
:101410003EE0032149028E4205D1002F03D1017B1A
:10142000684601710079681C32D0002D05D0FEF7A6
:1014300045FF0099401AA8422AD320684168E0225B
:10144000914341606068C11FFD390CD10121A06842
:10145000C903884202D04911884204D1206801683A
:101460004022914301600120A16A4003814208D1DA
:1014700021680A680A4B1A400A6021680A68024318
:101480000A60012040346077002020770320FEBDF1
:10149000206881683140B942BBD10020FEBD000008
:1014A000FFDF0000F8B51D4616460F460446FEF75E
:1014B00005FF009034E0681C32D0002D05D0FEF707
:1014C000FDFE0099401AA8422AD320684168E02214
:1014D000914341606068C11FFD390CD10121A068B2
:1014E000C903884202D04911884204D120680168AA
:1014F0004022914301600120A16A4003814208D14A
:1015000021680A680A4B1A400A6021680A68024387
:101510000A60012040346077002020770320F8BD66
:10152000206880683840B042C5D10020F8BD000076
:10153000FFDF0000704710B5FEF7C6FEFFF7D8FDCD
:1015400010BD30B591B001200090019000040A90C8
:101550000001022500240B9009950C946846FEF7C3
:10156000F1FF002800D0FEE707200D900F94012125
:101570000E9510940DA8FEF7F1FE002800D0FEE7AE
:10158000FEF796FF7D21C900FEF7B2FDFFF798FD3B
:101590000420FFF787FD00221146501EFEF7DAFEF9
:1015A00011B030BD12480168012211430160416849
:1015B000104A1140416001680F4A11400160016802
:1015C000012292049143016041683F221204914339
:1015D0004160C16A09090901C162016B074A1140F2
:1015E0000163416B490849004163002181607047F4
:1015F000001002400CB8FF08FFFFF6FE2CFEFCFFB7
:10160000012110B54902054B002804D001221846DB
:10161000FEF74EFE10BD0022F9E70000001400485E
:101620007CB505460E460020FFF7EAFF022168461A
:1016300001710523012201A91848FFF711FB184C7D
:10164000290C606068460170052301226946134831
:10165000FFF706FB6060290A684601700523012236
:1016600069460E48FFF7FCFA60606846057005237E
:10167000012269460948FFF7F3FA002560607119F5
:10168000052301220548FFF7EBFA6D1CADB260603F
:10169000FF2DF4D90120FFF7B3FF7CBD100000201F
:1016A000000000203EB505460020FFF7A9FF0321FA
:1016B000684601710523012201A91C48FFF7D0FAF1
:1016C0001B4C290C606068460170052301226946A5
:1016D0001648FFF7C5FA6060290A684601700523BD
:1016E000012269461148FFF7BBFA60606846057041
:1016F0000523012269460D48FFF7B2FA0D4D6060DF
:1017000028680121084328600A46052302A90748E2
:10171000FFF78EF9606028680749084028600120BB
:10172000FFF76EFF6846007A3EBD00001000002003
:101730000000002000300140FEFF00007CB50020CA
:10174000FFF75EFF0521684601700B4601226946DE
:101750000D48FFF785FA0D4D0D4C6860206801219A
:10176000084320600A46052301A90748FFF760F9EE
:10177000686020680749084020600120FFF740FFAB
:10178000684600797CBD00001000002000000020A9
:1017900000300140FEFF00007CB504460020FFF74A
:1017A0002FFF2021684601710523012201A913485A
:1017B000FFF756FA124D210C686068460170052348
:1017C000012269460D48FFF74BFA6860210A684616
:1017D00001700523012269460848FFF741FA686055
:1017E000684604700523012269460448FFF738FA69
:1017F00068600120FFF704FF7CBD0000100000209E
:1018000000000020F7B5070B3F03C0B016460546A1
:1018100000243819FFF746FF20490855012000032E
:10182000641C8442F5D32805020FEBB2002012029B
:10183000D2180C4605E041991318095C401CE1548C
:1018400080B2B042F7D300F02DF82846FFF7A4FF8E
:10185000134EFFF773FF7070C007FAD100F022F843
:101860000025002069462E023218A25C0A54401C52
:1018700080B2FF28F8D900F015F8F0196946FFF793
:10188000CFFE074EFFF75AFF7070C007FAD16D1CEC
:10189000EDB2102DE5D343B0F0BD0000740100207F
:1018A0000000002008B50020FFF7AAFE06206946C8
:1018B0000870052301220448FFF7D2F90349486064
:1018C0000120FFF79DFE08BD100000200000002051
:1018D00002E008C8121F08C1002AFAD170477047F9
:1018E000002001E001C1121F002AFBD17047000057
:1018F000FEF7F2FCFFF725FEFFF700FCFFF742FCC6
:101900000B4900200854401C80B2FF28FAD9FFF789
:10191000C9FF0F2206490748FFF774FF054D064C23
:101920006D1D2846FFF7BEFE2070FFF777FCF8E735
:1019300074000020F0FF7F00000000203F065B4F96
:10194000666D7D077F6F000000000000000001024F
:1019500003040607080900007819000800000020A9
:1019600010000000D018000888190008100000209E
:1019700068150000E01800080000000000000000EA
:0819800000127A0000000000D3
:04000005080000C12E
:00000001FF
