:020000040800F2
:1000000038040020D5000008890E00087D0D000886
:1000100000000000000000000000000000000000E0
:10002000000000000000000000000000691000084F
:100030000000000000000000D10E00086B10000856
:10004000E7000008E7000008E7000008E7000008F4
:10005000E7000008E7000008E7000008E7000008E4
:10006000E7000008E7000008E7000008E7000008D4
:10007000E7000008E7000008E7000008E7000008C4
:10008000E7000008E7000008E7000008E7000008B4
:10009000E7000008E7000008E7000008E7000008A4
:1000A000E7000008E7000008E7000008E700000894
:1000B000E7000008E7000008E7000008E700000884
:1000C0000348854600F02AF8004800476D110008F3
:1000D000380400200448804704480047FEE7FEE754
:1000E000FEE7FEE7FEE7FEE7F1100008C1000008AA
:1000F00030B50B46014600202022012409E00D46C0
:10010000D5409D4205D31D469540491B2546954047
:1001100040191546521E002DF1DC30BD064C01255C
:10012000064E05E0E36807CC2B430C3C984710349F
:10013000B442F7D3FFF7C8FFC0110008E011000870
:1001400031B500F0BBF8044600F0B8F80099001B88
:100150008842F9D338BD0000F8B5002393E0224669
:1001600001249C40A44622407ED04C68022C01D041
:10017000122C0CD1DC08A40027183C6A5D07ED0E98
:100180000F26AE40B4430E69AE4026433E6205687A
:100190005E000324B4400F79A543BF07BF0FB740EB
:1001A0002F4307604D68012D05D0022D03D0112D7E
:1001B00001D0122D0ED18568CF68A543B7402F43DB
:1001C000876047686546AF430D79ED06ED0F9D40AA
:1001D0003D434560C568A5438C68B4402C43C4606A
:1001E0004C68E4004ED52B4CA56901263543A5612A
:1001F000A4699D0834400094274CAD002F19BC68B9
:100200009D072E0F0F25B540AC430925ED06A842EA
:1002100001D1002514E0214DA84201D101250FE0B4
:100220001F4DA84201D102250AE01E4DA84201D16E
:10023000032505E01C4DA84201D1042500E0052559
:10024000B5402543BD60194C25684E689543F603BB
:1002500000D51543256065684E689543B60300D503
:1002600015436560A56800E00CE04E689543F60212
:1002700000D51543A560E5684E689543B60200D5E4
:100280001543E5605B1C0A681446DA4000D066E757
:10029000F8BD0000001002400000014000040048CA
:1002A00000080048000C004800100048000401400D
:1002B000002A01D08161704781627047014800685F
:1002C000704700000400002002480168491C0160DA
:1002D000704700000400002010B506480168102295
:1002E00011430160002000F007F800F017F800202B
:1002F00010BD00000020024010B5044600F068F96F
:100300007D21C900FFF7F4FE00F01CFD002221460C
:10031000501E00F01FF8002010BD000008B50C486A
:10032000816901221143816180691040002200909F
:100330001146501F00F00EF800221146901E00F0EA
:1003400009F800221146501E00F004F808BD000014
:100350000010024010B500F099FD10BDF8B504463C
:100360000068434DC00352D5E8690026C00007D499
:10037000E96928040143E961E96901400126009126
:100380003C480168C90510D4016882151143016019
:10039000FFF794FF074604E0FFF790FFC01B6428B7
:1003A00024D834480068C005F6D5286A03273F02E0
:1003B000384020D06168394081421CD0286A2A6ABE
:1003C000B843012109040A432A622A6A8A432A623D
:1003D0002862C0070FD0FFF771FF009008E0FFF719
:1003E0006DFF0099411A2448814201D90320F8BDCC
:1003F000286A8007F3D5286A6168B84308432862F1
:10040000002E04D0E869012109078843E8612078BB
:10041000C00705D0286BA1688008800008432863C6
:100420002078800706D5286B032109048843E168FA
:10043000084328632078800605D5286B102188435F
:100440002169084328632068800305D5286B802133
:100450008843A169084328632088400505D5286B97
:10046000402188436169084328630020F8BD0000EB
:10047000001002400070004088130000F8B50546E7
:100480004E480E460068C007C00FB0420AD24B4823
:10049000016849084900314301600068C007C00F86
:1004A000B04270D12878464C800705D56068F021AD
:1004B0008843A968084360602878C00753D06868FB
:1004C000012817D0022818D0032819D021688907DD
:1004D000002958DA61688908890001436160FFF7E3
:1004E000EDFE69680746012913D002291DD00329B2
:1004F00027D034E021688903EAE721688901E7E72A
:10050000616BC903E4E7FFF7D9FEC11B2D488142A7
:1005100023D860680007800F0128F4D123E0FFF79B
:10052000CDFEC11B2748814217D860680007800FA5
:100530000228F4D117E0FFF7C1FEC11B2148814218
:100540000BD860680007800F0328F4D10BE0FFF799
:10055000B5FEC11B1B48814201D90320F8BD60686C
:100560000007800FF3D115480168C907C90FB142D0
:100570000BD9016849084900314301600068C00790
:10058000C00FB04201D00120F8BD2878400706D541
:100590006068072109028843E9680843606000F049
:1005A0001DF86168084A0906090F515CC8400749EF
:1005B00008600020FFF7A0FE0020F8BD00200240E8
:1005C00000100240881300009C1100080000002069
:1005D00001480068704700000000002030B516A3F5
:1005E0000FCB89B06C460FC417A30FCB0FC41A49A9
:1005F0004A680C20144604401848042C05D0184BB7
:10060000082C04D00C2C00D1184609B030BD94023F
:10061000240F6D462C5DC96A04AD0907090FD2038A
:10062000695C920F022A02D0032A00D11846FFF714
:100630005FFD6043E9E700000203040506070809BF
:100640000A0B0C0D0E0F101001020304050607081B
:10065000090A0B0C0D0E0F100010024000127A0058
:10066000006CDC02FEB504460078F04EF04DC00789
:1006700048D068680007800F01281FD0686800070D
:10068000800F022804D16868C003800F022815D0AB
:100690006168012919D001208004002901D00529B1
:1006A00017D02968B14329602968814329606068AF
:1006B00000281BD0FFF702FE074613E028688003DE
:1006C00020D56068002876D01CE028683043286078
:1006D000EDE7296801432960F7E7FFF7EFFDC01B4D
:1006E000642869D828688003F7D50BE0FFF7E6FD9A
:1006F000074604E0FFF7E2FDC01B6428F1D8286834
:100700008003F7D4207880073ED568680007800F03
:1007100014D068680007800F022804D16868C003FD
:10072000800F01280AD0E068002828681DD0012128
:1007300008432860FFF7C2FD07460BE028688007E2
:100740000BD5E068012836D107E0FFF7B7FDC01BE5
:100750000228C6D828688007F7D52868F82188437A
:100760002169C900084328600EE040084000286065
:10077000FFF7A4FD074604E0FFF7A0FDC01B022819
:10078000AFD828688007F7D42078000724D5E0691F
:100790000028686A11D0012108436862FFF78EFDC6
:1007A000074604E0FFF78AFDC01B022899D8686A53
:1007B0008007F7D510E036E1D1E0400840006862DC
:1007C000FFF77CFD074604E0FFF778FDC01B022819
:1007D00087D8686A8007F7D4207804274007002864
:1007E00061DA00200190E869C00008D4E969B80620
:1007F0000143E961E96901400120009101908D48C0
:100800000168C90511D40168821511430160FFF721
:1008100055FD009005E0FFF751FD0099401A64284E
:1008200097D884480068C005F5D5A06801280AD08B
:10083000002801D0052811D0286A4008400028620D
:10084000286AB84302E0286A012108432862A068A8
:10085000002812D0FFF732FD00900AE0286A3843E2
:100860002862F0E7FFF72AFD0099411A7248814299
:1008700075D8286A8007F5D50DE0FFF71FFD0090B9
:1008800006E0FFF71BFD0099411A6B48814266D8CC
:10089000286A8007F5D40198002804D0E96901206E
:1008A00000078143E9612078C00635D560690128D9
:1008B0000CD0401D686B24D038436863686B4008D7
:1008C00040006863FFF7FAFC074622E0686B384394
:1008D0006863686B012108436863FFF7EFFC074614
:1008E00004E0FFF7EBFCC01B022838D8686B8007D8
:1008F000F7D5686BF8218843A169C900084368638C
:100900000AE0B8436863F4E7FFF7D8FCC01B02288D
:1009100025D8686B8007F7D42078800637D56868BB
:100920000007800F032813D068680007800F022893
:1009300004D16868C003800F032809D0206A00280A
:10094000686B16D030436863FFF7B8FC06460CE0CE
:10095000686BC0031BD5206A012864D117E05BE0F7
:10096000FFF7ACFC801B022856D8686BC003F7D594
:100970000DE0B0436863FFF7A1FC064604E0FFF713
:100980009DFC801B022847D8686BC003F7D4606ABF
:10099000002846D069680907890F022943D001263B
:1009A00036060228286805D0B0432860FFF786FC89
:1009B000044633E0B0432860FFF780FC074604E0BC
:1009C000FFF77CFCC01B022826D828688001F7D4DA
:1009D000E86A216B000900010843E862A16AE06A45
:1009E000084369687B22D203914308436860286802
:1009F00030432860FFF762FC044604E0FFF75EFC2A
:100A0000001B022808D828688001F7D509E0FFF705
:100A100055FC001B022801D90320FEBD2868800177
:100A2000F5D40020FEBD0120FEBD00000000010045
:100A300000100240007000408813000030B5027FB3
:100A4000012A1FD001220277022343770468CA23B8
:100A5000636204685323636203689C68D504AC43F3
:100A60009C6003689C680C439C6001688B68D4059B
:100A700023438B600368FF2159624277002101778D
:100A8000084630BD022030BD70B5040003D0607F41
:100A9000002802D006E0012070BD0020207720460B
:100AA00000F042F8022060772168CA20486221687D
:100AB00053204862204600F01FFA0146FF2000291B
:100AC000216803D0486204206077E4E78A68154B08
:100AD0001A408A60226891686368656919432369CE
:100AE0002B43194391602268E168116121680A690A
:100AF00023891B041A430A612168CA6880239A4328
:100B0000CA6021680A6CDB029A430A6421680A6C95
:100B1000A3691A430A6421684862012060770020B3
:100B200070BD0000BFFF8FFF00680549884205D1F6
:100B30000448016A0122D203114301627047000098
:100B40000028004000100240F8B50446007F0B4624
:100B5000012815D001202077022060775878002ADC
:100B600010D000F0B6F9987800F0B3F9D8789D78F5
:100B7000000405435878197800024903084316E039
:100B80000220F8BDC10603D5EF2108400A30587095
:100B9000D87800F0A6F90504587800F0A2F9000210
:100BA0000543987800F09DF9054318784003054304
:100BB0002168CA204862216853204862204600F01C
:100BC0009BF90026FF27002811D110480540206816
:100BD00045602068C16880229143C16020688068B8
:100BE00080060BD4204600F085F8002806D0206847
:100BF00047620420607726770120F8BD20684762AD
:100C00000120607726770020F8BD00003FFFFF003D
:100C1000F8B50446007F0D4601280ED0012020774C
:100C200002206077206800278068002A07D04006ED
:100C300018D5287800F04DF915E00220F8BD4006DF
:100C400000D4EF70287800F04CF90604687800F0C2
:100C500048F900020643A87800F043F90643E87813
:100C6000000409E0EF702878AE7800040643687845
:100C7000E97800020904084306432168CA20486253
:100C8000216853204862204600F036F900281ED122
:100C90001748064020680660206881680122920497
:100CA000914381602969E868084321688A68104394
:100CB00088602068C16880229143C1602068806894
:100CC00080060CD4204600F015F8002807D02168D3
:100CD000FF2048620420607727770120F8BD216853
:100CE000FF2048620120607727770020F8BD0000D0
:100CF0007F7F7F0070B504460068C168A0229143E1
:100D0000C160FFF7DBFA7D260546F60006E0FFF737
:100D1000D5FA401BB04201D9032070BD2068C068DD
:100D20008006F4D5002070BD042204490428086917
:100D300002D09043086170471043FBE700E000E0F9
:100D400070470000094910B5401E884201D90120B2
:100D500010BD074C60610321081F00F097F80020C8
:100D6000A06107202061002010BD0000FFFFFF00F0
:100D700000E000E010B5FFF7E3FF10BDFEE7000064
:100D8000F0B51D4887B04269012149050A43426117
:100D900042690A400592426989100A4342614269E8
:100DA0000A4005924269C9000A4342614069134CF6
:100DB0000840134E0590002221463046FFF778FA8E
:100DC000104F002204213846FFF772FA00940024E5
:100DD000012501950294694630460394FFF7BCF95A
:100DE0000420009002946946019503943846FFF769
:100DF000B3F907B0F0BD000000100240FF0F000083
:100E0000001000480014004810B51D491D4886B068
:100E1000002412C07F2101608460C460FF2104614E
:100E200041600838FFF730FE002800D0FEE71221AD
:100E30006846017044708470039401226946114829
:100E40000494FFF7E5FE002800D0FEE70120694684
:100E50000875487588751820C875012205A90948C4
:100E6000FFF772FE002800D0FEE70121C904054803
:100E7000FFF7E4FD002800D0FEE706B010BD00003B
:100E80000028004014000020704700008307FF2264
:100E9000DB0E9A408907090E994000280BDA0007FB
:100EA000000F0838830808489B001818C36993434B
:100EB0000B43C3617047830804489B001B181868E4
:100EC000904308431860704700ED00E000E400E044
:100ED000704701090A2200075143000F4018C0B2B1
:100EE0007047002102E00A38C0B2491C0A28FAD231
:100EF0000907090E0843704770B504460068C168C9
:100F0000490613D40021C943C160FFF7D7F97D26F4
:100F10000546F60006E0FFF7D1F9401BB04201D9C3
:100F2000032070BD2068C0684006F4D5002070BD65
:100F3000FEB501050D0F4104490F01910103800227
:100F4000800F0F0F0090002204214348FFF7B0F9F3
:100F5000424C60694249495D0843606107210122B2
:100F600049022046FFF7A4F9FF2100220131204663
:100F7000FFF79EF90320FFF7E3F86069FF252D02D4
:100F80002840606160690F263602304360610120AD
:100F9000FFF7D6F86069324A0199515C08436061F5
:100FA0000D21012209022046FFF782F901210022CA
:100FB00049022046FFF77CF90320FFF7C1F860697A
:100FC000284060616069304360610120FFF7B8F834
:100FD00024480B21006809028028606902D8204A51
:100FE0000A3200E01E4AD25D1043606101222046B1
:100FF000FFF75EF90121002289022046FFF758F928
:101000000320FFF79DF86069284060616069304304
:1010100060610120FFF794F860691149009A895CCA
:10102000084360610721012209022046FFF740F9C9
:1010300001210022C9022046FFF73AF90320FFF7F9
:101040007FF8606928406061606930436061012019
:10105000FFF776F8FEBD00000014004800100048BD
:10106000AC11000808000020704710B5FFF72CF9FC
:10107000FFF780FE10BD70B598B0052000900120EC
:101080000504029001900005022600240B900996A9
:101090000A950C946846FFF7E5FA002800D0FEE7B1
:1010A00007200D900F9401210E9610940DA8FFF7C4
:1010B000E5F9002800D0FEE7FF20013012901195DD
:1010C00011A8FFF74BF9002800D0FEE7FFF780FAE0
:1010D0007D21C900FFF70CF8FFF734FE0420FFF76D
:1010E00023FE00221146501EFFF734F918B070BDE0
:1010F000124801680122114301604168104A114001
:10110000416001680F4A11400160016801229204A8
:101110009143016041683F22120491434160C16ADA
:1011200009090901C162016B074A11400163416B62
:101130004908490041630021816070470010024066
:101140000CB8FF08FFFFF6FE2CFEFCFF02E008C80B
:10115000121F08C1002AFAD170477047002001E031
:1011600001C1121F002AFBD170470000FFF7B4F83D
:10117000FFF781FFFFF704FEFFF746FE054C064D23
:10118000A06A2860206868606168A960FFF7D0FEE7
:10119000F6E70000002800400800002000000000E2
:1011A0000000000001020304060708093F065B4F28
:1011B000666D7D077F6FBF86DBCFE6EDFD87FFEFB6
:1011C000E011000800000020140000004C1100088D
:1011D000F411000814000020240400005C11000831
:1011E00000127A0000000000000000000000000073
:0411F00000000000FB
:04000005080000C12E
:00000001FF
