:020000040800F2
:1000000050040020D50000080D0C00083B0B000830
:1000100000000000000000000000000000000000E0
:100020000000000000000000000000009D0D00081E
:100030000000000000000000550C00089F0D0008A3
:10004000E7000008E7000008E7000008E7000008F4
:10005000E7000008E7000008E7000008E7000008E4
:10006000690E0008E7000008E7000008E700000844
:10007000E7000008E7000008E7000008E7000008C4
:10008000E7000008E7000008E7000008E7000008B4
:10009000E7000008E7000008E7000008E7000008A4
:1000A000E7000008E7000008E7000008E700000894
:1000B000E7000008E7000008E7000008E700000884
:1000C0000348854600F02AF800480047D90E00088A
:1000D000500400200448804704480047FEE7FEE73C
:1000E000FEE7FEE7FEE7FEE70D0E0008C100000890
:1000F00030B50B46014600202022012409E00D46C0
:10010000D5409D4205D31D469540491B2546954047
:1001100040191546521E002DF1DC30BD064C01255C
:10012000064E05E0E36807CC2B430C3C984710349F
:10013000B442F7D3FFF7C8FF200F0008400F0008B4
:1001400031B500F0BBF8044600F0B8F80099001B88
:100150008842F9D338BD0000F8B5002393E0224669
:1001600001249C40A44622407ED04C68022C01D041
:10017000122C0CD1DC08A40027183C6A5D07ED0E98
:100180000F26AE40B4430E69AE4026433E6205687A
:100190005E000324B4400F79A543BF07BF0FB740EB
:1001A0002F4307604D68012D05D0022D03D0112D7E
:1001B00001D0122D0ED18568CF68A543B7402F43DB
:1001C000876047686546AF430D79ED06ED0F9D40AA
:1001D0003D434560C568A5438C68B4402C43C4606A
:1001E0004C68E4004ED52B4CA56901263543A5612A
:1001F000A4699D0834400094274CAD002F19BC68B9
:100200009D072E0F0F25B540AC430925ED06A842EA
:1002100001D1002514E0214DA84201D101250FE0B4
:100220001F4DA84201D102250AE01E4DA84201D16E
:10023000032505E01C4DA84201D1042500E0052559
:10024000B5402543BD60194C25684E689543F603BB
:1002500000D51543256065684E689543B60300D503
:1002600015436560A56800E00CE04E689543F60212
:1002700000D51543A560E5684E689543B60200D5E4
:100280001543E5605B1C0A681446DA4000D066E757
:10029000F8BD0000001002400000014000040048CA
:1002A00000080048000C004800100048000401400D
:1002B000002A01D08161704781627047014800685F
:1002C000704700000C00002002480168491C0160D2
:1002D000704700000C00002010B50648016810228D
:1002E00011430160002000F007F800F017F800202B
:1002F00010BD00000020024010B5044600F0E2F8F6
:100300007D21C900FFF7F4FE00F020FB002221460A
:10031000501E00F029F8002010BD000008B50C4860
:10032000816901221143816180691040002200909F
:100330001146501F00F018F800221146901E00F0E0
:1003400013F800221146501E00F00EF808BD000000
:1003500000100240C106C90E012088400149086012
:100360007047000000E100E010B500F051FC10BD46
:10037000F8B505464E480E460068C007C00FB042AB
:100380000AD24B48016849084900314301600068BE
:10039000C007C00FB04270D12878464C800705D501
:1003A0006068F0218843A968084360602878C00726
:1003B00053D06868012817D0022818D0032819D014
:1003C00021688907002958DA616889088900014392
:1003D0006160FFF773FF69680746012913D002299E
:1003E0001DD0032927D034E021688903EAE721687A
:1003F0008901E7E7616BC903E4E7FFF75FFFC11B12
:100400002D48814223D860680007800F0128F4D16D
:1004100023E0FFF753FFC11B2748814217D86068CC
:100420000007800F0228F4D117E0FFF747FFC11B38
:10043000214881420BD860680007800F0328F4D15F
:100440000BE0FFF73BFFC11B1B48814201D9032092
:10045000F8BD60680007800FF3D115480168C9072F
:10046000C90FB1420BD90168490849003143016005
:100470000068C007C00FB04201D00120F8BD287845
:10048000400706D56068072109028843E9680843E8
:10049000606000F01DF86168084A0906090F515CA8
:1004A000C840074908600020FFF726FF0020F8BD7C
:1004B0000020024000100240881300000E0F0008C8
:1004C0000800002001480068704700000800002074
:1004D00030B516A30FCB89B06C460FC417A30FCB52
:1004E0000FC41A494A680C20144604401848042CCA
:1004F00005D0184B082C04D00C2C00D1184609B09C
:1005000030BD9402240F6D462C5DC96A04AD090705
:10051000090FD203695C920F022A02D0032A00D18C
:100520001846FFF7E5FD6043E9E700000203040514
:10053000060708090A0B0C0D0E0F10100102030428
:1005400005060708090A0B0C0D0E0F1000100240DB
:1005500000127A00006CDC02FEB504460078F04E12
:10056000F04DC00748D068680007800F01281FD0F1
:1005700068680007800F022804D16868C003800FF4
:10058000022815D06168012919D0012080040029B2
:1005900001D0052917D02968B14329602968814312
:1005A0002960606800281BD0FFF788FE074613E02B
:1005B0002868800320D56068002876D01CE0286871
:1005C00030432860EDE7296801432960F7E7FFF72A
:1005D00075FEC01B642869D828688003F7D50BE036
:1005E000FFF76CFE074604E0FFF768FEC01B6428B7
:1005F000F1D828688003F7D4207880073ED5686852
:100600000007800F14D068680007800F022804D10B
:100610006868C003800F01280AD0E06800282868B5
:100620001DD0012108432860FFF748FE07460BE074
:10063000286880070BD5E068012836D107E0FFF76E
:100640003DFEC01B0228C6D828688007F7D5286859
:10065000F82188432169C900084328600EE040085A
:1006600040002860FFF72AFE074604E0FFF726FE59
:10067000C01B0228AFD828688007F7D4207800076D
:1006800024D5E0690028686A11D001210843686216
:10069000FFF714FE074604E0FFF710FEC01B022818
:1006A00099D8686A8007F7D510E036E1D1E04008B4
:1006B00040006862FFF702FE074604E0FFF7FEFD18
:1006C000C01B022887D8686A8007F7D420780427DF
:1006D0004007002861DA00200190E869C00008D4D2
:1006E000E969B8060143E961E96901400120009127
:1006F00001908D480168C90511D401688215114324
:100700000160FFF7DBFD009005E0FFF7D7FD0099E2
:10071000401A642897D884480068C005F5D5A068B9
:1007200001280AD0002801D0052811D0286A4008E5
:1007300040002862286AB84302E0286A0121084381
:100740002862A068002812D0FFF7B8FD00900AE0E8
:10075000286A38432862F0E7FFF7B0FD0099411A94
:100760007248814275D8286A8007F5D50DE0FFF7F9
:10077000A5FD009006E0FFF7A1FD0099411A6B4826
:10078000814266D8286A8007F5D40198002804D0F1
:10079000E969012000078143E9612078C00635D569
:1007A000606901280CD0401D686B24D03843686311
:1007B000686B400840006863FFF780FD074622E051
:1007C000686B38436863686B012108436863FFF70F
:1007D00075FD074604E0FFF771FDC01B022838D8FD
:1007E000686B8007F7D5686BF8218843A169C90059
:1007F000084368630AE0B8436863F4E7FFF75EFD07
:10080000C01B022825D8686B8007F7D420788006A3
:1008100037D568680007800F032813D06868000781
:10082000800F022804D16868C003800F032809D014
:10083000206A0028686B16D030436863FFF73EFDDE
:1008400006460CE0686BC0031BD5206A012864D102
:1008500017E05BE0FFF732FD801B022856D8686B7B
:10086000C003F7D50DE0B0436863FFF727FD0646E8
:1008700004E0FFF723FD801B022847D8686BC00304
:10088000F7D4606A002846D069680907890F0229F1
:1008900043D0012636060228286805D0B0432860D8
:1008A000FFF70CFD044633E0B0432860FFF706FD78
:1008B000074604E0FFF702FDC01B022826D828687F
:1008C0008001F7D4E86A216B000900010843E8625F
:1008D000A16AE06A084369687B22D2039143084316
:1008E0006860286830432860FFF7E8FC044604E0AD
:1008F000FFF7E4FC001B022808D828688001F7D520
:1009000009E0FFF7DBFC001B022801D90320FEBD34
:1009100028688001F5D40020FEBD0120FEBD000046
:100920000000010000100240007000408813000029
:10093000042204490428086902D0904308617047E2
:100940001043FBE700E000E070470000094910B5E4
:10095000401E884201D9012010BD074C606103216F
:10096000081F00F055F90020A06107202061002039
:1009700010BD0000FFFFFF0000E000E010B5FFF732
:10098000E3FF10BD7047704702688800343010588C
:10099000704710B50168CA68D243D3070122002B03
:1009A00000D18A600368D968C9438C0701462031A9
:1009B000002C06DB02229A6003220A77FFF7E3FF8E
:1009C00010BD0A77FFF7DEFF10BD70B5040005D03B
:1009D00025462035287F002802D003E0012070BD85
:1009E0000020687702202877204600F03FF8206832
:1009F00001260660A1686068228A08436169520482
:100A000011430843A1690843E1690843616A084347
:100A1000A16A084321680A6810430860E068012859
:100A200004D120680168320411430160616B206BBE
:100A30000843A16B08432168C0430861616B206BC8
:100A40000843216888622168A06B0862206B00F06F
:100A500021FA21680863206841688908890041609B
:100A60002168032088602E77002070BD70B5006873
:100A7000184986B088422AD11748426901210906DF
:100A80000A43426140690024084005900813009021
:100A90001220124E01250190029469460495039498
:100AA0003046FFF759FB07204003009002200190D9
:100AB00002946946049503943046FFF74DFB0022EB
:100AC00011460820FFF750FC0820FFF743FC06B052
:100AD00070BD00000040024000100240000C0048C1
:100AE00030B502462032517F012920D001245477AD
:100AF0000221117703685D6825435D60C36A012B9D
:100B000003685C6815D08C435C6004680323A360B1
:100B1000046A1023002C046825680CD01D4325604E
:100B2000006803680B4303600020507730BD02204B
:100B300030BD0C43E8E79D43F1E7FEE7F0B51D4803
:100B400087B04269012149050A43426142690A406E
:100B50000592426949000A43426142690A4005928E
:100B6000426989100A4342614069134C0840134EA0
:100B70000590002221463046FFF79AFB104F0022D5
:100B800004213846FFF794FB0094002401250195C9
:100B90000294694630460394FFF7DEFA0420009081
:100BA00002946946019503943846FFF7D5FA07B0D9
:100BB000F0BD000000100240FF0F000000100048D0
:100BC0000014004810B50F490F480122120706C053
:100BD0001111016000214160052381601B03036145
:100BE000C1608161C161C02301624361416207212B
:100BF0004907026381620838FFF7E7FE002800D04A
:100C0000FEE710BD004002401000002070470000C9
:100C10008307FF22DB0E9A408907090E99400028BE
:100C20000BDA0007000F0838830808489B001818E3
:100C3000C36993430B43C3617047830804489B0017
:100C40001B181868904308431860704700ED00E0D7
:100C500000E400E070470000FEB504460A21FFF7FB
:100C600047FA0E4664212046FFF742FA08460A2159
:100C7000FFF73EFA7D210290C9002046FFF738FABF
:100C8000044608466421FFF733FAC0B20190E0B28F
:100C90000090002204213E48FFF70AFB3D4C6069AA
:100CA0003D4DA95D084360610721012249022046AC
:100CB000FFF7FEFAFF21002201312046FFF7F8FA84
:100CC0000320FFF73DFA6069FF263602304060617D
:100CD00060690F273F02384360610120FFF730FA57
:100CE00061690298285C014361610D2101220902BA
:100CF0002046FFF7DDFA0121002249022046FFF7D6
:100D0000D7FA0320FFF71CFA606930406061606920
:100D1000384360610120FFF713FA61690198285C8C
:100D2000014361610B21012209022046FFF7C0FA4D
:100D30000121002289022046FFF7BAFA0320FFF7BB
:100D4000FFF960693040606160693843606101208B
:100D5000FFF7F6F961690098285C0143616107219A
:100D6000012209022046FFF7A3FA01210022C9024D
:100D70002046FFF79DFA0320FFF7E2F96069304053
:100D800060616069384360610120FFF7D9F9FEBDF9
:100D90000014004800100048040F0008704710B508
:100DA000FFF792FAFFF7EAFD10BD30B591B00120D0
:100DB0000090019000040A900001022500240B908D
:100DC00009950C946846FFF7C7FB002800D0FEE7A2
:100DD00007200D900F9401210E9510940DA8FFF798
:100DE000C7FA002800D0FEE7FFF76CFB7D21C900A1
:100DF000FFF77EF9FFF7AAFD0420FFF799FD002217
:100E00001146501EFFF7B0FA11B030BD124801680C
:100E10000122114301604168104A1140416001689C
:100E20000F4A114001600168012292049143016060
:100E300041683F22120491434160C16A09090901D6
:100E4000C162016B074A11400163416B49084900C7
:100E50004163002181607047001002400CB8FF0818
:100E6000FFFFF6FE2CFEFCFF10B507210648FFF73A
:100E70008BFD064908600448FFF78BFD0248FFF729
:100E80002FFE0349086010BD100000200000002064
:100E90000400002070B5044600200F250146012300
:100EA0008E002A46B240224202D01A468A4010439F
:100EB000491C0829F4D370BD02E008C8121F08C1FC
:100EC000002AFAD170477047002001E001C1121FCB
:100ED000002AFBD170470000FFF7FEF9FFF765FF1E
:100EE000FFF72CFEFFF76EFE0448FFF7F9FD044CF8
:100EF00060602068FFF7B0FEFBE7000010000020F4
:100F0000000000203F065B4F666D7D077F6F00008D
:100F100000000000000001020304060708090000A9
:100F2000400F00080000002010000000B80E00086C
:100F3000500F00081000002040040000C80E0008F8
:100F4000000000000000000000127A000000000015
:04000005080000C12E
:00000001FF
