:020000040800F2
:1000000060040020D50000084911000869100008AC
:1000100000000000000000000000000000000000E0
:10002000000000000000000000000000D9120008DD
:10003000000000000000000091110008DB12000821
:10004000E7000008E7000008E7000008E7000008F4
:10005000E7000008E7000008E7000008E7000008E4
:10006000E7000008E7000008E7000008E7000008D4
:10007000E7000008E7000008E7000008E7000008C4
:10008000E7000008E7000008E7000008E7000008B4
:10009000E7000008E7000008E7000008E7000008A4
:1000A000E7000008E7000008E7000008E700000894
:1000B000E7000008E7000008E7000008E700000884
:1000C0000348854600F002F900480047CD130008B8
:1000D000600400200448804704480047FEE7FEE72C
:1000E000FEE7FEE7FEE7FEE751130008C100000847
:1000F00030B50B46014600202022012409E00D46C0
:10010000D5409D4205D31D469540491B2546954047
:1001100040191546521E002DF1DC30BD024670B567
:100120004A40D30FDB0740002DD04A002AD0010EF1
:10013000140E000212020919400A520A8418E5013D
:1001400004465443000A120A2E045043A4194219CB
:10015000200CC543AA18120C0125AD03521C5219DC
:1001600012047F39240400D0521C104301D44000F3
:10017000491EC2B20C06C0092018401C4008802A43
:1001800002D003E0002070BD40084000002900DAE2
:100190000020184370BD70B502464A40D50F40009C
:1001A0004A00ED0740085208002814D0002A12D057
:1001B000C40DD30D41020120C0055202490A520A62
:1001C000E41A091812187D34914201D3641C00E02E
:1001D0004900002C01DA002070BD0023914201D3B8
:1001E000891A0343400849000028F7D100290AD0A2
:1001F000914202D10121C90705E0914201D20121BA
:1002000001E00121C943E005C018401900F01CF8C5
:1002100070BD10B500229623114600F01DF810BDE8
:10022000410040020122400AD205090E80187F29B0
:1002300001DA00207047962903DC9622511AC84043
:100240007047963988407047002904DA401C4900FD
:1002500001D140084000704770B40024050C05D15E
:100260001024000402D1002921D01124050E01D14F
:1002700000020834050F01D10001241D850F01D1B2
:100280008000A41C002801DB4000641C002908D069
:1002900020252E1B0D46F540A14000D00121294309
:1002A000084301061B1B000ADB1D02D5002070BCA1
:1002B0007047DB05181880180029F8DA401C49003F
:1002C000F5D170BC4008400070470000064C012585
:1002D000064E05E0E36807CC2B430C3C98471034EE
:1002E000B442F7D3FFF7F0FE44140008641400088A
:1002F00010B5FFF78EFF0649FFF710FF0549FFF71E
:100300004AFF0549FFF70AFFFFF78AFF10BD00000B
:10031000000004420000204700007A44F8B504467B
:1003200000200090206881688907890F012905D184
:100330000168C9072CD1C168090429D48168154A0C
:10034000102611400125002915D1816829438160BB
:10035000124811490068FFF7CBFE00E0401E0090F4
:100360000028FBD100F026FB07460CE000F022FB42
:10037000C01B022807D9606C30436064A06C28431E
:10038000A0640120F8BD20680068C043C007EDD11B
:100390000020F8BD1700008040420F00040000203C
:1003A000F8B505460446403528780026012808D0CF
:1003B00001202870206881688907890F012908D1E8
:1003C00001E00220F8BD0168C9072AD1C16809040B
:1003D00027D4616CFF2201329143022211436164F0
:1003E000816892071143816000F0E4FA07460EE04D
:1003F00000F0E0FAC01B022809D9606C0221884392
:10040000102108436064002028700120F8BD206896
:1004100080680028ECDB606C80088000401C606411
:1004200004E0606C202108436064012600202870ED
:100430003046F8BDF8B500250446403400952278D2
:10044000012A3BD00122227003689E68760776D489
:100450003F4F4E68BE4254D09E6A0F78BA40164352
:100460009E620123826B1B079A421FD0012A1DD076
:10047000022A1BD0032A19D0042A17D0052A15D026
:10048000062A13D0072A11D002688B6856697607AE
:10049000760FB3420AD05369DB08DB005361006872
:1004A00042690B7A5B075B0F1A43426108681028A8
:1004B00006D0112804D0122802D045E00220F8BD51
:1004C000244A9368102809D011280AD00120000678
:1004D000034393600868102806D035E00120C0056A
:1004E000F6E701208005F3E71C481B490068FFF789
:1004F000FFFD0A21484300E0401E00900028FBD188
:1005000022E0986A0E78B2409043986208681028FA
:1005100003D0112801D0122816D10E498A6810285C
:1005200007D0112808D00120000682438A600BE022
:1005300005E00120C005F8E701208005F5E7416CE2
:100540002022114341640125002020702846F8BD77
:10055000011000000027014040420F00040000206D
:100560000068006C70470000F8B5002504460028BC
:1005700003D0606C002802D008E00120F8BD002004
:10058000A06440210855204600F0A8F8606C1022B5
:10059000104270D12068816849076CD4616C1301E6
:1005A000994302231943616481688907890F0129EE
:1005B00005D10168C9070FD1C16809040CD4C1680D
:1005C0001826B143A6683143C16020680169666896
:1005D00089008908314301612068C1683D4E31407E
:1005E000C160A069E1698003C9030843216A4E0321
:1005F0003043666B012E02D00126360300E0002650
:100600003043E66830432669022E08D00026304386
:10061000266B76003043666A012E02D00BE004267A
:10062000F5E7002928D0616C202631436164A16C74
:1006300001263143A164A16A0E46FF3EC23E02D0AC
:10064000E66A314308432168CE680643CE6001263E
:10065000A16B3607B14213D0012911D002290FD066
:1006600003290DD004290BD0052909D0062907D06C
:10067000072905D010E028E0012109040843DAE742
:1006800021684E69F608F6004E6121684E69278F91
:100690007F077F0F3E434E612168C9680E4E31408F
:1006A000814207D10020A064606C80088000401C5B
:1006B000606408E0606C984310436064A06C0121A2
:1006C0000843A06401252846F8BD606C10436064AF
:1006D000F8E700001902FEFFE7FF3F8300B500685E
:1006E0000C4987B0884212D10B48826941150A43F0
:1006F00082618069084005900120009003200190EC
:100700000020029009206946C00600F0A1F807B059
:1007100000BD00000024014000100240F8B504466E
:100720004069254640350E4608280BD02068C06831
:10073000C00709D0606C2021084360640020287045
:100740000120F8BD082700E00C2700F033F90090E5
:1007500011E0701C0FD0002E05D000F02BF900998D
:10076000401AB04207D9606C04210843606400203D
:1007700028700320F8BD206800683842E9D0606C1A
:1007800001214902084360642068C16809058A0F95
:100790000C21002A1AD1226A002A17D102681207F6
:1007A00014D5826853070122002B08DB43688B4372
:1007B0004360606C130298431043606406E0606C11
:1007C000202318436064A06C1043A064A069002833
:1007D00001D1206801600020F8BD000070B504461A
:1007E000216800208968490721D4254640352978A9
:1007F00001291CD001212970E169012904D020467A
:10080000FFF78CFD002811D1616C0A4A1140FF22CC
:100810000132114361640021A164297022681C2106
:10082000116021688A6804231A438A6070BD02201F
:1008300070BD0000FEF1FFFF31B500F0BBF80446CB
:1008400000F0B8F80099001B8842F9D338BD0000C9
:10085000F8B5002393E0224601249C40A4462240A0
:100860007ED04C68022C01D0122C0CD1DC08A400E4
:1008700027183C6A5D07ED0E0F26AE40B4430E69A3
:10088000AE4026433E6205685E000324B4400F7903
:10089000A543BF07BF0FB7402F4307604D68012D29
:1008A00005D0022D03D0112D01D0122D0ED1856857
:1008B000CF68A543B7402F43876047686546AF437D
:1008C0000D79ED06ED0F9D403D434560C568A5439C
:1008D0008C68B4402C43C4604C68E4004ED52B4C6B
:1008E000A56901263543A561A4699D08344000949B
:1008F000274CAD002F19BC689D072E0F0F25B54062
:10090000AC430925ED06A84201D1002514E0214D94
:10091000A84201D101250FE01F4DA84201D10225B7
:100920000AE01E4DA84201D1032505E01C4DA84256
:1009300001D1042500E00525B5402543BD60194CD3
:1009400025684E689543F60300D515432560656814
:100950004E689543B60300D515436560A56800E071
:100960000CE04E689543F60200D51543A560E56896
:100970004E689543B60200D51543E5605B1C0A68D6
:100980001446DA4000D066E7F8BD000000100240CF
:10099000000001400004004800080048000C004826
:1009A0000010004800040140002A01D08161704716
:1009B0008162704701480068704700000000002015
:1009C00002480168491C01607047000000000020D7
:1009D00010B506480168102211430160002000F0A4
:1009E00007F800F017F8002010BD000000200240BA
:1009F00010B5044600F0D8F87D21C900FFF778FB58
:100A000000F016FB00222146501E00F01FF80020C7
:100A100010BD000008B50C488169012211438161B5
:100A200080691040002200901146501F00F00EF81F
:100A300000221146901E00F009F800221146501EB7
:100A400000F004F808BD00000010024010B500F0EE
:100A50007DFB10BDF8B505464E480E460068C00740
:100A6000C00FB0420AD24B480168490849003143DF
:100A700001600068C007C00FB04270D12878464CB2
:100A8000800705D56068F0218843A9680843606045
:100A90002878C00753D06868012817D0022818D0DA
:100AA000032819D021688907002958DA6168890864
:100AB000890001436160FFF77DFF696807460129EE
:100AC00013D002291DD0032927D034E021688903DF
:100AD000EAE721688901E7E7616BC903E4E7FFF70B
:100AE00069FFC11B2D48814223D860680007800F31
:100AF0000128F4D123E0FFF75DFFC11B27488142A5
:100B000017D860680007800F0228F4D117E0FFF7BC
:100B100051FFC11B214881420BD860680007800F3C
:100B20000328F4D10BE0FFF745FFC11B1B488142AE
:100B300001D90320F8BD60680007800FF3D1154884
:100B40000168C907C90FB1420BD9016849084900BA
:100B5000314301600068C007C00FB04201D00120DE
:100B6000F8BD2878400706D5606807210902884348
:100B7000E9680843606000F01DF86168084A0906EA
:100B8000090F515CC840074908600020FFF730FF9B
:100B90000020F8BD00200240001002408813000031
:100BA0002814000804000020014800687047000075
:100BB0000400002030B516A30FCB89B06C460FC4DB
:100BC00017A30FCB0FC41A494A680C2014460440DF
:100BD0001848042C05D0184B082C04D00C2C00D13C
:100BE000184609B030BD9402240F6D462C5DC96AC9
:100BF00004AD0907090FD203695C920F022A02D0E3
:100C0000032A00D11846FFF773FA6043E9E70000B2
:100C100002030405060708090A0B0C0D0E0F10103D
:100C20000102030405060708090A0B0C0D0E0F103C
:100C30000010024000127A00006CDC02FEB504468F
:100C40000078F04EF04DC00748D068680007800F6C
:100C500001281FD068680007800F022804D1686847
:100C6000C003800F022815D06168012919D0012026
:100C70008004002901D0052917D02968B1432960D3
:100C8000296881432960606800281BD0FFF792FE25
:100C9000074613E02868800320D56068002876D0D6
:100CA0001CE0286830432860EDE72968014329608B
:100CB000F7E7FFF77FFEC01B642869D82868800328
:100CC000F7D50BE0FFF776FE074604E0FFF772FE6C
:100CD000C01B6428F1D828688003F7D420788007E7
:100CE0003ED568680007800F14D068680007800F41
:100CF000022804D16868C003800F01280AD0E06888
:100D0000002828681DD0012108432860FFF752FE03
:100D100007460BE0286880070BD5E068012836D12C
:100D200007E0FFF747FEC01B0228C6D828688007E7
:100D3000F7D52868F82188432169C900084328604D
:100D40000EE0400840002860FFF734FE074604E04C
:100D5000FFF730FEC01B0228AFD828688007F7D401
:100D60002078000724D5E0690028686A11D00121A5
:100D700008436862FFF71EFE074604E0FFF71AFE0D
:100D8000C01B022899D8686A8007F7D510E036E1C1
:100D9000D1E0400840006862FFF70CFE074604E01F
:100DA000FFF708FEC01B022887D8686A8007F7D4BF
:100DB000207804274007002861DA00200190E869C4
:100DC000C00008D4E969B8060143E961E969014056
:100DD0000120009101908D480168C90511D4016876
:100DE000821511430160FFF7E5FD009005E0FFF774
:100DF000E1FD0099401A642897D884480068C0052E
:100E0000F5D5A06801280AD0002801D0052811D006
:100E1000286A400840002862286AB84302E0286A2D
:100E2000012108432862A068002812D0FFF7C2FD04
:100E300000900AE0286A38432862F0E7FFF7BAFD1D
:100E40000099411A7248814275D8286A8007F5D501
:100E50000DE0FFF7AFFD009006E0FFF7ABFD009956
:100E6000411A6B48814266D8286A8007F5D40198F8
:100E7000002804D0E969012000078143E961207856
:100E8000C00635D5606901280CD0401D686B24D0A0
:100E900038436863686B400840006863FFF78AFD69
:100EA000074622E0686B38436863686B012108439A
:100EB0006863FFF77FFD074604E0FFF77BFDC01B7B
:100EC000022838D8686B8007F7D5686BF82188430B
:100ED000A169C900084368630AE0B8436863F4E79E
:100EE000FFF768FDC01B022825D8686B8007F7D480
:100EF0002078800637D568680007800F032813D054
:100F000068680007800F022804D16868C003800F5A
:100F1000032809D0206A0028686B16D03043686324
:100F2000FFF748FD06460CE0686BC0031BD5206A3E
:100F3000012864D117E05BE0FFF73CFD801B02282D
:100F400056D8686BC003F7D50DE0B0436863FFF770
:100F500031FD064604E0FFF72DFD801B022847D82F
:100F6000686BC003F7D4606A002846D06968090737
:100F7000890F022943D0012636060228286805D0A9
:100F8000B0432860FFF716FD044633E0B043286005
:100F9000FFF710FD074604E0FFF70CFDC01B022819
:100FA00026D828688001F7D4E86A216B000900017F
:100FB0000843E862A16AE06A084369687B22D203B9
:100FC000914308436860286830432860FFF7F2FCCB
:100FD000044604E0FFF7EEFC001B022808D828684E
:100FE0008001F7D509E0FFF7E5FC001B022801D9D5
:100FF0000320FEBD28688001F5D40020FEBD01203D
:10100000FEBD000000000100001002400070004022
:1010100088130000042204490428086902D0904380
:10102000086170471043FBE700E000E070470000F4
:10103000094910B5401E884201D9012010BD074C56
:1010400060610321081F00F081F80020A0610720E3
:101050002061002010BD0000FFFFFF0000E000E065
:1010600010B5FFF7E3FF10BDFEE700003EB51249E3
:101070001248002412C004600346012104220833F0
:10108000446016C344618461C46144628462C16285
:101090000838FFF769FA002800D0FEE701200003B6
:1010A000019000040290009469460448FFF7C2F9D9
:1010B000002800D0FEE73EBD0024014010000020C3
:1010C000F0B51D4887B04269012149050A434261D4
:1010D00042690A400592426949000A4342614269F5
:1010E0000A400592426949110A4342614069134C22
:1010F0000840134E0590002221463046FFF754FC6D
:10110000104F002204213846FFF74EFC00940024C3
:10111000012501950294694630460394FFF798FB38
:101120000420009002946946019503943846FFF725
:101130008FFB07B0F0BD000000100240FF0F000061
:101140000010004800140048704700008307FF2289
:10115000DB0E9A408907090E994000280BDA000738
:10116000000F0838830808489B001818C369934388
:101170000B43C3617047830804489B001B18186821
:10118000904308431860704700ED00E000E400E081
:1011900070470000FEB504460A21FEF7A9FF0E467F
:1011A00064212046FEF7A4FF08460A21FEF7A0FFAF
:1011B0007D210290C9002046FEF79AFF04460846AA
:1011C0006421FEF795FFC0B20190E0B200900022CA
:1011D00004213E48FFF7E8FB3D4C60693D4DA95DA9
:1011E000084360610721012249022046FFF7DCFB2A
:1011F000FF21002201312046FFF7D6FB0320FFF735
:101200001BFB6069FF2636023040606160690F2772
:101210003F02384360610120FFF70EFB61690298CD
:10122000285C014361610D21012209022046FFF77C
:10123000BBFB0121002249022046FFF7B5FB03203A
:10124000FFF7FAFA606930406061606938436061B5
:101250000120FFF7F1FA61690198285C014361619F
:101260000B21012209022046FFF79EFB01210022EB
:1012700089022046FFF798FB0320FFF7DDFA60693B
:10128000304060616069384360610120FFF7D4FA43
:1012900061690098285C014361610721012209020C
:1012A0002046FFF781FB01210022C9022046FFF7FB
:1012B0007BFB0320FFF7C0FA606930406061606922
:1012C000384360610120FFF7B7FAFEBD0014004803
:1012D0000010004838140008704710B5FFF770FB85
:1012E000FFF7BEFE10BD30B591B011200090012077
:1012F000019005901020069000030A90000102253D
:1013000000240B9009950C946846FFF797FC002881
:1013100000D0FEE707200D900F9401210E95109448
:101320000DA8FFF797FB002800D0FEE7FFF73CFC75
:101330007D21C900FEF7DCFEFFF77AFE0420FFF7EF
:1013400069FE00221146501EFFF780FB11B030BD30
:10135000124801680122114301604168104A11409E
:10136000416001680F4A1140016001680122920446
:101370009143016041683F22120491434160C16A78
:1013800009090901C162016B074A11400163416B00
:101390004908490041630021816070470010024004
:1013A0000CB8FF08FFFFF6FE2CFEFCFF02E008C8A9
:1013B000121F08C1002AFAD170477047002001E0CF
:1013C00001C1121F002AFBD170470000FFF700FB8C
:1013D000FFF789FFFFF774FEFFF748FE1048FEF79E
:1013E000DFFF104C0028207000D0FEE70C48FFF70C
:1013F000F5F92070002800D0FEE703210848FFF728
:101400008DF92070002800D0FEE70548FFF7A8F806
:101410006060FEF76DFF6060FFF7BCFEE6E700006E
:101420001000002008000020000000000000000064
:1014300001020304060708093F065B4F666D7D073E
:101440007F6F0000641400080000002010000000FE
:10145000AC130008741400081000002050040000B1
:10146000BC1300080000000000127A000000000019
:041470000000000078
:04000005080000C12E
:00000001FF
