:020000040800F2
:1000000080040020D5000008850E0008C10D0008FE
:1000100000000000000000000000000000000000E0
:1000200000000000000000000000000015100008A3
:100030000000000000000000CD0E000817100008AE
:10004000E7000008E7000008E7000008E7000008F4
:10005000E7000008E7000008E7000008E7000008E4
:10006000E7000008E7000008E7000008E7000008D4
:10007000E7000008E7000008E7000008E7000008C4
:10008000E7000008E7000008E7000008E7000008B4
:10009000E7000008E7000008E7000008E7000008A4
:1000A000E7000008E7000008E70000083515000831
:1000B000E7000008E7000008E7000008E700000884
:1000C0000348854600F02AF80048004765150008F7
:1000D000800400200448804704480047FEE7FEE70C
:1000E000FEE7FEE7FEE7FEE795100008C100000806
:1000F00030B50B46014600202022012409E00D46C0
:10010000D5409D4205D31D469540491B2546954047
:1001100040191546521E002DF1DC30BD064C01255C
:10012000064E05E0E36807CC2B430C3C984710349F
:10013000B442F7D3FFF7C8FFD8150008F815000838
:1001400031B500F0BBF8044600F0B8F80099001B88
:100150008842F9D338BD0000F8B5002393E0224669
:1001600001249C40A44622407ED04C68022C01D041
:10017000122C0CD1DC08A40027183C6A5D07ED0E98
:100180000F26AE40B4430E69AE4026433E6205687A
:100190005E000324B4400F79A543BF07BF0FB740EB
:1001A0002F4307604D68012D05D0022D03D0112D7E
:1001B00001D0122D0ED18568CF68A543B7402F43DB
:1001C000876047686546AF430D79ED06ED0F9D40AA
:1001D0003D434560C568A5438C68B4402C43C4606A
:1001E0004C68E4004ED52B4CA56901263543A5612A
:1001F000A4699D0834400094274CAD002F19BC68B9
:100200009D072E0F0F25B540AC430925ED06A842EA
:1002100001D1002514E0214DA84201D101250FE0B4
:100220001F4DA84201D102250AE01E4DA84201D16E
:10023000032505E01C4DA84201D1042500E0052559
:10024000B5402543BD60194C25684E689543F603BB
:1002500000D51543256065684E689543B60300D503
:1002600015436560A56800E00CE04E689543F60212
:1002700000D51543A560E5684E689543B60200D5E4
:100280001543E5605B1C0A681446DA4000D066E757
:10029000F8BD0000001002400000014000040048CA
:1002A00000080048000C004800100048000401400D
:1002B000002A01D08161704781627047014800685F
:1002C000704700000000002002480168491C0160DE
:1002D000704700000000002010B506480168102299
:1002E00011430160002000F007F800F017F800202B
:1002F00010BD00000020024010B5044600F072F965
:100300007D21C900FFF7F4FE00F0C0FB002221466A
:10031000501E00F029F8002010BD000008B50C4860
:10032000816901221143816180691040002200909F
:100330001146501F00F018F800221146901E00F0E0
:1003400013F800221146501E00F00EF808BD000000
:1003500000100240C106C90E012088400149086012
:100360007047000000E100E010B500F08DFD10BD09
:10037000F8B504460068434DC00352D5E86900262D
:10038000C00007D4E96928040143E961E969014033
:10039000012600913C480168C90510D40168821506
:1003A00011430160FFF78AFF074604E0FFF786FF6D
:1003B000C01B642824D834480068C005F6D5286AD4
:1003C00003273F02384020D06168394081421CD069
:1003D000286A2A6AB843012109040A432A622A6A60
:1003E0008A432A622862C0070FD0FFF767FF009098
:1003F00008E0FFF763FF0099411A2448814201D9C0
:100400000320F8BD286A8007F3D5286A6168B843DD
:1004100008432862002E04D0E869012109078843B7
:10042000E8612078C00705D0286BA16880088000AB
:10043000084328632078800706D5286B0321090428
:100440008843E168084328632078800605D5286B37
:10045000102188432169084328632068800305D55B
:10046000286B80218843A1690843286320884005C0
:1004700005D5286B40218843616908432863002023
:10048000F8BD00000010024000700040881300001A
:10049000F8B505464E480E460068C007C00FB0428A
:1004A0000AD24B480168490849003143016000689D
:1004B000C007C00FB04270D12878464C800705D5E0
:1004C0006068F0218843A968084360602878C00705
:1004D00053D06868012817D0022818D0032819D0F3
:1004E00021688907002958DA616889088900014371
:1004F0006160FFF7E3FE69680746012913D002290E
:100500001DD0032927D034E021688903EAE7216858
:100510008901E7E7616BC903E4E7FFF7CFFEC11B81
:100520002D48814223D860680007800F0128F4D14C
:1005300023E0FFF7C3FEC11B2748814217D860683C
:100540000007800F0228F4D117E0FFF7B7FEC11BA8
:10055000214881420BD860680007800F0328F4D13E
:100560000BE0FFF7ABFEC11B1B48814201D9032002
:10057000F8BD60680007800FF3D115480168C9070E
:10058000C90FB1420BD901684908490031430160E4
:100590000068C007C00FB04201D00120F8BD287824
:1005A000400706D56068072109028843E9680843C7
:1005B000606000F02DF86168084A0906090F515C77
:1005C000C840074908600020FFF796FE0020F8BDEC
:1005D000002002400010024088130000BE150008F1
:1005E0000C00002001480068704700000C0000204B
:1005F0000448054900684968044A4905490F515CA7
:10060000C84070470C00002000100240CE150008C2
:1006100030B516A30FCB89B06C460FC417A30FCB10
:100620000FC41A494A680C20144604401848042C88
:1006300005D0184B082C04D00C2C00D1184609B05A
:1006400030BD9402240F6D462C5DC96A04AD0907C4
:10065000090FD203695C920F022A02D0032A00D14B
:100660001846FFF745FD6043E9E700000203040573
:10067000060708090A0B0C0D0E0F101001020304E7
:1006800005060708090A0B0C0D0E0F10001002409A
:1006900000127A00006CDC02FEB504460078F04ED1
:1006A000F04DC00748D068680007800F01281FD0B0
:1006B00068680007800F022804D16868C003800FB3
:1006C000022815D06168012919D001208004002971
:1006D00001D0052917D02968B143296029688143D1
:1006E0002960606800281BD0FFF7E8FD074613E08B
:1006F0002868800320D56068002876D01CE0286830
:1007000030432860EDE7296801432960F7E7FFF7E8
:10071000D5FDC01B642869D828688003F7D50BE095
:10072000FFF7CCFD074604E0FFF7C8FDC01B6428B7
:10073000F1D828688003F7D4207880073ED5686810
:100740000007800F14D068680007800F022804D1CA
:100750006868C003800F01280AD0E0680028286874
:100760001DD0012108432860FFF7A8FD07460BE0D4
:10077000286880070BD5E068012836D107E0FFF72D
:100780009DFDC01B0228C6D828688007F7D52868B9
:10079000F82188432169C900084328600EE0400819
:1007A00040002860FFF78AFD074604E0FFF786FD5A
:1007B000C01B0228AFD828688007F7D4207800072C
:1007C00024D5E0690028686A11D0012108436862D5
:1007D000FFF774FD074604E0FFF770FDC01B022819
:1007E00099D8686A8007F7D510E036E1D1E0400873
:1007F00040006862FFF762FD074604E0FFF75EFD18
:10080000C01B022887D8686A8007F7D4207804279D
:100810004007002861DA00200190E869C00008D490
:10082000E969B8060143E961E969014001200091E5
:1008300001908D480168C90511D4016882151143E2
:100840000160FFF73BFD009005E0FFF737FD0099E1
:10085000401A642897D884480068C005F5D5A06878
:1008600001280AD0002801D0052811D0286A4008A4
:1008700040002862286AB84302E0286A0121084340
:100880002862A068002812D0FFF718FD00900AE047
:10089000286A38432862F0E7FFF710FD0099411AF3
:1008A0007248814275D8286A8007F5D50DE0FFF7B8
:1008B00005FD009006E0FFF701FD0099411A6B4825
:1008C000814266D8286A8007F5D40198002804D0B0
:1008D000E969012000078143E9612078C00635D528
:1008E000606901280CD0401D686B24D038436863D0
:1008F000686B400840006863FFF7E0FC074622E0B1
:10090000686B38436863686B012108436863FFF7CD
:10091000D5FC074604E0FFF7D1FCC01B022838D8FD
:10092000686B8007F7D5686BF8218843A169C90017
:10093000084368630AE0B8436863F4E7FFF7BEFC66
:10094000C01B022825D8686B8007F7D42078800662
:1009500037D568680007800F032813D06868000740
:10096000800F022804D16868C003800F032809D0D3
:10097000206A0028686B16D030436863FFF79EFC3E
:1009800006460CE0686BC0031BD5206A012864D1C1
:1009900017E05BE0FFF792FC801B022856D8686BDB
:1009A000C003F7D50DE0B0436863FFF787FC064648
:1009B00004E0FFF783FC801B022847D8686BC00364
:1009C000F7D4606A002846D069680907890F0229B0
:1009D00043D0012636060228286805D0B043286097
:1009E000FFF76CFC044633E0B0432860FFF766FC79
:1009F000074604E0FFF762FCC01B022826D82868DF
:100A00008001F7D4E86A216B000900010843E8621D
:100A1000A16AE06A084369687B22D20391430843D4
:100A20006860286830432860FFF748FC044604E00B
:100A3000FFF744FC001B022808D828688001F7D57E
:100A400009E0FFF73BFC001B022801D90320FEBD93
:100A500028688001F5D40020FEBD0120FEBD000005
:100A600000000100001002400070004088130000E8
:100A7000042204490428086902D0904308617047A1
:100A80001043FBE700E000E070470000094910B5A3
:100A9000401E884201D9012010BD074C606103212E
:100AA000081F00F0F1F90020A0610720206100205C
:100AB00010BD0000FFFFFF0000E000E010B5FFF7F1
:100AC000E3FF10BD7047704770B504460068C16908
:100AD000C90707D00168C90504D501210162E06E8C
:100AE0000843E0662068C16904228B070221002BBD
:100AF00006DA8368DB0703D00162E06E1043E0662C
:100B00002068C3695B0706D58368DB0703D00262F0
:100B1000E06E0843E0662068C169090707D581686F
:100B2000C90704D008210162E06E0843E06620682E
:100B3000C1692546C90220266035002909DA816885
:100B4000490206D5F10301626E72AE722046FFF7CC
:100B5000B9FF2068C169890605D50068800602D5FD
:100B6000204600F06CFB2068C169090605D50068C5
:100B7000000602D5204600F051FC2068C1694906F4
:100B800005D50068400602D5204600F04BFBE06E1C
:100B9000002804D06E72AE722046FFF794FF70BD3D
:100BA00070B5040005D025466035687A002802D06B
:100BB00006E0012070BD00202872204600F026F8D3
:100BC00024206872206801684908490001602046B5
:100BD00000F076FB0128EDD0606A002802D02046A4
:100BE00000F086FA206841680922D20291434160F0
:100BF000206881682A22914381602068016801226F
:100C000011430160204600F0D9FA70BD00B50068BC
:100C1000124987B088421FD1114882690121890396
:100C20000A438261806908400590032040020090D9
:100C300002200190012103200390029104910920D8
:100C40006946C006FFF788FA002211461B20FFF70D
:100C50008BFB1B20FFF77EFB07B000BD0038014077
:100C60000010024070B5034660339C7A202C49D1B5
:100C700000290BD0002A09D0012584682D03AC423D
:100C800006D10669002E03D1CE0701D0012070BD28
:100C90001E7A012E36D001261E7241650146403172
:100CA0000A834A83FF22AC4204D10469002C12D18A
:100CB000154A10E07F25002C08D00122120794422B
:100CC0000AD10269002A04D03F2204E00469002C02
:100CD00001D08D8300E08A830021C16622229A72AE
:100CE00002681468FF2501352C431460026894687B
:100CF0003443946019720068016820221143016036
:100D0000002070BD022070BDFF0100007047FFB5DC
:100D1000064604466036707A81B00D4620284CD1D4
:100D2000002D0AD0002A08D0A168C001814207D155
:100D30002169002904D1E90702D0012005B0F0BDE6
:100D4000317A012939D0012131720021E166212156
:100D50007172274640373A827A82788A0022401E92
:100D6000788280212046049B00F08BFB002816D15E
:100D70000120A1680003814202D12069002810D01F
:100D80002168287808856D1C788A0028E5D1002222
:100D900040212046049B00F074FB002808D003206B
:100DA000CCE728882168C005C00D0885AD1CEBE79D
:100DB0002020707200203072C0E70220BEE770472A
:100DC000FEE70000F0B51D4887B0426901214905E2
:100DD0000A43426142690A400592426949000A4356
:100DE000426142690A400592426949110A434261DF
:100DF0004069134C0840134E0590002221463046AE
:100E0000FFF756FA104F002204213846FFF750FA38
:100E1000009400240125019502946946304603940C
:100E2000FFF79AF904200090029469460195039413
:100E30003846FFF791F907B0F0BD000000100240FE
:100E4000FF0F0000001000480014004810B50C48C7
:100E50000A4901604B21C901416000218160C160E4
:100E600001618161C1610C22016242614162FFF74F
:100E700097FE002800D0FEE710BD000000380140BA
:100E800010000020704700008307FF22DB0E9A400D
:100E90008907090E994000280BDA0007000F08386F
:100EA000830808489B001818C36993430B43C36128
:100EB0007047830804489B001B1818689043084338
:100EC0001860704700ED00E000E400E070470000AB
:100ED000FEB504460A21FFF70BF90E4664212046B1
:100EE000FFF706F908460A21FFF702F97D21029073
:100EF000C9002046FFF7FCF8044608466421FFF7C6
:100F0000F7F8C0B20190E0B20090002204213E4800
:100F1000FFF7CEF93D4C60693D4DA95D0843606126
:100F20000721012249022046FFF7C2F9FF210022D2
:100F300001312046FFF7BCF90320FFF701F9606992
:100F4000FF2636023040606160690F273F02384358
:100F500060610120FFF7F4F861690298285C0143A1
:100F600061610D21012209022046FFF7A1F901214B
:100F7000002249022046FFF79BF90320FFF7E0F823
:100F80006069304060616069384360610120FFF74B
:100F9000D7F861690198285C014361610B21012246
:100FA00009022046FFF784F9012100228902204628
:100FB000FFF77EF90320FFF7C3F8606930406061F6
:100FC0006069384360610120FFF7BAF861690098F1
:100FD000285C014361610721012209022046FFF7D5
:100FE00067F901210022C9022046FFF761F90320B9
:100FF000FFF7A6F86069304060616069384360615E
:101000000120FFF79DF8FEBD0014004800100048C5
:10101000B4150008704710B5FFF756F9FFF74EFDFD
:1010200010BD70B598B00125009528040A9001956F
:101030000001022600240B9009960C946846FFF7E5
:101040002BFB002800D0FEE707200D900F94012114
:101050000E9610940DA8FFF71BFA002800D0FEE7AB
:1010600011A811951394FFF783F9002800D0FEE72B
:10107000FFF7B8FA7D21C900FFF73AF8FFF706FD40
:101080000420FFF7F5FC00221146501EFFF76CF913
:1010900018B070BD12480168012211430160416817
:1010A000104A1140416001680F4A11400160016817
:1010B000012292049143016041683F22120491434E
:1010C0004160C16A09090901C162016B074A114007
:1010D0000163416B49084900416300218160704709
:1010E000001002400CB8FF08FFFFF6FE2CFEFCFFCC
:1010F00010B5818CC90707D001684A6801235B04D9
:101100009A43836A1A434A60818C890707D501682C
:101110004A6801231B049A43C36A1A434A60818CBC
:10112000490707D501684A6801239B049A43036B6A
:101130001A434A60818C090707D501684A68012370
:10114000DB039A43436B1A434A60818CC90607D577
:101150000268916801231B039943836B19439160D3
:10116000818C890607D501688A6801235B039A434D
:10117000C36B1A438A60818C490612D503685A688A
:1011800001210905046C8A4322435A60026C8A4299
:1011900007D10268516803235B059943436C1943E7
:1011A0005160818C090607D501684A680123DB0478
:1011B000806C9A4302434A6010BD000070B5002560
:1011C0000446C56600681449884202D01349884223
:1011D0001BD10068124E000708D5012133460022BA
:1011E0004905204600F04DF900280CD12068006820
:1011F00040070AD50121334600228905204600F028
:1012000040F9002801D0032070BD202060346072B6
:10121000A0722572002070BD0038014000440040DB
:10122000E803000010B501680A6840239A430A6089
:10123000202269210A54FFF7C2FD002010BD70B5BD
:101240000246403203466033948B9D7A0168222D1A
:1012500005D08869082210438861022070BD0126EC
:1012600085683603B54202D10569002D0CD08D8CFE
:10127000416D25404C1C44650D70518B491E09047D
:10128000090C518308D019E0898C456D21402980D3
:10129000416D891C4165F0E70268146820218C4388
:1012A000146002681468CD00AC431460026894684E
:1012B0006408640094609972FFF728FD002070BDF7
:1012C000F8B504462369A268E5691A4363691020EA
:1012D0002B43002125681A432B680E46474F3B409D
:1012E00013432B6023685A6803252D03AA43E5683E
:1012F0002A435A60236AA26925681A43AB680B2700
:101300003F02BB431343AB603D4F25683D4B020397
:10131000BD420AD11B6B9B079B0F20D0012B14D021
:10132000022B14D0032B1BD10DE0374FBD4210D13F
:101330001B6B03273F043B4011D09B1A05D09B1A1F
:1013400005D093420CD102200AE0042008E00820D6
:1013500006E02E4B9D4202D02D4B9D4200D1002035
:101360000123E769DB039F4222D100280CD0022829
:101370000DD0042813D0082817D001260A0912011D
:101380000807400F10432EE0FFF732F909E06168CB
:10139000204A48088018FEF7ABFE81B2EEE7FFF75F
:1013A00037F9616840004A08F4E761684808F1E7E6
:1013B000002808D0022809D004280CD0082815D00D
:1013C00001263046F8BDFFF713F906E06168124ABE
:1013D000480880180DE0FFF71BF961684A0880187B
:1013E000FEF786FE80B22168C860EAE761684808B7
:1013F000C018FEF77DFE80B2E860E2E7F369FFEF18
:101400000038014000100240004400400048004005
:10141000004C00400024F40000127A006921095CAD
:10142000212901D00220704702464032518A00290A
:1014300012D0012381681B03994202D1016900295E
:1014400015D0C16C4B1CC364006809780185508AB3
:10145000401E50820020704701680A6880239A432A
:101460000A6000680168402211430160F2E7C16C24
:1014700003680988C905C90D1985C16C891CC16437
:10148000E5E7F8B51E4615460F460446FEF716FF7B
:10149000294625466035009000291AD043E0701C8B
:1014A00017D0002E05D0FEF709FF0099401AB04270
:1014B0000FD92068026880218A43026021680A6887
:1014C000202082430A6021680B68C20093430B60AE
:1014D0001EE02068C16938468843E0D128E0701CCE
:1014E00021D0002E05D0FEF7E9FE0099401AB04247
:1014F00019D92068016880229143016021680A6837
:10150000202082430A6021680A68C3009A430A6067
:1015100021688A68520852008A606872A8720020A6
:1015200028720320F8BD2068C16938468843D6D0A8
:101530000020F8BD10B50248FFF7C6FA10BD000044
:101540001000002002E008C8121F08C1002AFAD1CA
:1015500070477047002001E001C1121F002AFBD133
:1015600070470000FEF7B8FEFFF75BFDFFF72AFCAF
:10157000FFF76CFC0D4C0D490122491C0C48FFF78C
:1015800071FB60606078FFF7A3FC2078FF2808D229
:10159000401C20700523012204490548FFF7B7FBD2
:1015A00060600A20FEF7CCFDE5E7000004000020A3
:1015B000100000203F065B4F666D7D077F6F0000C7
:1015C00000000000000001020304060708090000F3
:1015D0000000010203040000F815000800000020CC
:1015E0001000000044150008081600081000002034
:1015F0007004000054150008000000000000000006
:081600000000000000127A0056
:04000005080000C12E
:00000001FF
