:020000040800F2
:1000000060040020D5000008A51100087910000840
:1000100000000000000000000000000000000000E0
:100020000000000000000000000000003513000880
:100030000000000000000000ED1100083713000868
:10004000E7000008E7000008E7000008E7000008F4
:10005000E7000008E7000008E7000008E7000008E4
:10006000E7000008E7000008E7000008E7000008D4
:1000700069010008E7000008E7000008E700000841
:10008000E7000008E7000008E7000008E7000008B4
:10009000E7000008E7000008E7000008E7000008A4
:1000A000E7000008E7000008E7000008E700000894
:1000B000E7000008E7000008E7000008E700000884
:1000C0000348854600F03EF8004800472914000820
:1000D000600400200448804704480047FEE7FEE72C
:1000E000FEE7FEE7FEE7FEE7AD130008C1000008EB
:1000F00030B50B46014600202022012409E00D46C0
:10010000D5409D4205D31D469540491B2546954047
:1001100040191546521E002DF1DC30BD70B500248B
:100120002546002801DA01244042002901DA012590
:100130004942FFF7DDFFAC4200D04042002C00D026
:10014000494270BD064C0125064E05E0E36807CC28
:100150002B430C3C98471034B442F7D3FFF7B4FF5D
:10016000C4140008E414000810B50121002249035A
:10017000034800F017FC034800F08FF910BD0000A1
:10018000000800481400002010B50748026807481E
:10019000018B501A50225043044A20325288511A7F
:1001A000FFF7BCFF1E3010BD40240140A0F7FF1F29
:1001B000F8B5044600200090206881688907890FFF
:1001C000012905D10168C9072CD1C168090429D4C6
:1001D0008168154A102611400125002915D1816832
:1001E00029438160124811490068FFF781FF00E050
:1001F000401E00900028FBD100F0DAFB07460CE01F
:1002000000F0D6FBC01B022807D9606C3043606445
:10021000A06C2843A0640120F8BD20680068C0439A
:10022000C007EDD10020F8BD1700008040420F004C
:1002300010000020F8B50546044640352878002611
:10024000012808D001202870206881688907890F5B
:10025000012908D101E00220F8BD0168C9072AD1AF
:10026000C168090427D4616CFF2201329143022244
:1002700011436164816892071143816000F098FB2B
:1002800007460EE000F094FBC01B022809D9606C01
:100290000221884310210843606400202870012057
:1002A000F8BD206880680028ECDB606C8008800066
:1002B000401C606404E0606C2021084360640126F7
:1002C000002028703046F8BDF0B502464032137861
:1002D0000024012B35D00123137003689D686D073E
:1002E00033D4DD681D4E3540DD600368DD680E687F
:1002F00035430E79B6063543DD6003688E89DD68C7
:10030000ED06AD0F6D00AE40B4460D69DE68F60631
:10031000B60F7600B5401E6A114F3E401E6203685C
:100320001F6A664636042E4337431F6205688023E2
:100330002B60896800680129416804D099434160B5
:1003400008E00220F0BD1943F9E7416C202319436E
:1003500041640124002010702046F0BDFFFF3F8360
:1003600000F000F0F8B500250446403400952278EE
:10037000012A3BD00122227003689E68760776D45A
:100380003F4F4E68BE4254D09E6A0F78BA40164323
:100390009E620123826B1B079A421FD0012A1DD047
:1003A000022A1BD0032A19D0042A17D0052A15D0F7
:1003B000062A13D0072A11D002688B68566976077F
:1003C000760FB3420AD05369DB08DB005361006843
:1003D00042690B7A5B075B0F1A4342610868102879
:1003E00006D0112804D0122802D045E00220F8BD22
:1003F000244A9368102809D011280AD00120000649
:10040000034393600868102806D035E00120C0053A
:10041000F6E701208005F3E71C481B490068FFF759
:1004200067FE0A21484300E0401E00900028FBD1EF
:1004300022E0986A0E78B2409043986208681028CB
:1004400003D0112801D0122816D10E498A6810282D
:1004500007D0112808D00120000682438A600BE0F3
:1004600005E00120C005F8E701208005F5E7416CB3
:100470002022114341640125002020702846F8BD48
:10048000011000000027014040420F001000002032
:10049000704770470068006C704770B5044600688C
:1004A0000168490702D54168490705D40168090771
:1004B00030D5416809072DD5616CC90604D4616C3B
:1004C0000122520211436164C1680C250905890F9C
:1004D00000291AD1216A002917D10168090714D50A
:1004E00081684A070121002A08DB4268AA4342606A
:1004F000606C0A0290430843606406E0606C20224E
:1005000010436064A06C0843A0642046FFF7C0FF5E
:10051000206805602068016809060DD5406800065E
:100520000AD5606C0121090408436064204600F08C
:10053000D7F821688020086020680168C90613D5B3
:100540004168C90610D5616B1025012902D0C16828
:10055000C90707D0A16C02221143A164056020469F
:10056000FFF797FF2068056070BD0000F8B5002513
:100570000446002803D0606C002802D008E0012067
:10058000F8BD0020A06440210855204600F0AAF8DC
:10059000606C1022104270D12068816849076CD4C9
:1005A000616C1301994302231943616481688907CF
:1005B000890F012905D10168C9070FD1C168090454
:1005C0000CD4C1681826B143A6683143C1602068C5
:1005D0000169666889008908314301612068C16842
:1005E0003D4E3140C160A069E1698003C903084301
:1005F000216A4E033043666B012E02D0012636037A
:1006000000E000263043E66830432669022E08D019
:1006100000263043266B76003043666A012E02D0F6
:100620000BE00426F5E7002928D0616C2026314331
:100630006164A16C01263143A164A16A0E46FF3EAC
:10064000C23E02D0E66A314308432168CE680643C1
:10065000CE600126A16B3607B14213D0012911D01B
:1006600002290FD003290DD004290BD0052909D068
:10067000062907D0072905D010E028E00121090448
:100680000843DAE721684E69F608F6004E612168F2
:100690004E69278F7F077F0F3E434E612168C968EF
:1006A0000E4E3140814207D10020A064606C80086A
:1006B0008000401C606408E0606C984310436064F4
:1006C000A06C01210843A06401252846F8BD606C98
:1006D00010436064F8E700001902FEFFE7FF3F8364
:1006E0007047000008B50068094988420FD10948E1
:1006F000826941150A4382618069002208400090A6
:1007000011460C2000F0AAF90C2000F09DF908BD5C
:100710000024014000100240F8B504464069254617
:1007200040350E4608280BD02068C068C00709D0A5
:10073000606C202108436064002028700120F8BD0F
:10074000082700E00C2700F033F9009011E0701C3E
:100750000FD0002E05D000F02BF90099401AB042BE
:1007600007D9606C042108436064002028700320CE
:10077000F8BD206800683842E9D0606C0121490268
:10078000084360642068C16809058A0F0C21002AAB
:100790001AD1226A002A17D10268120714D582687A
:1007A00053070122002B08DB43688B434360606CD6
:1007B000130298431043606406E0606C20231843E2
:1007C0006064A06C1043A064A069002801D1206877
:1007D00001600020F8BD000070B5044621680020CB
:1007E0008968490721D425464035297801291CD03C
:1007F00001212970E169012904D02046FFF7D8FCC6
:10080000002811D1616C0A4A1140FF2201321143C4
:1008100061640021A164297022681C211160216893
:100820008A6804231A438A6070BD022070BD0000EC
:10083000FEF1FFFF31B500F0BBF8044600F0B8F858
:100840000099001B8842F9D338BD0000F8B5002399
:1008500093E0224601249C40A44622407ED04C686E
:10086000022C01D0122C0CD1DC08A40027183C6A01
:100870005D07ED0E0F26AE40B4430E69AE40264331
:100880003E6205685E000324B4400F79A543BF07AC
:10089000BF0FB7402F4307604D68012D05D0022DD3
:1008A00003D0112D01D0122D0ED18568CF68A5433C
:1008B000B7402F43876047686546AF430D79ED0623
:1008C000ED0F9D403D434560C568A5438C68B4402D
:1008D0002C43C4604C68E4004ED52B4CA56901261E
:1008E0003543A561A4699D0834400094274CAD00B0
:1008F0002F19BC689D072E0F0F25B540AC43092565
:10090000ED06A84201D1002514E0214DA84201D1F5
:1009100001250FE01F4DA84201D102250AE01E4D1E
:10092000A84201D1032505E01C4DA84201D10425B0
:1009300000E00525B5402543BD60194C25684E688B
:100940009543F60300D51543256065684E689543C9
:10095000B60300D515436560A56800E00CE04E685D
:100960009543F60200D51543A560E5684E689543AA
:10097000B60200D51543E5605B1C0A681446DA40F0
:1009800000D066E7F8BD0000001002400000014002
:100990000004004800080048000C0048001000480F
:1009A00000040140002A01D08161704781627047D4
:1009B00001480068704700000C00002002480168F0
:1009C000491C0160704700000C00002010B506486B
:1009D0000168102211430160002000F007F800F0C8
:1009E00017F8002010BD00000020024010B504469A
:1009F00000F0E2F87D21C900FFF77AFB00F020FB50
:100A000000222146501E00F029F8002010BD0000F1
:100A100008B50C4881690122114381618069104049
:100A2000002200901146501F00F018F800221146D5
:100A3000901E00F013F800221146501E00F00EF830
:100A400008BD000000100240C106C90E0120884008
:100A5000014908607047000000E100E010B500F0B7
:100A6000A3FB10BDF8B505464E480E460068C0070A
:100A7000C00FB0420AD24B480168490849003143CF
:100A800001600068C007C00FB04270D12878464CA2
:100A9000800705D56068F0218843A9680843606035
:100AA0002878C00753D06868012817D0022818D0CA
:100AB000032819D021688907002958DA6168890854
:100AC000890001436160FFF773FF696807460129E8
:100AD00013D002291DD0032927D034E021688903CF
:100AE000EAE721688901E7E7616BC903E4E7FFF7FB
:100AF0005FFFC11B2D48814223D860680007800F2B
:100B00000128F4D123E0FFF753FFC11B274881429E
:100B100017D860680007800F0228F4D117E0FFF7AC
:100B200047FFC11B214881420BD860680007800F36
:100B30000328F4D10BE0FFF73BFFC11B1B488142A8
:100B400001D90320F8BD60680007800FF3D1154874
:100B50000168C907C90FB1420BD9016849084900AA
:100B6000314301600068C007C00FB04201D00120CE
:100B7000F8BD2878400706D5606807210902884338
:100B8000E9680843606000F01DF86168084A0906DA
:100B9000090F515CC840074908600020FFF726FF95
:100BA0000020F8BD00200240001002408813000021
:100BB000B2140008100000200148006870470000CF
:100BC0001000002030B516A30FCB89B06C460FC4BF
:100BD00017A30FCB0FC41A494A680C2014460440CF
:100BE0001848042C05D0184B082C04D00C2C00D12C
:100BF000184609B030BD9402240F6D462C5DC96AB9
:100C000004AD0907090FD203695C920F022A02D0D2
:100C1000032A00D11846FFF76BFA6043E9E70000AA
:100C200002030405060708090A0B0C0D0E0F10102D
:100C30000102030405060708090A0B0C0D0E0F102C
:100C40000010024000127A00006CDC02FEB504467F
:100C50000078F04EF04DC00748D068680007800F5C
:100C600001281FD068680007800F022804D1686837
:100C7000C003800F022815D06168012919D0012016
:100C80008004002901D0052917D02968B1432960C3
:100C9000296881432960606800281BD0FFF788FE1F
:100CA000074613E02868800320D56068002876D0C6
:100CB0001CE0286830432860EDE72968014329607B
:100CC000F7E7FFF775FEC01B642869D82868800322
:100CD000F7D50BE0FFF76CFE074604E0FFF768FE70
:100CE000C01B6428F1D828688003F7D420788007D7
:100CF0003ED568680007800F14D068680007800F31
:100D0000022804D16868C003800F01280AD0E06877
:100D1000002828681DD0012108432860FFF748FEFD
:100D200007460BE0286880070BD5E068012836D11C
:100D300007E0FFF73DFEC01B0228C6D828688007E1
:100D4000F7D52868F82188432169C900084328603D
:100D50000EE0400840002860FFF72AFE074604E046
:100D6000FFF726FEC01B0228AFD828688007F7D4FB
:100D70002078000724D5E0690028686A11D0012195
:100D800008436862FFF714FE074604E0FFF710FE11
:100D9000C01B022899D8686A8007F7D510E036E1B1
:100DA000D1E0400840006862FFF702FE074604E019
:100DB000FFF7FEFDC01B022887D8686A8007F7D4BA
:100DC000207804274007002861DA00200190E869B4
:100DD000C00008D4E969B8060143E961E969014046
:100DE0000120009101908D480168C90511D4016866
:100DF000821511430160FFF7DBFD009005E0FFF76E
:100E0000D7FD0099401A642897D884480068C00527
:100E1000F5D5A06801280AD0002801D0052811D0F6
:100E2000286A400840002862286AB84302E0286A1D
:100E3000012108432862A068002812D0FFF7B8FDFE
:100E400000900AE0286A38432862F0E7FFF7B0FD17
:100E50000099411A7248814275D8286A8007F5D5F1
:100E60000DE0FFF7A5FD009006E0FFF7A1FD00995A
:100E7000411A6B48814266D8286A8007F5D40198E8
:100E8000002804D0E969012000078143E961207846
:100E9000C00635D5606901280CD0401D686B24D090
:100EA00038436863686B400840006863FFF780FD63
:100EB000074622E0686B38436863686B012108438A
:100EC0006863FFF775FD074604E0FFF771FDC01B7F
:100ED000022838D8686B8007F7D5686BF8218843FB
:100EE000A169C900084368630AE0B8436863F4E78E
:100EF000FFF75EFDC01B022825D8686B8007F7D47A
:100F00002078800637D568680007800F032813D043
:100F100068680007800F022804D16868C003800F4A
:100F2000032809D0206A0028686B16D03043686314
:100F3000FFF73EFD06460CE0686BC0031BD5206A38
:100F4000012864D117E05BE0FFF732FD801B022827
:100F500056D8686BC003F7D50DE0B0436863FFF760
:100F600027FD064604E0FFF723FD801B022847D833
:100F7000686BC003F7D4606A002846D06968090727
:100F8000890F022943D0012636060228286805D099
:100F9000B0432860FFF70CFD044633E0B0432860FF
:100FA000FFF706FD074604E0FFF702FDC01B02281D
:100FB00026D828688001F7D4E86A216B000900016F
:100FC0000843E862A16AE06A084369687B22D203A9
:100FD000914308436860286830432860FFF7E8FCC5
:100FE000044604E0FFF7E4FC001B022808D8286848
:100FF0008001F7D509E0FFF7DBFC001B022801D9CF
:101000000320FEBD28688001F5D40020FEBD01202C
:10101000FEBD000000000100001002400070004012
:1010200088130000042204490428086902D0904370
:10103000086170471043FBE700E000E070470000E4
:10104000094910B5401E884201D9012010BD074C46
:1010500060610321081F00F0A7F80020A0610720AD
:101060002061002010BD0000FFFFFF0000E000E055
:1010700010B5FFF7E3FF10BDFEE7000030B51D48D7
:1010800089B01B490160002141608160C1608161BC
:10109000C161016241620124C162046104224463AE
:1010A00042610163FFF762FA002800D0FEE71025D5
:1010B0002802069007200790059505A90D48FFF71F
:1010C00051F9002800D0FEE70320800500900A486F
:1010D0000390094801953738049002946946054801
:1010E000FFF7F2F8002800D0FEE709B030BD00009D
:1010F000002401401400002014070000F0B524482B
:1011000087B04269012149050A43426142690A40A8
:101110000592426989100A43426142690A40059278
:101120004269C9000A43426140691A4C08401A4F9B
:101130000590002221463846FFF734FC012676034D
:10114000002231461548FFF72DFC002204211448E7
:10115000FFF728FC009400240125019502946946BC
:1011600038460394FFF772FB029469460B480096D9
:1011700001950394FFF76AFB0420009002946946EE
:10118000019503940648FFF761FB07B0F0BD00002E
:1011900000100240FF0F0000001000480008004847
:1011A00000140048704700008307FF22DB0E9A40BE
:1011B0008907090E994000280BDA0007000F08384C
:1011C000830808489B001818C36993430B43C36105
:1011D0007047830804489B001B1818689043084315
:1011E0001860704700ED00E000E400E07047000088
:1011F000FEB504460A21FEF77BFF0E466421204619
:10120000FEF776FF08460A21FEF772FF7D21029065
:10121000C9002046FEF76CFF044608466421FEF72D
:1012200067FFC0B20190E0B20090002204213E4866
:10123000FFF7B8FB3D4C60693D4DA95D0843606117
:101240000721012249022046FFF7ACFBFF210022C3
:1012500001312046FFF7A6FB0320FFF7EBFA606998
:10126000FF2636023040606160690F273F02384335
:1012700060610120FFF7DEFA61690298285C014392
:1012800061610D21012209022046FFF78BFB01213C
:10129000002249022046FFF785FB0320FFF7CAFA28
:1012A0006069304060616069384360610120FFF728
:1012B000C1FA61690198285C014361610B21012237
:1012C00009022046FFF76EFB012100228902204619
:1012D000FFF768FB0320FFF7ADFA606930406061FB
:1012E0006069384360610120FFF7A4FA61690098E2
:1012F000285C014361610721012209022046FFF7B2
:1013000051FB01210022C9022046FFF74BFB0320BD
:10131000FFF790FA6069304060616069384360614E
:101320000120FFF787FAFEBD0014004800100048B6
:10133000A8140008704710B5FFF740FBFFF798FEB0
:1013400010BD30B591B011200090012001900590A2
:101350001020069000030A900001022500240B9043
:1013600009950C946846FFF771FC002800D0FEE751
:1013700007200D900F9401210E9510940DA8FFF7F2
:1013800071FB002800D0FEE7FFF716FC7D21C900A5
:10139000FEF7AEFEFFF754FE0420FFF743FE0022E7
:1013A0001146501EFFF75AFB11B030BD12480168BC
:1013B0000122114301604168104A114041600168F7
:1013C0000F4A1140016001680122920491430160BB
:1013D00041683F22120491434160C16A0909090131
:1013E000C162016B074A11400163416B4908490022
:1013F0004163002181607047001002400CB8FF0873
:10140000FFFFF6FE2CFEFCFF02E008C8121F08C119
:10141000002AFAD170477047002001E001C1121F75
:10142000002AFBD170470000FFF7D0FAFFF789FFD1
:10143000FFF764FEFFF722FE1848FEF7FBFE184C8C
:101440000028207000D0FEE70125164E6D031348DA
:10145000FFF7C2F92070002800D0FEE703210F48F3
:10146000FFF75AF92070002800D0FEE70120FFF7AF
:10147000E1F90A48FFF70EF86060FEF785FE411EAD
:101480006060632901D9A06800E0A060FFF7B0FEAA
:10149000012229463046FFF785FAD8E714000020DC
:1014A00000000020000800483F065B4F666D7D0786
:1014B0007F6F000000000000000001020304060727
:1014C00008090000E41400080000002014000000D7
:1014D00008140008F8140008140000204C04000050
:1014E00018140008000000000000000000000000C8
:0814F0000000000000127A0068
:04000005080000C12E
:00000001FF
