:020000040800F2
:1000000060040020D5000008BD110008790E00082A
:1000100000000000000000000000000000000000E0
:100020000000000000000000000000004D13000868
:100030000000000000000000051200084F13000837
:10004000E7000008E7000008E7000008E7000008F4
:10005000E7000008E7000008E7000008E7000008E4
:10006000E7000008E7000008E7000008E7000008D4
:10007000E7000008E7000008E7000008E7000008C4
:10008000E7000008E7000008E7000008E7000008B4
:10009000E7000008E7000008E7000008E7000008A4
:1000A000E7000008E7000008E7000008E700000894
:1000B000E7000008E7000008E7000008E700000884
:1000C0000348854600F02AF8004800475514000808
:1000D000600400200448804704480047FEE7FEE72C
:1000E000FEE7FEE7FEE7FEE7D9130008C1000008BF
:1000F00030B50B46014600202022012409E00D46C0
:10010000D5409D4205D31D469540491B2546954047
:1001100040191546521E002DF1DC30BD064C01255C
:10012000064E05E0E36807CC2B430C3C984710349F
:10013000B442F7D3FFF7C8FFD4140008F414000842
:1001400031B500F0BBF8044600F0B8F80099001B88
:100150008842F9D338BD0000F8B5002393E0224669
:1001600001249C40A44622407ED04C68022C01D041
:10017000122C0CD1DC08A40027183C6A5D07ED0E98
:100180000F26AE40B4430E69AE4026433E6205687A
:100190005E000324B4400F79A543BF07BF0FB740EB
:1001A0002F4307604D68012D05D0022D03D0112D7E
:1001B00001D0122D0ED18568CF68A543B7402F43DB
:1001C000876047686546AF430D79ED06ED0F9D40AA
:1001D0003D434560C568A5438C68B4402C43C4606A
:1001E0004C68E4004ED52B4CA56901263543A5612A
:1001F000A4699D0834400094274CAD002F19BC68B9
:100200009D072E0F0F25B540AC430925ED06A842EA
:1002100001D1002514E0214DA84201D101250FE0B4
:100220001F4DA84201D102250AE01E4DA84201D16E
:10023000032505E01C4DA84201D1042500E0052559
:10024000B5402543BD60194C25684E689543F603BB
:1002500000D51543256065684E689543B60300D503
:1002600015436560A56800E00CE04E689543F60212
:1002700000D51543A560E5684E689543B60200D5E4
:100280001543E5605B1C0A681446DA4000D066E757
:10029000F8BD0000001002400000014000040048CA
:1002A00000080048000C004800100048000401400D
:1002B000002A01D08161704781627047014800685F
:1002C000704700000000002070B5024640325378AD
:1002D000202B1CD11378012B19D001231370242457
:1002E0005470046825689D432560046825681E03D2
:1002F000B5432560046825680D43256000680168E2
:1003000019430160202050700020107070BD022041
:1003100070BD000070B5040006D0254640356878F1
:100320000026002802D005E0012070BD2E70204676
:1003300000F09AF924206870206801684908490093
:1003400001600F2160680906884321680861206800
:1003500082680121C9038A438260A068002807D00F
:10036000E268012A01D021218902084321688860BE
:10037000E068022802D12168800248602068416854
:100380000D4A11434160616920690843A16909026E
:1003900008432168C860216AE06908432168086051
:1003A00020680168012211430160666420206870A2
:1003B0002663AE70002070BD00800002FFB50546C8
:1003C00004464035687883B0202873D10C98002803
:1003D00071D00D9800286ED0287801286AD00120AD
:1003E0002870FFF76BFF0746012200901923D10305
:1003F000204600F009FE002876D1222068704020B7
:10040000A870002666640C9860620D98608566632B
:100410000E980090019704A90EC9204600F078FDBF
:10042000002804D0606C2E70042860D05CE0618DE0
:1004300009208002FF2905D9FF22228501231B06FE
:10044000009006E0618D21850090208D0123C2B2CD
:100450005B062046049900F0C5FD009700220421A8
:1004600020460E9B00F0D0FD00283DD12068416A57
:10047000606A421C62620170208D401E81B221853B
:10048000608D401E6085002921D1608D00281ED01E
:1004900000970022802120460E9B00F0B5FD002829
:1004A00022D1608DFF2807D9FF22228501231B0658
:1004B000009608E02AE01AE0608D20850096208DE5
:1004C0000123C2B25B062046049900F08BFD608DCB
:1004D0000028C2D13A4620460E9900F0B9FD002806
:1004E00007D0606C042802D0032007B0F0BD0120C3
:1004F000FBE721682020C86121684A68044B1A4044
:100500004A606870AE702E700020EEE70220ECE7C3
:1005100000E800FEFFB5054604464035687883B024
:10052000202876D10C98002874D00D98002871D01E
:10053000287801286DD001202870FFF7BFFE0746FC
:10054000012200901923D103204600F05DFD002810
:1005500053D1212068704020A870002666640C9852
:1005600060620D98608566630E980090019704A9FB
:100570000EC9204600F001FD002804D0606C2E70EA
:1005800004286AD039E0608DFF2805D9FF22228532
:1005900001231B06009606E0608D20850096208DC5
:1005A0000123C2B25B062046049900F01BFD3A46C7
:1005B00020460E9900F073FD002803D0606C0428DB
:1005C0004BD01AE0606A411C616221680078886241
:1005D000608D401E6085208D401E0004000C20852B
:1005E00024D1608D002821D0009700228021204650
:1005F0000E9B00F009FD002802D0032007B0F0BDDB
:10060000608DFF2807D9FF22228501231B06009653
:1006100008E024E021E0608D20850096208D0123F4
:10062000C2B25B062046049900F0DCFC608D002815
:10063000BDD13A4620460E9900F00AFD0028BDD1F2
:1006400020682021C16120684268064B1A40426040
:100650006970AE702E700020D0E70120CEE7022036
:10066000CCE7000000E800FE00B500680D4987B047
:10067000884215D1C0200090122001210190032052
:1006800002910491039069460748FFF765FD07480A
:10069000C269012149050A43C261C0690840059049
:1006A00007B000BD005400400004004800100240A4
:1006B00002480168491C01607047000000000020EA
:1006C00010B506480168102211430160002000F0B7
:1006D00007F800F017F8002010BD000000200240CD
:1006E00010B5044600F068F97D21C900FFF700FD50
:1006F00000F0A6FB00222146501E00F01FF800204B
:1007000010BD000008B50C488169012211438161C8
:1007100080691040002200901146501F00F00EF832
:1007200000221146901E00F009F800221146501ECA
:1007300000F004F808BD00000010024010B500F001
:100740003FFD10BDF8B504460068434DC00352D5C7
:10075000E8690026C00007D4E96928040143E9617B
:10076000E9690140012600913C480168C90510D49F
:100770000168821511430160FFF7A0FD074604E000
:10078000FFF79CFDC01B642824D834480068C005CE
:10079000F6D5286A03273F02384020D061683940E7
:1007A00081421CD0286A2A6AB843012109040A43FD
:1007B0002A622A6A8A432A622862C0070FD0FFF79A
:1007C0007DFD009008E0FFF779FD0099411A24486B
:1007D000814201D90320F8BD286A8007F3D5286A31
:1007E0006168B84308432862002E04D0E8690121FB
:1007F00009078843E8612078C00705D0286BA16805
:1008000080088000084328632078800706D5286B7D
:10081000032109048843E16808432863207880069F
:1008200005D5286B10218843216908432863206877
:10083000800305D5286B80218843A169084328637C
:100840002088400505D5286B40218843616908430D
:1008500028630020F8BD0000001002400070004036
:1008600088130000F8B505464E480E460068C007DC
:10087000C00FB0420AD24B480168490849003143D1
:1008800001600068C007C00FB04270D12878464CA4
:10089000800705D56068F0218843A9680843606037
:1008A0002878C00753D06868012817D0022818D0CC
:1008B000032819D021688907002958DA6168890856
:1008C000890001436160FFF7F9FC69680746012967
:1008D00013D002291DD0032927D034E021688903D1
:1008E000EAE721688901E7E7616BC903E4E7FFF7FD
:1008F000E5FCC11B2D48814223D860680007800FAA
:100900000128F4D123E0FFF7D9FCC11B274881421D
:1009100017D860680007800F0228F4D117E0FFF7AE
:10092000CDFCC11B214881420BD860680007800FB5
:100930000328F4D10BE0FFF7C1FCC11B1B48814227
:1009400001D90320F8BD60680007800FF3D1154876
:100950000168C907C90FB1420BD9016849084900AC
:10096000314301600068C007C00FB04201D00120D0
:10097000F8BD2878400706D560680721090288433A
:10098000E9680843606000F01DF86168084A0906DC
:10099000090F515CC840074908600020FFF7A0FE1E
:1009A0000020F8BD00200240001002408813000023
:1009B000C21400080C0000200148006870470000C5
:1009C0000C00002030B516A30FCB89B06C460FC4C5
:1009D00017A30FCB0FC41A494A680C2014460440D1
:1009E0001848042C05D0184B082C04D00C2C00D12E
:1009F000184609B030BD9402240F6D462C5DC96ABB
:100A000004AD0907090FD203695C920F022A02D0D4
:100A1000032A00D11846FFF76BFB6043E9E70000AB
:100A200002030405060708090A0B0C0D0E0F10102F
:100A30000102030405060708090A0B0C0D0E0F102E
:100A40000010024000127A00006CDC02FEB5044681
:100A50000078F04EF04DC00748D068680007800F5E
:100A600001281FD068680007800F022804D1686839
:100A7000C003800F022815D06168012919D0012018
:100A80008004002901D0052917D02968B1432960C5
:100A9000296881432960606800281BD0FFF70EFC9D
:100AA000074613E02868800320D56068002876D0C8
:100AB0001CE0286830432860EDE72968014329607D
:100AC000F7E7FFF7FBFBC01B642869D828688003A1
:100AD000F7D50BE0FFF7F2FB074604E0FFF7EEFB6C
:100AE000C01B6428F1D828688003F7D420788007D9
:100AF0003ED568680007800F14D068680007800F33
:100B0000022804D16868C003800F01280AD0E06879
:100B1000002828681DD0012108432860FFF7CEFB7C
:100B200007460BE0286880070BD5E068012836D11E
:100B300007E0FFF7C3FBC01B0228C6D82868800760
:100B4000F7D52868F82188432169C900084328603F
:100B50000EE0400840002860FFF7B0FB074604E0C5
:100B6000FFF7ACFBC01B0228AFD828688007F7D47A
:100B70002078000724D5E0690028686A11D0012197
:100B800008436862FFF79AFB074604E0FFF796FB0D
:100B9000C01B022899D8686A8007F7D510E036E1B3
:100BA000D1E0400840006862FFF788FB074604E098
:100BB000FFF784FBC01B022887D8686A8007F7D438
:100BC000207804274007002861DA00200190E869B6
:100BD000C00008D4E969B8060143E961E969014048
:100BE0000120009101908D480168C90511D4016868
:100BF000821511430160FFF761FB009005E0FFF7EC
:100C00005DFB0099401A642897D884480068C005A5
:100C1000F5D5A06801280AD0002801D0052811D0F8
:100C2000286A400840002862286AB84302E0286A1F
:100C3000012108432862A068002812D0FFF73EFB7C
:100C400000900AE0286A38432862F0E7FFF736FB95
:100C50000099411A7248814275D8286A8007F5D5F3
:100C60000DE0FFF72BFB009006E0FFF727FB009954
:100C7000411A6B48814266D8286A8007F5D40198EA
:100C8000002804D0E969012000078143E961207848
:100C9000C00635D5606901280CD0401D686B24D092
:100CA00038436863686B400840006863FFF706FBE1
:100CB000074622E0686B38436863686B012108438C
:100CC0006863FFF7FBFA074604E0FFF7F7FAC01B7B
:100CD000022838D8686B8007F7D5686BF8218843FD
:100CE000A169C900084368630AE0B8436863F4E790
:100CF000FFF7E4FAC01B022825D8686B8007F7D4F9
:100D00002078800637D568680007800F032813D045
:100D100068680007800F022804D16868C003800F4C
:100D2000032809D0206A0028686B16D03043686316
:100D3000FFF7C4FA06460CE0686BC0031BD5206AB7
:100D4000012864D117E05BE0FFF7B8FA801B0228A6
:100D500056D8686BC003F7D50DE0B0436863FFF762
:100D6000ADFA064604E0FFF7A9FA801B022847D82F
:100D7000686BC003F7D4606A002846D06968090729
:100D8000890F022943D0012636060228286805D09B
:100D9000B0432860FFF792FA044633E0B04328607E
:100DA000FFF78CFA074604E0FFF788FAC01B022819
:100DB00026D828688001F7D4E86A216B0009000171
:100DC0000843E862A16AE06A084369687B22D203AB
:100DD000914308436860286830432860FFF76EFA43
:100DE000044604E0FFF76AFA001B022808D82868C6
:100DF0008001F7D509E0FFF761FA001B022801D94D
:100E00000320FEBD28688001F5D40020FEBD01202E
:100E1000FEBD000000000100001002400070004014
:100E200088130000042204490428086902D0904372
:100E3000086170471043FBE700E000E070470000E6
:100E4000094910B5401E884201D9012010BD074C48
:100E500060610321081F00F0B3F90020A0610720A2
:100E60002061002010BD0000FFFFFF0000E000E057
:100E700010B5FFF7E3FF10BDFEE701688A69D243B2
:100E8000920701D400228A6200688169C943C907B8
:100E900003D081690122114381617047F7B504468F
:100EA00000680E468069C043C0062CD42027254622
:100EB000403520688069C04380060FD5701CF8D08B
:100EC000002E05D0FFF7FAF90299401AB042F0D986
:100ED0006F700020A87028700320FEBD21681020CC
:100EE000C8612068C7612046FFF7C7FF20684168D6
:100EF000064A11404160042060646F700020A870B1
:100F000028700120FEBD0020FEBD000000E800FEAC
:100F1000F8B504460120164640031D46DAB200909B
:100F2000079F0023204600F05DF83A4620460699C8
:100F300000F0B5F8002803D0606C04281BD018E03E
:100F40002846F5B2012809D02168300A88623A465D
:100F50002046069900F0A3F80028EDD120688562AC
:100F60000097002240212046069B00F04DF8002803
:100F700000D00320F8BD0120F8BDF8B504460120DB
:100F8000164640031D46DAB2C3020090079F204672
:100F900000F028F83A462046069900F080F800282C
:100FA00003D0606C04281BD018E02846F5B2012855
:100FB00009D02168300A88623A462046069900F036
:100FC0006EF80028EDD1206885620097002280210C
:100FD0002046069B00F018F8002800D00320F8BD3A
:100FE0000120F8BD70B50568049C68688905890D05
:100FF0001204044E114319433040214301436960F8
:1010000070BD0000009800FCF8B51C4617460E465F
:10101000054611E0601C0FD0002C05D0FFF74EF9FB
:101020000699401AA04207D9202040356870002058
:10103000A87028700320F8BD28688169304688436D
:1010400004D00020B842E5D00020F8BD0120F9E727
:1010500070B516460D4604461AE03246294620462B
:10106000FFF71CFF002801D0012070BD002D04D027
:10107000FFF724F9801BA8420AD9616C20200143A4
:101080006164403460700020A0702070032070BD47
:1010900020688069C0438006DFD4002070BD70B531
:1010A00016460D4604461CE0324629462046FFF708
:1010B000F5FE002801D0012070BD681C11D0002D64
:1010C00004D0FFF7FBF8801BA8420AD9616C2020EE
:1010D00001436164403460700020A07020700320E0
:1010E00070BD20688069C0438007DDD4002070BDDA
:1010F000F0B51D4887B04269012149050A434261A4
:1011000042690A400592426949000A4342614269C4
:101110000A400592426909110A4342614069134C31
:101120000840134E0590002221463046FFF7C0F8D4
:10113000104F002204213846FFF7BAF8009400242B
:10114000012501950294694630460394FFF704F89F
:101150000420009002946946019503943846FEF7F6
:10116000FBFF07B0F0BD000000100240FF0F0000C1
:10117000001000480014004810B50E480C490160EA
:101180000D4941600021816001614161816101225D
:10119000C161C2600162FFF7BDF8002800D0FEE720
:1011A00000210448FFF790F8002800D0FEE710BDAA
:1011B00000540040100000200E090020704700007D
:1011C0008307FF22DB0E9A408907090E9940002809
:1011D0000BDA0007000F0838830808489B0018182E
:1011E000C36993430B43C3617047830804489B0062
:1011F0001B181868904308431860704700ED00E022
:1012000000E400E070470000FEB504460A21FEF746
:101210006FFF0E4664212046FEF76AFF08460A214A
:10122000FEF766FF7D210290C9002046FEF760FFB1
:10123000044608466421FEF75BFFC0B20190E0B2AD
:101240000090002204213E48FFF732F83D4C6069CF
:101250003D4DA95D084360610721012249022046F6
:10126000FFF726F8FF21002201312046FFF720F882
:101270000320FEF765FF6069FF263602304060619B
:1012800060690F273F02384360610120FEF758FF75
:1012900061690298285C014361610D210122090204
:1012A0002046FFF705F80121002249022046FEF7FB
:1012B000FFFF0320FEF744FF606930406061606912
:1012C000384360610120FEF73BFF61690198285CAB
:1012D000014361610B21012209022046FEF7E8FF6C
:1012E0000121002289022046FEF7E2FF0320FEF7DB
:1012F00027FF6069304060616069384360610120A8
:10130000FEF71EFF61690098285C014361610721B7
:10131000012209022046FEF7CBFF01210022C9026B
:101320002046FEF7C5FF0320FEF70AFF6069304044
:1013300060616069384360610120FEF701FFFEBD16
:101340000014004800100048B8140008704710B599
:10135000FFF7AEF9FFF78CFD10BD30B599B0032053
:10136000009001200190039002251020099504901F
:1013700000030A90000100240B900C946846FFF7CC
:1013800065FB002800D0FEE707200D900F94012197
:101390000E9510940DA8FFF765FA002800D0FEE71F
:1013A00020201190159411A8FFF7CCF9002800D047
:1013B000FEE7FFF701FB7D21C900FEF799FEFFF76D
:1013C0003FFD0420FFF72EFD00221146501EFFF7BF
:1013D000B5F919B030BD000012480168012211436F
:1013E00001604168104A1140416001680F4A114094
:1013F00001600168012292049143016041683F222B
:10140000120491434160C16A09090901C162016B7B
:10141000074A11400163416B4908490041630021BB
:1014200081607047001002400CB8FF08FFFFF6FE15
:101430002CFEFCFF02E008C8121F08C1002AFAD1E6
:1014400070477047002001E001C1121F002AFBD144
:10145000704700000EB5FFF733F9FFF77EFFFFF787
:1014600047FEFFF789FE124F052501267C1E2078D6
:10147000642818D2401C207001231A4650210D48C0
:10148000019602950094FFF745F860600320FEF78F
:1014900057FE01231A4650210648009701960295EF
:1014A000FEF78CFF60602078FFF7AEFEDFE70000FC
:1014B00005000020100000203F065B4F666D7D0791
:1014C0007F6F000000000000000001020304060717
:1014D00008090000F41400080000002010000000BB
:1014E0003414000804150008100000205004000007
:1014F000441400080000000000000000000000008C
:0415000000127A005B
:04000005080000C12E
:00000001FF
