:020000040800F2
:1000000010040020D50000082D0A0008A1090008EE
:1000100000000000000000000000000000000000E0
:10002000000000000000000000000000F10B0008CC
:100030000000000000000000750A0008F30B000833
:10004000E7000008E7000008E7000008E7000008F4
:10005000E7000008E7000008E7000008E7000008E4
:10006000E7000008E7000008E7000008E7000008D4
:10007000E7000008E7000008E7000008E7000008C4
:10008000E7000008E7000008E7000008E7000008B4
:10009000E7000008E7000008E7000008E7000008A4
:1000A000E7000008E7000008E7000008E700000894
:1000B000E7000008E7000008E7000008E700000884
:1000C0000348854600F02AF800480047DD0C000888
:1000D000100400200448804704480047FEE7FEE77C
:1000E000FEE7FEE7FEE7FEE7610C0008C10000083E
:1000F00030B50B46014600202022012409E00D46C0
:10010000D5409D4205D31D469540491B2546954047
:1001100040191546521E002DF1DC30BD064C01255C
:10012000064E05E0E36807CC2B430C3C984710349F
:10013000B442F7D3FFF7C8FF280D0008480D0008A8
:1001400031B500F0BBF8044600F0B8F80099001B88
:100150008842F9D338BD0000F8B5002393E0224669
:1001600001249C40A44622407ED04C68022C01D041
:10017000122C0CD1DC08A40027183C6A5D07ED0E98
:100180000F26AE40B4430E69AE4026433E6205687A
:100190005E000324B4400F79A543BF07BF0FB740EB
:1001A0002F4307604D68012D05D0022D03D0112D7E
:1001B00001D0122D0ED18568CF68A543B7402F43DB
:1001C000876047686546AF430D79ED06ED0F9D40AA
:1001D0003D434560C568A5438C68B4402C43C4606A
:1001E0004C68E4004ED52B4CA56901263543A5612A
:1001F000A4699D0834400094274CAD002F19BC68B9
:100200009D072E0F0F25B540AC430925ED06A842EA
:1002100001D1002514E0214DA84201D101250FE0B4
:100220001F4DA84201D102250AE01E4DA84201D16E
:10023000032505E01C4DA84201D1042500E0052559
:10024000B5402543BD60194C25684E689543F603BB
:1002500000D51543256065684E689543B60300D503
:1002600015436560A56800E00CE04E689543F60212
:1002700000D51543A560E5684E689543B60200D5E4
:100280001543E5605B1C0A681446DA4000D066E757
:10029000F8BD0000001002400000014000040048CA
:1002A00000080048000C004800100048000401400D
:1002B000002A01D08161704781627047014800685F
:1002C000704700000800002002480168491C0160D6
:1002D000704700000800002010B506480168102291
:1002E00011430160002000F007F800F017F800202B
:1002F00010BD00000020024010B5044600F0F0F8E8
:100300007D21C900FFF7F4FE00F02EFB00222146FC
:10031000501E00F01FF8002010BD000008B50C486A
:10032000816901221143816180691040002200909F
:100330001146501F00F00EF800221146901E00F0EA
:1003400009F800221146501E00F004F808BD000014
:100350000010024010B500F06BFB10BD02494A6866
:1003600002434A6070470000007000400548016881
:100370000222114301600448016904221143016112
:1003800030BF70470070004000ED00E0F8B5054652
:100390004E480E460068C007C00FB0420AD24B4814
:1003A000016849084900314301600068C007C00F77
:1003B000B04270D12878464C800705D56068F0219E
:1003C0008843A968084360602878C00753D06868EC
:1003D000012817D0022818D0032819D021688907CE
:1003E000002958DA61688908890001436160FFF7D4
:1003F00065FF69680746012913D002291DD003292A
:1004000027D034E021688903EAE721688901E7E71A
:10041000616BC903E4E7FFF751FFC11B2D4881421F
:1004200023D860680007800F0128F4D123E0FFF78C
:1004300045FFC11B2748814217D860680007800F1D
:100440000228F4D117E0FFF739FFC11B2148814290
:100450000BD860680007800F0328F4D10BE0FFF78A
:100460002DFFC11B1B48814201D90320F8BD6068E4
:100470000007800FF3D115480168C907C90FB142C1
:100480000BD9016849084900314301600068C00781
:10049000C00FB04201D00120F8BD2878400706D532
:1004A0006068072109028843E9680843606000F03A
:1004B0001DF86168084A0906090F515CC8400749E0
:1004C00008600020FFF718FF0020F8BD0020024060
:1004D00000100240881300000C0D000800000020EE
:1004E00001480068704700000000002030B516A3E6
:1004F0000FCB89B06C460FC417A30FCB0FC41A499A
:100500004A680C20144604401848042C05D0184BA7
:10051000082C04D00C2C00D1184609B030BD940230
:10052000240F6D462C5DC96A04AD0907090FD2037B
:10053000695C920F022A02D0032A00D11846FFF705
:10054000D7FD6043E9E70000020304050607080938
:100550000A0B0C0D0E0F101001020304050607080C
:10056000090A0B0C0D0E0F100010024000127A0049
:10057000006CDC02FEB504460078F04EF04DC0077A
:1005800048D068680007800F01281FD068680007FE
:10059000800F022804D16868C003800F022815D09C
:1005A0006168012919D001208004002901D00529A2
:1005B00017D02968B14329602968814329606068A0
:1005C00000281BD0FFF77AFE074613E02868800357
:1005D00020D56068002876D01CE028683043286069
:1005E000EDE7296801432960F7E7FFF767FEC01BC5
:1005F000642869D828688003F7D50BE0FFF75EFE12
:10060000074604E0FFF75AFEC01B6428F1D82868AB
:100610008003F7D4207880073ED568680007800FF4
:1006200014D068680007800F022804D16868C003EE
:10063000800F01280AD0E068002828681DD0012119
:1006400008432860FFF73AFE07460BE0286880075A
:100650000BD5E068012836D107E0FFF72FFEC01B5D
:100660000228C6D828688007F7D52868F82188436B
:100670002169C900084328600EE040084000286056
:10068000FFF71CFE074604E0FFF718FEC01B022818
:10069000AFD828688007F7D42078000724D5E06910
:1006A0000028686A11D0012108436862FFF706FE3E
:1006B000074604E0FFF702FEC01B022899D8686ACB
:1006C0008007F7D510E036E1D1E0400840006862CD
:1006D000FFF7F4FD074604E0FFF7F0FDC01B02281A
:1006E00087D8686A8007F7D4207804274007002855
:1006F00061DA00200190E869C00008D4E969B80611
:100700000143E961E96901400120009101908D48B0
:100710000168C90511D40168821511430160FFF712
:10072000CDFD009005E0FFF7C9FD0099401A64284F
:1007300097D884480068C005F5D5A06801280AD07C
:10074000002801D0052811D0286A400840002862FE
:10075000286AB84302E0286A012108432862A06899
:10076000002812D0FFF7AAFD00900AE0286A38435B
:100770002862F0E7FFF7A2FD0099411A7248814212
:1007800075D8286A8007F5D50DE0FFF797FD009032
:1007900006E0FFF793FD0099411A6B48814266D845
:1007A000286A8007F5D40198002804D0E96901205F
:1007B00000078143E9612078C00635D560690128CA
:1007C0000CD0401D686B24D038436863686B4008C8
:1007D00040006863FFF772FD074622E0686B38430C
:1007E0006863686B012108436863FFF767FD07468C
:1007F00004E0FFF763FDC01B022838D8686B800750
:10080000F7D5686BF8218843A169C900084368637C
:100810000AE0B8436863F4E7FFF750FDC01B022805
:1008200025D8686B8007F7D42078800637D56868AC
:100830000007800F032813D068680007800F022884
:1008400004D16868C003800F032809D0206A0028FB
:10085000686B16D030436863FFF730FD06460CE046
:10086000686BC0031BD5206A012864D117E05BE0E8
:10087000FFF724FD801B022856D8686BC003F7D50C
:100880000DE0B0436863FFF719FD064604E0FFF78B
:1008900015FD801B022847D8686BC003F7D4606A37
:1008A000002846D069680907890F022943D001262C
:1008B00036060228286805D0B0432860FFF7FEFC02
:1008C000044633E0B0432860FFF7F8FC074604E035
:1008D000FFF7F4FCC01B022826D828688001F7D453
:1008E000E86A216B000900010843E862A16AE06A36
:1008F000084369687B22D2039143084368602868F3
:1009000030432860FFF7DAFC044604E0FFF7D6FC2A
:10091000001B022808D828688001F7D509E0FFF7F6
:10092000CDFC001B022801D90320FEBD28688001F0
:10093000F5D40020FEBD0120FEBD00000000010036
:100940000010024000700040881300000422044997
:100950000428086902D09043086170471043FBE700
:1009600000E000E070470000094910B5401E8842D1
:1009700001D9012010BD074C60610321081F00F060
:1009800057F80020A06107202061002010BD000062
:10099000FFFFFF0000E000E010B5FFF7E3FF10BD30
:1009A000FEE70000F0B51D4887B042690121490506
:1009B0000A43426142690A400592426949000A437A
:1009C000426142690A400592426949110A43426103
:1009D0004069134C0840134E0590002221463046D2
:1009E000FFF766FC104F002204213846FFF760FC39
:1009F0000094002401250195029469463046039431
:100A0000FFF7AAFB04200090029469460195039425
:100A10003846FFF7A1FB07B0F0BD00000010024010
:100A2000FF0F00000010004800140048704700004D
:100A30008307FF22DB0E9A408907090E99400028A0
:100A40000BDA0007000F0838830808489B001818C5
:100A5000C36993430B43C3617047830804489B00F9
:100A60001B181868904308431860704700ED00E0B9
:100A700000E400E070470000FEB504460A21FFF7DD
:100A800037FB0E4664212046FFF732FB08460A2159
:100A9000FFF72EFB7D210290C9002046FFF728FBBF
:100AA000044608466421FFF723FBC0B20190E0B280
:100AB0000090002204213E48FFF7FAFB3D4C60699C
:100AC0003D4DA95D0843606107210122490220468E
:100AD000FFF7EEFBFF21002201312046FFF7E8FB84
:100AE0000320FFF72DFB6069FF263602304060616E
:100AF00060690F273F02384360610120FFF720FB48
:100B000061690298285C014361610D21012209029B
:100B10002046FFF7CDFB0121002249022046FFF7C6
:100B2000C7FB0320FFF70CFB606930406061606920
:100B3000384360610120FFF703FB61690198285C7D
:100B4000014361610B21012209022046FFF7B0FB3E
:100B50000121002289022046FFF7AAFB0320FFF7AC
:100B6000EFFA60693040606160693843606101207C
:100B7000FFF7E6FA61690098285C0143616107218B
:100B8000012209022046FFF793FB01210022C9023E
:100B90002046FFF78DFB0320FFF7D2FA6069304053
:100BA00060616069384360610120FFF7C9FAFEBDEA
:100BB00000140048001000481C0D000808B50A4841
:100BC000C26901040A43C261C06908400090081567
:100BD000FFF7C4FB05480168042211430160016866
:100BE00008221143016008BD00100240007000405F
:100BF000704710B5FFF768FBFFF7CEFE10BD30B5AC
:100C000091B001200090019000040A90000102259B
:100C100000240B9009950C946846FFF7ABFC002864
:100C200000D0FEE707200D900F9401210E9510943F
:100C30000DA8FFF7ABFB002800D0FEE7FFF750FC44
:100C40007D21C900FFF754FAFFF78EFE0420FFF75D
:100C50007DFE00221146501EFFF77CFB11B030BD17
:100C6000124801680122114301604168104A114095
:100C7000416001680F4A114001600168012292043D
:100C80009143016041683F22120491434160C16A6F
:100C900009090901C162016B074A11400163416BF7
:100CA00049084900416300218160704700100240FB
:100CB0000CB8FF08FFFFF6FE2CFEFCFF02E008C8A0
:100CC000121F08C1002AFAD170477047002001E0C6
:100CD00001C1121F002AFBD170470000FFF7FCFA88
:100CE000FFF78DFFFFF75EFEFFF768FF064CC82594
:100CF00025602068FFF7C0FE2068401E2060F8D104
:100D00002560FFF733FBF4E704000020000000003B
:100D10000000000001020304060708093F065B4FBC
:100D2000666D7D077F6F0000480D00080000002001
:100D30000C000000BC0C0008540D00080C00002042
:100D400004040000CC0C000800127A00000000002F
:040D5000000000009F
:04000005080000C12E
:00000001FF
