:020000040800F2
:10000000B8040020D50000080112000831110008D2
:1000100000000000000000000000000000000000E0
:100020000000000000000000000000009113000824
:1000300000000000000000004912000893130008AF
:10004000E7000008E7000008E7000008E7000008F4
:10005000E7000008E7000008E7000008E7000008E4
:10006000E7000008E7000008E7000008E7000008D4
:10007000E7000008E7000008E7000008E7000008C4
:10008000E7000008E7000008E7000008E7000008B4
:10009000E7000008E7000008E7000008E7000008A4
:1000A000E7000008E7000008E7000008E700000894
:1000B000E7000008E7000008D9020008E700000890
:1000C0000348854600F034F8004800477D140008D6
:1000D000B80400200448804704480047FEE7FEE7D4
:1000E000FEE7FEE7FEE7FEE701140008C100000896
:1000F00030B50B46014600202022012409E00D46C0
:10010000D5409D4205D31D469540491B2546954047
:1001100040191546521E002DF1DC30BD0321001D93
:10012000401E037812021A43491EF9D51046704743
:10013000064C0125064E05E0E36807CC2B430C3C3A
:1001400098471034B442F7D3FFF7BEFF6C15000890
:100150008C15000870B50A011346FF330468B133EB
:10016000E55804242540446BA5600568446BED58B0
:1001700053D0ED0865600468E3580224456B2340C2
:10018000EB601346FF330568B533ED58466B2D071A
:100190002D0F35610568EB58456B1B041B0EEB6199
:1001A0001346FF330568B933ED58466B357505685E
:1001B000ED58466B2D0A75750568ED58466B2D0C8C
:1001C000B5750568EB58456B1B0EEB75FF32036880
:1001D000BD329B58456B2B7603689B58456B1B0AB9
:1001E0006B7603689B58456B1B0CAB7603689A587B
:1001F000436B120EDA7620220029016810D00B69B9
:1002000013430B6101684A6910239A434A6101460E
:1002100020314A7E222A0AD023E06D0D2560AAE70C
:10022000CB681343CB6001684A69A243EEE70268DA
:100230005369FF240134A343536102685369640086
:10024000A3435361026853696400A3435361026886
:1002500053696400A3435361026853692401A343B3
:1002600053614A7E322A05D001224A7600F087FA8D
:10027000002070BD1222F8E710B501684A695208E3
:1002800052004A61014620314A7E122A19D1026881
:100290005369FF240134A343536102685369640026
:1002A000A3435361026853696400A3435361026826
:1002B00053696400A3435361026853692401A34353
:1002C00053614A7E322A05D001224A7600F00EFBA5
:1002D000002010BD2222F8E710B5024800F0A6F871
:1002E00010BD00000C000020F0B50C7D01231A4663
:1002F000A2400468FF34FF34023425681D432560A2
:100300000368FF33FF3302331C683F252D02AC43E3
:100310001C600368FF33FF3302331C684D6A2D02F3
:100320002C431C600368FF33FF330233DC699443C2
:10033000DC610924A401CB69251D002B1AD10368B7
:10034000FF33FF330233DE689643DE608B898E888D
:100350001B04B6B24F6933430668FF003F19F351DF
:100360000B890E881B04B6B24F6933430668FF0041
:100370007F19F351CB69012B1AD10368FF33FF3387
:100380000233DE681643DE600B888E881B04B6B22B
:100390004F6933430668FF003C1933510B898C8940
:1003A0001B04A4B24E6923430468F6007519635117
:1003B0008B69002B036809D0FF33FF3302335C687D
:1003C00014435C600B69002B06D00CE0FF33FF3355
:1003D00002335C689443F4E70368FF33FF3302336E
:1003E0005C6994435C610B69012B06D10368FF33A0
:1003F000FF3302335C6914435C61096A012906D149
:100400000168FF31FF310231CB691343CB610068D2
:10041000FF30FF30023001684908490001600020C8
:10042000F0BD70472030407E7047000070B5044634
:1004300000684169C943C9070ED182684B4991439D
:1004400007D082684A49914303D08168494888436C
:1004500002D12046FFF710FF20684169C943890790
:1004600006D4C068800703D000212046FFF772FE43
:1004700020684169C943C90606D40069800703D0D2
:1004800001212046FFF766FE20688169CA07012125
:10049000002A0AD04269D243D20506D44269D24327
:1004A000120402D4E26B0A43E263826992070BD51D
:1004B0004269D243920507D44269D243120403D45D
:1004C000E26B02231A43E263826953070422002B82
:1004D0000ADA4369DB435B0506D44369DB431B044B
:1004E00002D4E36B1343E36383695B065B0F23D0A2
:1004F0004369DB431B051FD44369DB431B041BD447
:10050000856970231D40402D26D006DC102D09D0B2
:10051000202D0AD0302D0CD11BE0502D1FD0602D86
:1005200007D11FE0E56B082601E0E56B1026354397
:10053000E56385699D438561E06B002808D02068EC
:10054000436813434360392001552046FFF769FF94
:1005500070BDE56B2026EAE7E56B4026E7E7E56B33
:100560008026E4E7E56BFF260136E0E703000004A0
:100570000003000800000310F8B5040006D025466B
:100580002035687E0026002802D005E00120F8BD55
:100590002E76204600F086F80220687621680A68E8
:1005A00082430A602068016801221143016000F063
:1005B0005BFA074604E000F057FAC01B0A285ED831
:1005C00020684068C007F6D0206841680427C90742
:1005D000002960D0A2698021012A02683DD08A43A7
:1005E0000260E069402101282068026837D08A4310
:1005F0000260206A202101282068026831D08A43E5
:100600000260616A1020012921680A682BD08243A8
:100610000A60A16A0820012921680A6825D082435E
:100620000A60E06A01282068016820D0B9430160AF
:10063000E168A06862690843216911430843616861
:10064000491E08432168C8612068016849084900BB
:10065000016000F009FA009015E00A43C0E70A4380
:10066000C6E70A43CCE70243D2E70243D8E739435F
:10067000DDE700F0F9F90099401A0A2803D90320B0
:1006800068762E76F8BD20684068C007F1D12068F2
:100690004068C00701D06F7678E7E663012068768E
:1006A0000020F8BD00B50068134987B0884220D10A
:1006B0001248C269012149060A43C261C069084063
:1006C00005900320C00200900220019000200290BB
:1006D000032003900420049009206946C00600F01E
:1006E00011F9002211461E2000F014FA1E2000F01D
:1006F00007FA07B000BD000000640040001002408F
:1007000070B502462032537E012B02D0537E122B4D
:1007100033D1137E012B30D001231376537E122B5D
:1007200027D0222353760023C36304686569FF261C
:100730000136354365610468656976003543656156
:10074000046865697600354365610468656976000B
:100750003543656104686569360135436561137623
:1007600000680029416906D0102211434161002030
:1007700070BD3223D6E70222F7E7022070BD704732
:10078000F3B50446006883B08168254649012035E9
:10079000002905DB8168090102D48168C90070D590
:1007A000297E01290BD001212976697E222909D0D1
:1007B000122169768168490106D500270AE00220E6
:1007C00005B0F0BD3221F4E78168090101D50127A8
:1007D00000E002273E010096FF3681368159C907A5
:1007E000C90F8151206B8368002B41D021688A5941
:1007F0001A43C3684068C00003431A438A51206B00
:10080000017C0907090F016100982168FF308530DC
:100810000A58120912010A5021680A58236B1B69F1
:100820001A430A50206B01901530FFF777FC010244
:1008300001982268007D01430098FF3089301150F3
:10084000206B01901930FFF769FC010201982268C2
:10085000007E01430098FF308D301150206881598F
:1008600001221143815100F0FFF8002600901AE0A8
:1008700022689159C368008819434005014391518A
:10088000BDE729E00498401C0DD00498002806D04C
:1008900000F0EAF80099411A0498814203D9032034
:1008A00068762E768CE7002F0ED02068012F8168A5
:1008B0000ED00B488843E5D1687E32280AD001204B
:1008C00068762E7600207BE7206881680548F1E78E
:1008D0000548EFE72220F3E70420687601206FE760
:1008E000000003100300000400030008704731B546
:1008F00000F0BAF8044600F0B7F80099001B8842EF
:10090000F9D338BDF8B5002393E0224601249C407A
:10091000A44622407ED04C68022C01D0122C0CD16F
:10092000DC08A40027183C6A5D07ED0E0F26AE40D8
:10093000B4430E69AE4026433E6205685E00032460
:10094000B4400F79A543BF07BF0FB7402F430760DF
:100950004D68012D05D0022D03D0112D01D0122D8F
:100960000ED18568CF68A543B7402F43876047689D
:100970006546AF430D79ED06ED0F9D403D43456063
:10098000C568A5438C68B4402C43C4604C68E4003F
:100990004ED52B4CA56901263543A561A4699D0858
:1009A00034400094274CAD002F19BC689D072E0FD2
:1009B0000F25B540AC430925ED06A84201D100251D
:1009C00014E0214DA84201D101250FE01F4DA8429E
:1009D00001D102250AE01E4DA84201D1032505E000
:1009E0001C4DA84201D1042500E00525B540254352
:1009F000BD60194C25684E689543F60300D5154334
:100A0000256065684E689543B60300D5154365605B
:100A1000A56800E00CE04E689543F60200D515434A
:100A2000A560E5684E689543B60200D51543E560BC
:100A30005B1C0A681446DA4000D066E7F8BD000087
:100A40000010024000000140000400480008004877
:100A5000000C00480010004800040140002A01D0AA
:100A600081617047816270470148006870470000EB
:100A70000800002002480168491C0160704700001E
:100A80000800002010B506480168102211430160DB
:100A9000002000F007F800F017F8002010BD00005B
:100AA0000020024010B5044600F0E2F87D21C900A4
:100AB000FFF71EFB00F020FB00222146501E00F035
:100AC00029F8002010BD000008B50C4881690122FA
:100AD0001143816180691040002200901146501F2F
:100AE00000F018F800221146901E00F013F80022C2
:100AF0001146501E00F00EF808BD00000010024024
:100B0000C106C90E012088400149086070470000F5
:100B100000E100E010B500F075FB10BDF8B505462A
:100B20004E480E460068C007C00FB0420AD24B487C
:100B3000016849084900314301600068C007C00FDF
:100B4000B04270D12878464C800705D56068F02106
:100B50008843A968084360602878C00753D0686854
:100B6000012817D0022818D0032819D02168890736
:100B7000002958DA61688908890001436160FFF73C
:100B800073FF69680746012913D002291DD0032984
:100B900027D034E021688903EAE721688901E7E783
:100BA000616BC903E4E7FFF75FFFC11B2D4881427A
:100BB00023D860680007800F0128F4D123E0FFF7F5
:100BC00053FFC11B2748814217D860680007800F78
:100BD0000228F4D117E0FFF747FFC11B21488142EB
:100BE0000BD860680007800F0328F4D10BE0FFF7F3
:100BF0003BFFC11B1B48814201D90320F8BD60683F
:100C00000007800FF3D115480168C907C90FB14229
:100C10000BD9016849084900314301600068C007E9
:100C2000C00FB04201D00120F8BD2878400706D59A
:100C30006068072109028843E9680843606000F0A2
:100C40001DF86168084A0906090F515CC840074948
:100C500008600020FFF726FF0020F8BD00200240BA
:100C6000001002408813000050150008000000200A
:100C700001480068704700000000002030B516A34E
:100C80000FCB89B06C460FC417A30FCB0FC41A4902
:100C90004A680C20144604401848042C05D0184B10
:100CA000082C04D00C2C00D1184609B030BD940299
:100CB000240F6D462C5DC96A04AD0907090FD203E4
:100CC000695C920F022A02D0032A00D11846FFF76E
:100CD0000FFA6043E9E7000002030405060708096C
:100CE0000A0B0C0D0E0F1010010203040506070875
:100CF000090A0B0C0D0E0F100010024000127A00B2
:100D0000006CDC02FEB504460078F04EF04DC007E2
:100D100048D068680007800F01281FD06868000766
:100D2000800F022804D16868C003800F022815D004
:100D30006168012919D001208004002901D005290A
:100D400017D02968B1432960296881432960606808
:100D500000281BD0FFF788FE074613E028688003B1
:100D600020D56068002876D01CE0286830432860D1
:100D7000EDE7296801432960F7E7FFF775FEC01B1F
:100D8000642869D828688003F7D50BE0FFF76CFE6C
:100D9000074604E0FFF768FEC01B6428F1D8286806
:100DA0008003F7D4207880073ED568680007800F5D
:100DB00014D068680007800F022804D16868C00357
:100DC000800F01280AD0E068002828681DD0012182
:100DD00008432860FFF748FE07460BE028688007B5
:100DE0000BD5E068012836D107E0FFF73DFEC01BB8
:100DF0000228C6D828688007F7D52868F8218843D4
:100E00002169C900084328600EE0400840002860BE
:100E1000FFF72AFE074604E0FFF726FEC01B022864
:100E2000AFD828688007F7D42078000724D5E06978
:100E30000028686A11D0012108436862FFF714FE98
:100E4000074604E0FFF710FEC01B022899D8686A25
:100E50008007F7D510E036E1D1E040084000686235
:100E6000FFF702FE074604E0FFF7FEFDC01B022865
:100E700087D8686A8007F7D42078042740070028BD
:100E800061DA00200190E869C00008D4E969B80679
:100E90000143E961E96901400120009101908D4819
:100EA0000168C90511D40168821511430160FFF77B
:100EB000DBFD009005E0FFF7D7FD0099401A64289C
:100EC00097D884480068C005F5D5A06801280AD0E5
:100ED000002801D0052811D0286A40084000286267
:100EE000286AB84302E0286A012108432862A06802
:100EF000002812D0FFF7B8FD00900AE0286A3843B6
:100F00002862F0E7FFF7B0FD0099411A724881426C
:100F100075D8286A8007F5D50DE0FFF7A5FD00908C
:100F200006E0FFF7A1FD0099411A6B48814266D89F
:100F3000286A8007F5D40198002804D0E9690120C7
:100F400000078143E9612078C00635D56069012832
:100F50000CD0401D686B24D038436863686B400830
:100F600040006863FFF780FD074622E0686B384366
:100F70006863686B012108436863FFF775FD0746E6
:100F800004E0FFF771FDC01B022838D8686B8007AA
:100F9000F7D5686BF8218843A169C90008436863E5
:100FA0000AE0B8436863F4E7FFF75EFDC01B022860
:100FB00025D8686B8007F7D42078800637D5686815
:100FC0000007800F032813D068680007800F0228ED
:100FD00004D16868C003800F032809D0206A002864
:100FE000686B16D030436863FFF73EFD06460CE0A1
:100FF000686BC0031BD5206A012864D117E05BE051
:10100000FFF732FD801B022856D8686BC003F7D566
:101010000DE0B0436863FFF727FD064604E0FFF7E5
:1010200023FD801B022847D8686BC003F7D4606A91
:10103000002846D069680907890F022943D0012694
:1010400036060228286805D0B0432860FFF70CFD5B
:10105000044633E0B0432860FFF706FD074604E08E
:10106000FFF702FDC01B022826D828688001F7D4AC
:10107000E86A216B000900010843E862A16AE06A9E
:10108000084369687B22D20391430843686028685B
:1010900030432860FFF7E8FC044604E0FFF7E4FC77
:1010A000001B022808D828688001F7D509E0FFF75F
:1010B000DBFC001B022801D90320FEBD286880014B
:1010C000F5D40020FEBD0120FEBD0000000001009F
:1010D0000010024000700040881300000422044900
:1010E0000428086902D09043086170471043FBE769
:1010F00000E000E070470000094910B5401E88423A
:1011000001D9012010BD074C60610321081F00F0C8
:1011100079F80020A06107202061002010BD0000A8
:10112000FFFFFF0000E000E010B5FFF7E3FF10BD98
:10113000FEE7000010B50F480D4901603021416005
:10114000012189078160032212040261002101222A
:10115000C160920542618161016241620122816246
:10116000C261C162FFF708FA002800D0FEE710BD97
:10117000006400400C000020F0B51D4887B04269B3
:10118000012149050A43426142690A4005924269C8
:1011900049000A43426142690A4005924269491185
:1011A0000A4342614069134C0840134E05900022E7
:1011B00021463046FFF752FC104F002204213846EA
:1011C000FFF74CFC00940024012501950294694628
:1011D00030460394FFF796FB042000900294694682
:1011E000019503943846FFF78DFB07B0F0BD000072
:1011F00000100240FF0F00000010004800140048DB
:10120000704700008307FF22DB0E9A408907090E12
:10121000994000280BDA0007000F083883080848B7
:101220009B001818C36993430B43C361704783083D
:1012300004489B001B1818689043084318607047C7
:1012400000ED00E000E400E070470000FEB5044659
:101250000A21FEF74DFF0E4664212046FEF748FFA7
:1012600008460A21FEF744FF7D210290C90020466E
:10127000FEF73EFF044608466421FEF739FFC0B280
:101280000190E0B20090002204213E48FFF7E6FB07
:101290003D4C60693D4DA95D084360610721012215
:1012A00049022046FFF7DAFBFF21002201312046E8
:1012B000FFF7D4FB0320FFF71AFB6069FF26360215
:1012C0003040606160690F273F0238436061012050
:1012D000FFF70DFB61690298285C014361610D21F4
:1012E000012209022046FFF7B9FB01210022490231
:1012F0002046FFF7B3FB0320FFF7F9FA606930409F
:1013000060616069384360610120FFF7F0FA61694C
:101310000198285C014361610B21012209022046EA
:10132000FFF79CFB0121002289022046FFF796FB74
:101330000320FFF7DCFA6069304060616069384380
:1013400060610120FFF7D3FA61690098285C0143CE
:1013500061610721012209022046FFF77FFB01217D
:101360000022C9022046FFF779FB0320FFF7BFFAEE
:101370006069304060616069384360610120FFF757
:10138000B6FAFEBD001400480010004860150008C1
:10139000704710B5FFF76EFBFFF7C6FE10BD30B506
:1013A00091B001200090019000040A9000010225F4
:1013B00000240B9009950C946846FFF7A3FC0028C5
:1013C00000D0FEE707200D900F9401210E95109498
:1013D0000DA8FFF7A3FB002800D0FEE7FFF748FCAD
:1013E0007D21C900FEF784FEFFF786FE0420FFF78B
:1013F00075FE00221146501EFFF78CFB11B030BD68
:10140000124801680122114301604168104A1140ED
:10141000416001680F4A1140016001680122920495
:101420009143016041683F22120491434160C16AC7
:1014300009090901C162016B074A11400163416B4F
:101440004908490041630021816070470010024053
:101450000CB8FF08FFFFF6FE2CFEFCFF02E008C8F8
:10146000121F08C1002AFAD170477047002001E01E
:1014700001C1121F002AFBD170470000FFF702FBD9
:10148000FFF78DFFFFF778FEFFF754FE2E48044666
:101490000146683C1C316163FF21206324310160F7
:1014A000216B0020C860216B8860226B08211161CC
:1014B000236B01221A75256B02236B75256B0323A1
:1014C000AB75256B0423EB75256B05232B76256BFC
:1014D00006236B76256B0723AB76236BD9762146E3
:1014E000403148618861086048608860C860CA61AE
:1014F00008610A6248622046FEF7F6FE134D124864
:101500000A216838FFF73CF9002800D0FEE70E48B2
:101510006838FEF787FF012800D0FEE70A4800215F
:101520006838FFF7EDF8002800D0FEE70648683875
:10153000FEF778FF012800D0FEE7606B007E286090
:10154000FFF784FEDBE700007400002004000020A9
:101550000000000000000000010203040607080963
:101560003F065B4F666D7D077F6F00008C1500089E
:10157000000000200C0000005C1400089815000812
:101580000C000020AC0400006C14000800127A006B
:08159000000000000000000053
:04000005080000C12E
:00000001FF
