:020000040800F2
:1000000058040020D5000008A50F0008970E00082E
:1000100000000000000000000000000000000000E0
:100020000000000000000000000000003511000882
:100030000000000000000000ED0F0008371100086C
:10004000E7000008E7000008E7000008E7000008F4
:10005000E7000008E7000008E7000008E7000008E4
:10006000E7000008E7000008E7000008E7000008D4
:10007000E7000008E700000801120008E700000898
:10008000E7000008E7000008E7000008E7000008B4
:10009000E7000008E7000008E7000008E7000008A4
:1000A000E7000008E7000008E7000008E700000894
:1000B000E7000008E7000008E7000008E700000884
:1000C0000348854600F02AF800480047511400080C
:1000D000580400200448804704480047FEE7FEE734
:1000E000FEE7FEE7FEE7FEE7A5110008C1000008F5
:1000F00030B50B46014600202022012409E00D46C0
:10010000D5409D4205D31D469540491B2546954047
:1001100040191546521E002DF1DC30BD064C01255C
:10012000064E05E0E36807CC2B430C3C984710349F
:10013000B442F7D3FFF7C8FFBC140008DC14000872
:1001400031B500F0BBF8044600F0B8F80099001B88
:100150008842F9D338BD0000F8B5002393E0224669
:1001600001249C40A44622407ED04C68022C01D041
:10017000122C0CD1DC08A40027183C6A5D07ED0E98
:100180000F26AE40B4430E69AE4026433E6205687A
:100190005E000324B4400F79A543BF07BF0FB740EB
:1001A0002F4307604D68012D05D0022D03D0112D7E
:1001B00001D0122D0ED18568CF68A543B7402F43DB
:1001C000876047686546AF430D79ED06ED0F9D40AA
:1001D0003D434560C568A5438C68B4402C43C4606A
:1001E0004C68E4004ED52B4CA56901263543A5612A
:1001F000A4699D0834400094274CAD002F19BC68B9
:100200009D072E0F0F25B540AC430925ED06A842EA
:1002100001D1002514E0214DA84201D101250FE0B4
:100220001F4DA84201D102250AE01E4DA84201D16E
:10023000032505E01C4DA84201D1042500E0052559
:10024000B5402543BD60194C25684E689543F603BB
:1002500000D51543256065684E689543B60300D503
:1002600015436560A56800E00CE04E689543F60212
:1002700000D51543A560E5684E689543B60200D5E4
:100280001543E5605B1C0A681446DA4000D066E757
:10029000F8BD0000001002400000014000040048CA
:1002A00000080048000C004800100048000401400D
:1002B000002A01D08161704781627047014800685F
:1002C000704700000400002002480168491C0160DA
:1002D000704700000400002010B506480168102295
:1002E00011430160002000F007F800F017F800202B
:1002F00010BD00000020024010B5044600F0E2F8F6
:100300007D21C900FFF7F4FE00F020FB002221460A
:10031000501E00F029F8002010BD000008B50C4860
:10032000816901221143816180691040002200909F
:100330001146501F00F018F800221146901E00F0E0
:1003400013F800221146501E00F00EF808BD000000
:1003500000100240C106C90E012088400149086012
:100360007047000000E100E010B500F01DFE10BD78
:10037000F8B505464E480E460068C007C00FB042AB
:100380000AD24B48016849084900314301600068BE
:10039000C007C00FB04270D12878464C800705D501
:1003A0006068F0218843A968084360602878C00726
:1003B00053D06868012817D0022818D0032819D014
:1003C00021688907002958DA616889088900014392
:1003D0006160FFF773FF69680746012913D002299E
:1003E0001DD0032927D034E021688903EAE721687A
:1003F0008901E7E7616BC903E4E7FFF75FFFC11B12
:100400002D48814223D860680007800F0128F4D16D
:1004100023E0FFF753FFC11B2748814217D86068CC
:100420000007800F0228F4D117E0FFF747FFC11B38
:10043000214881420BD860680007800F0328F4D15F
:100440000BE0FFF73BFFC11B1B48814201D9032092
:10045000F8BD60680007800FF3D115480168C9072F
:10046000C90FB1420BD90168490849003143016005
:100470000068C007C00FB04201D00120F8BD287845
:10048000400706D56068072109028843E9680843E8
:10049000606000F01DF86168084A0906090F515CA8
:1004A000C840074908600020FFF726FF0020F8BD7C
:1004B000002002400010024088130000A014000831
:1004C0000000002001480068704700000000002084
:1004D00030B516A30FCB89B06C460FC417A30FCB52
:1004E0000FC41A494A680C20144604401848042CCA
:1004F00005D0184B082C04D00C2C00D1184609B09C
:1005000030BD9402240F6D462C5DC96A04AD090705
:10051000090FD203695C920F022A02D0032A00D18C
:100520001846FFF7E5FD6043E9E700000203040514
:10053000060708090A0B0C0D0E0F10100102030428
:1005400005060708090A0B0C0D0E0F1000100240DB
:1005500000127A00006CDC02FEB504460078F04E12
:10056000F04DC00748D068680007800F01281FD0F1
:1005700068680007800F022804D16868C003800FF4
:10058000022815D06168012919D0012080040029B2
:1005900001D0052917D02968B14329602968814312
:1005A0002960606800281BD0FFF788FE074613E02B
:1005B0002868800320D56068002876D01CE0286871
:1005C00030432860EDE7296801432960F7E7FFF72A
:1005D00075FEC01B642869D828688003F7D50BE036
:1005E000FFF76CFE074604E0FFF768FEC01B6428B7
:1005F000F1D828688003F7D4207880073ED5686852
:100600000007800F14D068680007800F022804D10B
:100610006868C003800F01280AD0E06800282868B5
:100620001DD0012108432860FFF748FE07460BE074
:10063000286880070BD5E068012836D107E0FFF76E
:100640003DFEC01B0228C6D828688007F7D5286859
:10065000F82188432169C900084328600EE040085A
:1006600040002860FFF72AFE074604E0FFF726FE59
:10067000C01B0228AFD828688007F7D4207800076D
:1006800024D5E0690028686A11D001210843686216
:10069000FFF714FE074604E0FFF710FEC01B022818
:1006A00099D8686A8007F7D510E036E1D1E04008B4
:1006B00040006862FFF702FE074604E0FFF7FEFD18
:1006C000C01B022887D8686A8007F7D420780427DF
:1006D0004007002861DA00200190E869C00008D4D2
:1006E000E969B8060143E961E96901400120009127
:1006F00001908D480168C90511D401688215114324
:100700000160FFF7DBFD009005E0FFF7D7FD0099E2
:10071000401A642897D884480068C005F5D5A068B9
:1007200001280AD0002801D0052811D0286A4008E5
:1007300040002862286AB84302E0286A0121084381
:100740002862A068002812D0FFF7B8FD00900AE0E8
:10075000286A38432862F0E7FFF7B0FD0099411A94
:100760007248814275D8286A8007F5D50DE0FFF7F9
:10077000A5FD009006E0FFF7A1FD0099411A6B4826
:10078000814266D8286A8007F5D40198002804D0F1
:10079000E969012000078143E9612078C00635D569
:1007A000606901280CD0401D686B24D03843686311
:1007B000686B400840006863FFF780FD074622E051
:1007C000686B38436863686B012108436863FFF70F
:1007D00075FD074604E0FFF771FDC01B022838D8FD
:1007E000686B8007F7D5686BF8218843A169C90059
:1007F000084368630AE0B8436863F4E7FFF75EFD07
:10080000C01B022825D8686B8007F7D420788006A3
:1008100037D568680007800F032813D06868000781
:10082000800F022804D16868C003800F032809D014
:10083000206A0028686B16D030436863FFF73EFDDE
:1008400006460CE0686BC0031BD5206A012864D102
:1008500017E05BE0FFF732FD801B022856D8686B7B
:10086000C003F7D50DE0B0436863FFF727FD0646E8
:1008700004E0FFF723FD801B022847D8686BC00304
:10088000F7D4606A002846D069680907890F0229F1
:1008900043D0012636060228286805D0B0432860D8
:1008A000FFF70CFD044633E0B0432860FFF706FD78
:1008B000074604E0FFF702FDC01B022826D828687F
:1008C0008001F7D4E86A216B000900010843E8625F
:1008D000A16AE06A084369687B22D2039143084316
:1008E0006860286830432860FFF7E8FC044604E0AD
:1008F000FFF7E4FC001B022808D828688001F7D520
:1009000009E0FFF7DBFC001B022801D90320FEBD34
:1009100028688001F5D40020FEBD0120FEBD000046
:100920000000010000100240007000408813000029
:10093000042204490428086902D0904308617047E2
:100940001043FBE700E000E070470000094910B5E4
:10095000401E884201D9012010BD074C606103216F
:10096000081F00F021FB0020A0610720206100206B
:1009700010BD0000FFFFFF0000E000E010B5FFF732
:10098000E3FF10BD7047704770B502462032137EFA
:10099000012B1BD00123137602245476046865686A
:1009A0007026B5436560046865680E683543656008
:1009B0000468A5688026B543A56000688468496816
:1009C0000C43846053760020107670BD022070BD09
:1009D00070B5040005D025462035687E002802D079
:1009E00006E0012070BD00202876204600F00AF8BD
:1009F00002206876211D206800F04CFC01206876FA
:100A0000002070BD00B50068114987B088421CD134
:100A100010488269C1140A438261806908400590C8
:100A2000C8100090002002210290039001910491CF
:100A300009206946C006FFF78FFB002211460E20F1
:100A4000FFF792FC0E20FFF785FC07B000BD000009
:100A5000002C014000100240F8B505460446203540
:100A6000287E012817D001272F7602206876226879
:100A700090687726FF23B0431B0298439060086874
:100A8000502837D00EDC202857D006DC00284ED066
:100A9000102840D14EE00220F8BD302850D0402828
:100AA00039D13CE060282DD0702817D001221203E4
:100AB000801A0ED090422ED1CB684A68896820688F
:100AC00000F039FC206881680122920311438160A3
:100AD00021E020688168C908C900F8E7CB684A6846
:100AE0008968206800F027FC21688868B04330439B
:100AF000886010E0CA684968206800F02FFC502127
:100B0000206806E0CA684968206800F065FC60213A
:100B1000206800F01BFC6F7600202876F8BDCA68BC
:100B20004968206800F01AFC40212068F1E70021A4
:100B30002068EEE710212068EBE720212068E8E735
:100B400030212068E5E77047F8B5064604462036B0
:100B5000307E0D4601283DD001203076022070768F
:100B6000002A39D0042A46D0082A57D02B68297B7E
:100B700020689E468C466B68016A012212039143ED
:100B80000162C169026A03273F02B9431B020B439A
:100B90000F2109038B4361460907090C19430523FB
:100BA0005B039A4373460A273B401B031343C1610F
:100BB00003622068C169032292029143C1612068E7
:100BC000C169AA6812021143C16101207076002038
:100BD0003076F8BD0220F8BDEB6806CD083D2068F0
:100BE00000F0CEFB206882690C218A438261206874
:100BF0008169AA680FE0EB6806CD083D206800F027
:100C0000FEFB20688269032189028A438261206891
:100C10008169AA68120211438161D6E788CD2879DB
:100C200021688446086AFF22013290430862C8693D
:100C30000A6A800880003843F027B84367463F07B8
:100C40003F0E07430520400282430A20034018025A
:100C50001043CF6108622068C1690C229143C161D1
:100C60002068C1692A68AEE770B5040005D0254642
:100C70002035687E002802D006E0012070BD0020EB
:100C80002876204600F00AF802206876211D2068A8
:100C900000F000FB01206876002070BD704710B5A1
:100CA00002680446002906D0042907D0082914D078
:100CB0000C2907D114E0D068022301E0D068042396
:100CC0001843D0600122206800F02AFB20680168E8
:100CD000012211430160002010BDD0680823EFE716
:100CE000D0681023ECE770B5044600680169002560
:100CF000C9438907002915DBC168C943890711D495
:100D0000E91E016101202076206880698007204665
:100D100002D0FFF718FF04E000F096F8204600F03C
:100D200094F8257620680169C943490717D4C1683A
:100D3000C943490713D40421C94301610220207625
:100D4000206880698005800F204602D0FFF7FBFEF7
:100D500004E000F079F8204600F077F82576206866
:100D60000169C943090716D4C168C943090712D4E8
:100D70000821C9430161042020762068C0698007EA
:100D8000204602D0FFF7DFFE04E000F05DF82046C9
:100D900000F05BF8257620680169C943C90617D4BD
:100DA000C168C943C90613D41021C9430161082091
:100DB00020762068C0698005800F204602D0FFF7AA
:100DC000C2FE04E000F040F8204600F03EF8257630
:100DD00020680169C943C90708D1C168C943C90767
:100DE00004D1891E0161204600F030F820680169B5
:100DF000C943090609D4C168C943090605D480213D
:100E0000C94301612046FFF7BDFD20680169C94360
:100E1000490609D4C168C943490605D44021C943DC
:100E20000161204600F036F820680169C94389064F
:100E300009D4C168C943890605D42021C943016189
:100E40002046FFF7A0FD70BD70477047704710B592
:100E5000034620331C7E0022012C0AD001241C767C
:100E6000002908D0042909D008290AD00C290DD15D
:100E70000AE0022010BD0068426B07E00068826B48
:100E800004E00068C26B01E00068026C0020187684
:100E9000104610BD7047FEE7F0B51C4887B04269A8
:100EA000012149050A43426142690A4005924269AB
:100EB00049000A43426142690A4005924269491168
:100EC0000A4342614069124C0840124F05900022CB
:100ED00021463846FFF7ECF90F4E002231460F4805
:100EE000FFF7E6F900940024012501950294694674
:100EF00038460394FFF730F9029469460748009694
:100F000001950394FFF728F907B0F0BD00100240E7
:100F1000FF0F000000100048040400000014004807
:100F200010B51E488AB01C490160FF210024E03141
:100F30008460416004611A494461C160FFF748FD63
:100F4000002800D0FEE701200003049004A9134804
:100F5000FFF782FD002800D0FEE71048FFF784FE6F
:100F6000002800D0FEE7089408A90C480994FFF770
:100F70000BFD002800D0FEE70120019000940294B0
:100F80000022694603940548FFF7DEFD002800D0E3
:100F9000FEE70AB010BD0000002C01401800002040
:100FA000FFFF0000704700008307FF22DB0E9A401E
:100FB0008907090E994000280BDA0007000F08384E
:100FC000830808489B001818C36993430B43C36107
:100FD0007047830804489B001B1818689043084317
:100FE0001860704700ED00E000E400E0704700008A
:100FF000FEB504460A21FFF77BF80E466421204621
:10100000FFF776F808460A21FFF772F87D21029073
:10101000C9002046FFF76CF8044608466421FFF734
:1010200067F8C0B20190E0B20090002204213E486F
:10103000FFF73EF93D4C60693D4DA95D0843606195
:101040000721012249022046FFF732F9FF21002241
:1010500001312046FFF72CF90320FFF771F8606992
:10106000FF2636023040606160690F273F02384337
:1010700060610120FFF764F861690298285C014310
:1010800061610D21012209022046FFF711F90121BA
:10109000002249022046FFF70BF90320FFF750F822
:1010A0006069304060616069384360610120FFF72A
:1010B00047F861690198285C014361610B210122B5
:1010C00009022046FFF7F4F8012100228902204698
:1010D000FFF7EEF80320FFF733F8606930406061F6
:1010E0006069384360610120FFF72AF86169009860
:1010F000285C014361610721012209022046FFF7B4
:10110000D7F801210022C9022046FFF7D1F80320B9
:10111000FFF716F8606930406061606938436061CC
:101120000120FFF70DF8FEBD001400480010004834
:10113000B0140008704710B5FFF7C6F8FFF71EFCA3
:1011400010BD30B591B001200090019000040A90CC
:101150000001022500240B9009950C946846FFF7C6
:10116000FBF9002800D0FEE707200D900F94012125
:101170000E9510940DA8FFF7FBF8002800D0FEE7AD
:10118000FFF7A0F97D21C900FEF7B2FFFFF7DEFBF4
:101190000420FFF7CDFB00221146501EFFF7E4F8B4
:1011A00011B030BD1248016801221143016041684D
:1011B000104A1140416001680F4A11400160016806
:1011C000012292049143016041683F22120491433D
:1011D0004160C16A09090901C162016B074A1140F6
:1011E0000163416B490849004163002181607047F8
:1011F000001002400CB8FF08FFFFF6FE2CFEFCFFBB
:1012000070B51E4C2078401CC0B22070012801D956
:10121000002020701A4D2869C007C00F6070217827
:10122000012906D1002804D100211648FFF70FFE3E
:10123000608020786178084304D100211148FFF7CD
:1012400006FEA080A0886188884202D96278002AC0
:1012500003D06078012809D00CE0401A80B20A4916
:10126000E080884206D80949086003E028690849F7
:10127000084028610348FFF736FD70BD08000020D4
:10128000002C0140180000200F2700001000002053
:10129000FEFF0000F0B502681B4B0124A4071B4DA4
:1012A000984203D0A04201D0A84203D17026B24395
:1012B0004E683243164E174F98420DD0A0420BD0C5
:1012C000A84209D0144CA04206D0B04204D0B84283
:1012D00002D0124CA04204D103242402A243CC68C1
:1012E000224302608A68C2620A688262984206D01B
:1012F000B04204D0B84202D0084A904201D10969F4
:10130000016301214161F0BD002C01400004004057
:1013100000400140004401400020004000480140DE
:1013200010B50123046A8B409C430462036A8A401F
:101330001343036210BD30B58468FF252D021B02E4
:101340001343AC430B432343836030BD8268702357
:101350009A430A4307210A438260704730B5036A03
:10136000046A6408640004628469F025AC431201D5
:1013700022430A24A3430B438261036230BD000071
:1013800070B5046A6408640004628469056A0F4EDB
:10139000B04209D00126B607B04205D00C4EB0428B
:1013A00002D00C4EB04202D1A408A40000E00122F9
:1013B0001443F02294431A07120E0A2322439D433A
:1013C000194029438261016270BD0000002C014078
:1013D000000400400040014030B5036A1024A343DC
:1013E00003628469036A0F252D031203AC43224371
:1013F000A024A343090119438261016230BD70B585
:10140000046A1025AC4304628569046A0326360227
:10141000B54312022A430F252D031B071B0CAA43B9
:101420001343A022090194431140214383610162C7
:1014300070BD02E008C8121F08C1002AFAD1704727
:101440007047002001E001C1121F002AFBD1704744
:10145000FEF742FFFFF775FEFFF71EFDFFF760FD89
:1014600000210C48FFF71BFC0B4C01250B4EAD0275
:101470006060012229463046FEF71AFF2068FFF718
:10148000B7FD002229463046FEF712FF2068FFF71D
:10149000AFFDEEE718000020100000200014004807
:1014A0000000000000000000010203040607080914
:1014B0003F065B4F666D7D077F6F0000DC14000800
:1014C000000000201800000032140008F414000886
:1014D00018000020400400004214000800127A00A6
:1014E00000000000000000000000000000000000FC
:0414F00000000000F8
:04000005080000C12E
:00000001FF
